{
  "_format": "hh-sol-artifact-1",
  "contractName": "App",
  "sourceName": "contracts/App.sol",
  "abi": [
    {
      "inputs": [],
      "stateMutability": "nonpayable",
      "type": "constructor"
    },
    {
      "inputs": [],
      "name": "AccessControlBadConfirmation",
      "type": "error"
    },
    {
      "inputs": [
        {
          "internalType": "address",
          "name": "account",
          "type": "address"
        },
        {
          "internalType": "bytes32",
          "name": "neededRole",
          "type": "bytes32"
        }
      ],
      "name": "AccessControlUnauthorizedAccount",
      "type": "error"
    },
    {
      "anonymous": false,
      "inputs": [
        {
          "indexed": false,
          "internalType": "uint64",
          "name": "certificateId",
          "type": "uint64"
        }
      ],
      "name": "CertificateGenerated",
      "type": "event"
    },
    {
      "anonymous": false,
      "inputs": [
        {
          "indexed": false,
          "internalType": "uint64",
          "name": "requestId",
          "type": "uint64"
        }
      ],
      "name": "CertificateRequested",
      "type": "event"
    },
    {
      "anonymous": false,
      "inputs": [
        {
          "indexed": false,
          "internalType": "address",
          "name": "doctorAddr",
          "type": "address"
        }
      ],
      "name": "DoctorAddressAdded",
      "type": "event"
    },
    {
      "anonymous": false,
      "inputs": [
        {
          "indexed": false,
          "internalType": "address",
          "name": "doctorAddr",
          "type": "address"
        }
      ],
      "name": "DoctorAddressRemoved",
      "type": "event"
    },
    {
      "anonymous": false,
      "inputs": [
        {
          "indexed": false,
          "internalType": "address",
          "name": "doctorAddr",
          "type": "address"
        }
      ],
      "name": "DoctorRemoved",
      "type": "event"
    },
    {
      "anonymous": false,
      "inputs": [
        {
          "indexed": true,
          "internalType": "address",
          "name": "doctorAddr",
          "type": "address"
        },
        {
          "indexed": false,
          "internalType": "bool",
          "name": "isActive",
          "type": "bool"
        }
      ],
      "name": "DoctorStatusChanged",
      "type": "event"
    },
    {
      "anonymous": false,
      "inputs": [
        {
          "indexed": true,
          "internalType": "bytes32",
          "name": "role",
          "type": "bytes32"
        },
        {
          "indexed": true,
          "internalType": "bytes32",
          "name": "previousAdminRole",
          "type": "bytes32"
        },
        {
          "indexed": true,
          "internalType": "bytes32",
          "name": "newAdminRole",
          "type": "bytes32"
        }
      ],
      "name": "RoleAdminChanged",
      "type": "event"
    },
    {
      "anonymous": false,
      "inputs": [
        {
          "indexed": true,
          "internalType": "bytes32",
          "name": "role",
          "type": "bytes32"
        },
        {
          "indexed": true,
          "internalType": "address",
          "name": "account",
          "type": "address"
        },
        {
          "indexed": true,
          "internalType": "address",
          "name": "sender",
          "type": "address"
        }
      ],
      "name": "RoleGranted",
      "type": "event"
    },
    {
      "anonymous": false,
      "inputs": [
        {
          "indexed": true,
          "internalType": "bytes32",
          "name": "role",
          "type": "bytes32"
        },
        {
          "indexed": true,
          "internalType": "address",
          "name": "account",
          "type": "address"
        },
        {
          "indexed": true,
          "internalType": "address",
          "name": "sender",
          "type": "address"
        }
      ],
      "name": "RoleRevoked",
      "type": "event"
    },
    {
      "anonymous": false,
      "inputs": [
        {
          "indexed": false,
          "internalType": "address",
          "name": "userAddr",
          "type": "address"
        }
      ],
      "name": "UserAddressAdded",
      "type": "event"
    },
    {
      "anonymous": false,
      "inputs": [
        {
          "indexed": false,
          "internalType": "address",
          "name": "userAddr",
          "type": "address"
        }
      ],
      "name": "UserAddressRemoved",
      "type": "event"
    },
    {
      "inputs": [],
      "name": "ADMIN_ROLE",
      "outputs": [
        {
          "internalType": "bytes32",
          "name": "",
          "type": "bytes32"
        }
      ],
      "stateMutability": "view",
      "type": "function"
    },
    {
      "inputs": [],
      "name": "DEFAULT_ADMIN_ROLE",
      "outputs": [
        {
          "internalType": "bytes32",
          "name": "",
          "type": "bytes32"
        }
      ],
      "stateMutability": "view",
      "type": "function"
    },
    {
      "inputs": [],
      "name": "DOCTOR_ROLE",
      "outputs": [
        {
          "internalType": "bytes32",
          "name": "",
          "type": "bytes32"
        }
      ],
      "stateMutability": "view",
      "type": "function"
    },
    {
      "inputs": [],
      "name": "HOSPITAL_ROLE",
      "outputs": [
        {
          "internalType": "bytes32",
          "name": "",
          "type": "bytes32"
        }
      ],
      "stateMutability": "view",
      "type": "function"
    },
    {
      "inputs": [],
      "name": "USER_ROLE",
      "outputs": [
        {
          "internalType": "bytes32",
          "name": "",
          "type": "bytes32"
        }
      ],
      "stateMutability": "view",
      "type": "function"
    },
    {
      "inputs": [],
      "name": "certificateCounter",
      "outputs": [
        {
          "internalType": "uint64",
          "name": "",
          "type": "uint64"
        }
      ],
      "stateMutability": "view",
      "type": "function"
    },
    {
      "inputs": [
        {
          "internalType": "uint64",
          "name": "",
          "type": "uint64"
        }
      ],
      "name": "certificates",
      "outputs": [
        {
          "internalType": "uint64",
          "name": "id",
          "type": "uint64"
        },
        {
          "components": [
            {
              "internalType": "bool",
              "name": "isRegistered",
              "type": "bool"
            },
            {
              "internalType": "bool",
              "name": "isActive",
              "type": "bool"
            },
            {
              "internalType": "string",
              "name": "uf",
              "type": "string"
            },
            {
              "internalType": "string",
              "name": "crm",
              "type": "string"
            },
            {
              "internalType": "string",
              "name": "especialidade",
              "type": "string"
            },
            {
              "internalType": "address",
              "name": "hospital",
              "type": "address"
            }
          ],
          "internalType": "struct App.Doctor",
          "name": "doctor",
          "type": "tuple"
        },
        {
          "components": [
            {
              "internalType": "bool",
              "name": "isRegistered",
              "type": "bool"
            },
            {
              "internalType": "string",
              "name": "name",
              "type": "string"
            },
            {
              "internalType": "string",
              "name": "cpf",
              "type": "string"
            },
            {
              "internalType": "string",
              "name": "email",
              "type": "string"
            }
          ],
          "internalType": "struct App.User",
          "name": "user",
          "type": "tuple"
        },
        {
          "components": [
            {
              "internalType": "bool",
              "name": "isRegistered",
              "type": "bool"
            },
            {
              "internalType": "string",
              "name": "name",
              "type": "string"
            }
          ],
          "internalType": "struct App.Entity",
          "name": "hospital",
          "type": "tuple"
        },
        {
          "internalType": "string",
          "name": "description",
          "type": "string"
        }
      ],
      "stateMutability": "view",
      "type": "function"
    },
    {
      "inputs": [
        {
          "internalType": "uint256",
          "name": "",
          "type": "uint256"
        }
      ],
      "name": "doctorAddresses",
      "outputs": [
        {
          "internalType": "address",
          "name": "",
          "type": "address"
        }
      ],
      "stateMutability": "view",
      "type": "function"
    },
    {
      "inputs": [
        {
          "internalType": "address",
          "name": "",
          "type": "address"
        }
      ],
      "name": "doctors",
      "outputs": [
        {
          "internalType": "bool",
          "name": "isRegistered",
          "type": "bool"
        },
        {
          "internalType": "bool",
          "name": "isActive",
          "type": "bool"
        },
        {
          "internalType": "string",
          "name": "uf",
          "type": "string"
        },
        {
          "internalType": "string",
          "name": "crm",
          "type": "string"
        },
        {
          "internalType": "string",
          "name": "especialidade",
          "type": "string"
        },
        {
          "internalType": "address",
          "name": "hospital",
          "type": "address"
        }
      ],
      "stateMutability": "view",
      "type": "function"
    },
    {
      "inputs": [
        {
          "internalType": "address",
          "name": "",
          "type": "address"
        }
      ],
      "name": "entities",
      "outputs": [
        {
          "internalType": "bool",
          "name": "isRegistered",
          "type": "bool"
        },
        {
          "internalType": "string",
          "name": "name",
          "type": "string"
        }
      ],
      "stateMutability": "view",
      "type": "function"
    },
    {
      "inputs": [
        {
          "internalType": "address",
          "name": "docAddr",
          "type": "address"
        },
        {
          "internalType": "address",
          "name": "patientAddr",
          "type": "address"
        },
        {
          "internalType": "address",
          "name": "hospitalAddr",
          "type": "address"
        },
        {
          "internalType": "string",
          "name": "description",
          "type": "string"
        }
      ],
      "name": "generateCertificate",
      "outputs": [],
      "stateMutability": "nonpayable",
      "type": "function"
    },
    {
      "inputs": [],
      "name": "getDoctorAddresses",
      "outputs": [
        {
          "internalType": "address[]",
          "name": "",
          "type": "address[]"
        }
      ],
      "stateMutability": "view",
      "type": "function"
    },
    {
      "inputs": [
        {
          "internalType": "address",
          "name": "doctorAddr",
          "type": "address"
        }
      ],
      "name": "getDoctorInformation",
      "outputs": [
        {
          "components": [
            {
              "internalType": "bool",
              "name": "isRegistered",
              "type": "bool"
            },
            {
              "internalType": "bool",
              "name": "isActive",
              "type": "bool"
            },
            {
              "internalType": "string",
              "name": "uf",
              "type": "string"
            },
            {
              "internalType": "string",
              "name": "crm",
              "type": "string"
            },
            {
              "internalType": "string",
              "name": "especialidade",
              "type": "string"
            },
            {
              "internalType": "address",
              "name": "hospital",
              "type": "address"
            }
          ],
          "internalType": "struct App.Doctor",
          "name": "",
          "type": "tuple"
        }
      ],
      "stateMutability": "view",
      "type": "function"
    },
    {
      "inputs": [
        {
          "internalType": "address",
          "name": "addr",
          "type": "address"
        }
      ],
      "name": "getEntityInformation",
      "outputs": [
        {
          "components": [
            {
              "internalType": "bool",
              "name": "isRegistered",
              "type": "bool"
            },
            {
              "internalType": "string",
              "name": "name",
              "type": "string"
            }
          ],
          "internalType": "struct App.Entity",
          "name": "",
          "type": "tuple"
        }
      ],
      "stateMutability": "view",
      "type": "function"
    },
    {
      "inputs": [
        {
          "internalType": "bytes32",
          "name": "role",
          "type": "bytes32"
        }
      ],
      "name": "getRoleAdmin",
      "outputs": [
        {
          "internalType": "bytes32",
          "name": "",
          "type": "bytes32"
        }
      ],
      "stateMutability": "view",
      "type": "function"
    },
    {
      "inputs": [],
      "name": "getUserAddresses",
      "outputs": [
        {
          "internalType": "address[]",
          "name": "",
          "type": "address[]"
        }
      ],
      "stateMutability": "view",
      "type": "function"
    },
    {
      "inputs": [
        {
          "internalType": "address",
          "name": "userAddr",
          "type": "address"
        }
      ],
      "name": "getUserInformation",
      "outputs": [
        {
          "components": [
            {
              "internalType": "bool",
              "name": "isRegistered",
              "type": "bool"
            },
            {
              "internalType": "string",
              "name": "name",
              "type": "string"
            },
            {
              "internalType": "string",
              "name": "cpf",
              "type": "string"
            },
            {
              "internalType": "string",
              "name": "email",
              "type": "string"
            }
          ],
          "internalType": "struct App.User",
          "name": "",
          "type": "tuple"
        }
      ],
      "stateMutability": "view",
      "type": "function"
    },
    {
      "inputs": [
        {
          "internalType": "bytes32",
          "name": "role",
          "type": "bytes32"
        },
        {
          "internalType": "address",
          "name": "account",
          "type": "address"
        }
      ],
      "name": "grantRole",
      "outputs": [],
      "stateMutability": "nonpayable",
      "type": "function"
    },
    {
      "inputs": [
        {
          "internalType": "bytes32",
          "name": "role",
          "type": "bytes32"
        },
        {
          "internalType": "address",
          "name": "account",
          "type": "address"
        }
      ],
      "name": "hasRole",
      "outputs": [
        {
          "internalType": "bool",
          "name": "",
          "type": "bool"
        }
      ],
      "stateMutability": "view",
      "type": "function"
    },
    {
      "inputs": [
        {
          "internalType": "address",
          "name": "doctorAddr",
          "type": "address"
        },
        {
          "internalType": "address",
          "name": "entityAddr",
          "type": "address"
        },
        {
          "internalType": "string",
          "name": "uf",
          "type": "string"
        },
        {
          "internalType": "string",
          "name": "especialidade",
          "type": "string"
        },
        {
          "internalType": "string",
          "name": "crm",
          "type": "string"
        }
      ],
      "name": "registerDoctor",
      "outputs": [],
      "stateMutability": "nonpayable",
      "type": "function"
    },
    {
      "inputs": [
        {
          "internalType": "address",
          "name": "addr",
          "type": "address"
        },
        {
          "internalType": "string",
          "name": "name",
          "type": "string"
        }
      ],
      "name": "registerEntity",
      "outputs": [],
      "stateMutability": "nonpayable",
      "type": "function"
    },
    {
      "inputs": [
        {
          "internalType": "address",
          "name": "addr",
          "type": "address"
        },
        {
          "internalType": "string",
          "name": "nome",
          "type": "string"
        },
        {
          "internalType": "string",
          "name": "cpf",
          "type": "string"
        },
        {
          "internalType": "string",
          "name": "email",
          "type": "string"
        }
      ],
      "name": "registerUser",
      "outputs": [],
      "stateMutability": "nonpayable",
      "type": "function"
    },
    {
      "inputs": [
        {
          "internalType": "address",
          "name": "doctorAddr",
          "type": "address"
        }
      ],
      "name": "removeDoctor",
      "outputs": [],
      "stateMutability": "nonpayable",
      "type": "function"
    },
    {
      "inputs": [
        {
          "internalType": "address",
          "name": "entityAddr",
          "type": "address"
        }
      ],
      "name": "removeEntity",
      "outputs": [],
      "stateMutability": "nonpayable",
      "type": "function"
    },
    {
      "inputs": [
        {
          "internalType": "address",
          "name": "userAddr",
          "type": "address"
        }
      ],
      "name": "removeUser",
      "outputs": [],
      "stateMutability": "nonpayable",
      "type": "function"
    },
    {
      "inputs": [
        {
          "internalType": "bytes32",
          "name": "role",
          "type": "bytes32"
        },
        {
          "internalType": "address",
          "name": "callerConfirmation",
          "type": "address"
        }
      ],
      "name": "renounceRole",
      "outputs": [],
      "stateMutability": "nonpayable",
      "type": "function"
    },
    {
      "inputs": [
        {
          "internalType": "address",
          "name": "doctorAddr",
          "type": "address"
        },
        {
          "internalType": "string",
          "name": "description",
          "type": "string"
        }
      ],
      "name": "requestCertificate",
      "outputs": [],
      "stateMutability": "nonpayable",
      "type": "function"
    },
    {
      "inputs": [],
      "name": "requestCounter",
      "outputs": [
        {
          "internalType": "uint64",
          "name": "",
          "type": "uint64"
        }
      ],
      "stateMutability": "view",
      "type": "function"
    },
    {
      "inputs": [
        {
          "internalType": "uint64",
          "name": "",
          "type": "uint64"
        }
      ],
      "name": "requests",
      "outputs": [
        {
          "internalType": "uint64",
          "name": "id",
          "type": "uint64"
        },
        {
          "internalType": "address",
          "name": "userAddr",
          "type": "address"
        },
        {
          "internalType": "address",
          "name": "doctorAddr",
          "type": "address"
        },
        {
          "internalType": "address",
          "name": "hospitalAddr",
          "type": "address"
        },
        {
          "internalType": "string",
          "name": "description",
          "type": "string"
        },
        {
          "internalType": "bool",
          "name": "isApproved",
          "type": "bool"
        },
        {
          "internalType": "bool",
          "name": "isPending",
          "type": "bool"
        },
        {
          "internalType": "uint256",
          "name": "blockNumber",
          "type": "uint256"
        }
      ],
      "stateMutability": "view",
      "type": "function"
    },
    {
      "inputs": [
        {
          "internalType": "uint64",
          "name": "requestId",
          "type": "uint64"
        },
        {
          "internalType": "bool",
          "name": "approve",
          "type": "bool"
        }
      ],
      "name": "respondToCertificateRequest",
      "outputs": [],
      "stateMutability": "nonpayable",
      "type": "function"
    },
    {
      "inputs": [
        {
          "internalType": "bytes32",
          "name": "role",
          "type": "bytes32"
        },
        {
          "internalType": "address",
          "name": "account",
          "type": "address"
        }
      ],
      "name": "revokeRole",
      "outputs": [],
      "stateMutability": "nonpayable",
      "type": "function"
    },
    {
      "inputs": [
        {
          "internalType": "address",
          "name": "doctorAddr",
          "type": "address"
        },
        {
          "internalType": "bool",
          "name": "isActive",
          "type": "bool"
        }
      ],
      "name": "setDoctorActiveStatus",
      "outputs": [],
      "stateMutability": "nonpayable",
      "type": "function"
    },
    {
      "inputs": [
        {
          "internalType": "bytes4",
          "name": "interfaceId",
          "type": "bytes4"
        }
      ],
      "name": "supportsInterface",
      "outputs": [
        {
          "internalType": "bool",
          "name": "",
          "type": "bool"
        }
      ],
      "stateMutability": "view",
      "type": "function"
    },
    {
      "inputs": [
        {
          "internalType": "uint256",
          "name": "",
          "type": "uint256"
        }
      ],
      "name": "userAddresses",
      "outputs": [
        {
          "internalType": "address",
          "name": "",
          "type": "address"
        }
      ],
      "stateMutability": "view",
      "type": "function"
    },
    {
      "inputs": [
        {
          "internalType": "address",
          "name": "",
          "type": "address"
        }
      ],
      "name": "users",
      "outputs": [
        {
          "internalType": "bool",
          "name": "isRegistered",
          "type": "bool"
        },
        {
          "internalType": "string",
          "name": "name",
          "type": "string"
        },
        {
          "internalType": "string",
          "name": "cpf",
          "type": "string"
        },
        {
          "internalType": "string",
          "name": "email",
          "type": "string"
        }
      ],
      "stateMutability": "view",
      "type": "function"
    }
  ],
  "bytecode": "0x60806040523480156200001157600080fd5b50620000276000801b336200006160201b60201c565b506200005a7fa49807205ce4d355092ef5a8a18f56e8913cf4a201fbe287825b095693c21775336200006160201b60201c565b50620001d6565b60006200007583836200016460201b60201c565b6200015957600160008085815260200190815260200160002060000160008473ffffffffffffffffffffffffffffffffffffffff1673ffffffffffffffffffffffffffffffffffffffff16815260200190815260200160002060006101000a81548160ff021916908315150217905550620000f5620001ce60201b60201c565b73ffffffffffffffffffffffffffffffffffffffff168273ffffffffffffffffffffffffffffffffffffffff16847f2f8788117e7eff1d82e926ec794901d17c78024a50270940304540a733656f0d60405160405180910390a4600190506200015e565b600090505b92915050565b600080600084815260200190815260200160002060000160008373ffffffffffffffffffffffffffffffffffffffff1673ffffffffffffffffffffffffffffffffffffffff16815260200190815260200160002060009054906101000a900460ff16905092915050565b600033905090565b615e0980620001e66000396000f3fe608060405234801561001057600080fd5b50600436106102115760003560e01c806391d1485411610125578063a87430ba116100ad578063dd1829961161007c578063dd1829961461066c578063f6ba667814610688578063fa223b44146106a6578063fe69c296146106da578063fec331f2146106f657610211565b8063a87430ba146105cc578063a9583c22146105ff578063c736cf9314610634578063d547741f1461065057610211565b80639862d5f0116100f45780639862d5f01461051457806398fc90e914610544578063a0714eb014610560578063a217fddf14610590578063a591efde146105ae57610211565b806391d148541461048e578063973a814e146104be578063981b5502146104dc57806398575188146104f857610211565b80633ba51e7c116101a857806367764b261161017757806367764b26146103fc57806375b238fc1461041a57806383195a7a1461043857806384d3d47b1461045457806388b261ac1461047257610211565b80633ba51e7c14610349578063411010ec1461037957806347ed9e1d146103b0578063502c9bd5146103cc57610211565b8063248a9ca3116101e4578063248a9ca3146102c55780632f2ff15d146102f557806332b3f5681461031157806336568abe1461032d57610211565b806301ffc9a71461021657806311fdcb071461024657806313119161146102765780631d8ee48a14610294575b600080fd5b610230600480360381019061022b91906143f9565b610714565b60405161023d9190614441565b60405180910390f35b610260600480360381019061025b91906144ba565b61078e565b60405161026d919061462c565b60405180910390f35b61027e610a29565b60405161028b9190614667565b60405180910390f35b6102ae60048036038101906102a991906144ba565b610a4d565b6040516102bc9291906146cc565b60405180910390f35b6102df60048036038101906102da9190614728565b610b06565b6040516102ec9190614667565b60405180910390f35b61030f600480360381019061030a9190614755565b610b25565b005b61032b600480360381019061032691906148ca565b610b47565b005b61034760048036038101906103429190614755565b610cff565b005b610363600480360381019061035e919061495c565b610d7a565b6040516103709190614998565b60405180910390f35b610393600480360381019061038e91906149f3565b610db9565b6040516103a7989796959493929190614a3e565b60405180910390f35b6103ca60048036038101906103c59190614ac3565b610f17565b005b6103e660048036038101906103e1919061495c565b611459565b6040516103f39190614998565b60405180910390f35b610404611498565b6040516104119190614b46565b60405180910390f35b6104226114b2565b60405161042f9190614667565b60405180910390f35b610452600480360381019061044d9190614b8d565b6114d6565b005b61045c611622565b6040516104699190614c7c565b60405180910390f35b61048c60048036038101906104879190614c9e565b6116b0565b005b6104a860048036038101906104a39190614755565b611885565b6040516104b59190614441565b60405180910390f35b6104c66118ef565b6040516104d39190614b46565b60405180910390f35b6104f660048036038101906104f19190614cde565b611909565b005b610512600480360381019061050d91906144ba565b611cb1565b005b61052e600480360381019061052991906144ba565b611e3b565b60405161053b9190614e1e565b60405180910390f35b61055e600480360381019061055991906144ba565b612065565b005b61057a600480360381019061057591906144ba565b61238e565b6040516105879190614e7d565b60405180910390f35b610598612494565b6040516105a59190614667565b60405180910390f35b6105b661249b565b6040516105c39190614c7c565b60405180910390f35b6105e660048036038101906105e191906144ba565b612529565b6040516105f69493929190614e9f565b60405180910390f35b610619600480360381019061061491906144ba565b6126fe565b60405161062b96959493929190614ef9565b60405180910390f35b61064e600480360381019061064991906148ca565b61290c565b005b61066a60048036038101906106659190614755565b612db3565b005b610686600480360381019061068191906144ba565b612dd5565b005b610690612f3f565b60405161069d9190614667565b60405180910390f35b6106c060048036038101906106bb91906149f3565b612f63565b6040516106d1959493929190614f6f565b60405180910390f35b6106f460048036038101906106ef9190614fde565b613513565b005b6106fe613736565b60405161070b9190614667565b60405180910390f35b60007f7965db0b000000000000000000000000000000000000000000000000000000007bffffffffffffffffffffffffffffffffffffffffffffffffffffffff1916827bffffffffffffffffffffffffffffffffffffffffffffffffffffffff1916148061078757506107868261375a565b5b9050919050565b61079661429a565b600360008373ffffffffffffffffffffffffffffffffffffffff1673ffffffffffffffffffffffffffffffffffffffff1681526020019081526020016000206040518060c00160405290816000820160009054906101000a900460ff161515151581526020016000820160019054906101000a900460ff16151515158152602001600182018054610826906150c8565b80601f0160208091040260200160405190810160405280929190818152602001828054610852906150c8565b801561089f5780601f106108745761010080835404028352916020019161089f565b820191906000526020600020905b81548152906001019060200180831161088257829003601f168201915b505050505081526020016002820180546108b8906150c8565b80601f01602080910402602001604051908101604052809291908181526020018280546108e4906150c8565b80156109315780601f1061090657610100808354040283529160200191610931565b820191906000526020600020905b81548152906001019060200180831161091457829003601f168201915b5050505050815260200160038201805461094a906150c8565b80601f0160208091040260200160405190810160405280929190818152602001828054610976906150c8565b80156109c35780601f10610998576101008083540402835291602001916109c3565b820191906000526020600020905b8154815290600101906020018083116109a657829003601f168201915b505050505081526020016004820160009054906101000a900473ffffffffffffffffffffffffffffffffffffffff1673ffffffffffffffffffffffffffffffffffffffff1673ffffffffffffffffffffffffffffffffffffffff16815250509050919050565b7f14823911f2da1b49f045a0929a60b8c1f2a7fc8c06c7284ca3e8ab4e193a08c881565b60026020528060005260406000206000915090508060000160009054906101000a900460ff1690806001018054610a83906150c8565b80601f0160208091040260200160405190810160405280929190818152602001828054610aaf906150c8565b8015610afc5780601f10610ad157610100808354040283529160200191610afc565b820191906000526020600020905b815481529060010190602001808311610adf57829003601f168201915b5050505050905082565b6000806000838152602001908152602001600020600101549050919050565b610b2e82610b06565b610b37816137c4565b610b4183836137d8565b50505050565b610b717fc8f5b4140cca307cd927e59cbeea8291bffeee228fc677f0fa059aef7b4dd8d533611885565b610bb0576040517f08c379a0000000000000000000000000000000000000000000000000000000008152600401610ba790615145565b60405180910390fd5b600260008373ffffffffffffffffffffffffffffffffffffffff1673ffffffffffffffffffffffffffffffffffffffff16815260200190815260200160002060000160009054906101000a900460ff1615610c40576040517f08c379a0000000000000000000000000000000000000000000000000000000008152600401610c37906151b1565b60405180910390fd5b604051806040016040528060011515815260200182815250600260008473ffffffffffffffffffffffffffffffffffffffff1673ffffffffffffffffffffffffffffffffffffffff16815260200190815260200160002060008201518160000160006101000a81548160ff0219169083151502179055506020820151816001019081610ccc919061537d565b50905050610cfa7fc8f5b4140cca307cd927e59cbeea8291bffeee228fc677f0fa059aef7b4dd8d5836137d8565b505050565b610d076138c9565b73ffffffffffffffffffffffffffffffffffffffff168173ffffffffffffffffffffffffffffffffffffffff1614610d6b576040517f6697b23200000000000000000000000000000000000000000000000000000000815260040160405180910390fd5b610d7582826138d1565b505050565b60078181548110610d8a57600080fd5b906000526020600020016000915054906101000a900473ffffffffffffffffffffffffffffffffffffffff1681565b60066020528060005260406000206000915090508060000160009054906101000a900467ffffffffffffffff16908060000160089054906101000a900473ffffffffffffffffffffffffffffffffffffffff16908060010160009054906101000a900473ffffffffffffffffffffffffffffffffffffffff16908060020160009054906101000a900473ffffffffffffffffffffffffffffffffffffffff1690806003018054610e68906150c8565b80601f0160208091040260200160405190810160405280929190818152602001828054610e94906150c8565b8015610ee15780601f10610eb657610100808354040283529160200191610ee1565b820191906000526020600020905b815481529060010190602001808311610ec457829003601f168201915b5050505050908060040160009054906101000a900460ff16908060040160019054906101000a900460ff16908060050154905088565b610f417f0af1dac7dea2fd7f7738119cec7df099dfad49aa9d2e7d17ba6b60f63ae7411f85611885565b610f80576040517f08c379a0000000000000000000000000000000000000000000000000000000008152600401610f779061549b565b60405180910390fd5b600360008573ffffffffffffffffffffffffffffffffffffffff1673ffffffffffffffffffffffffffffffffffffffff16815260200190815260200160002060000160019054906101000a900460ff1661100f576040517f08c379a000000000000000000000000000000000000000000000000000000000815260040161100690615507565b60405180910390fd5b8173ffffffffffffffffffffffffffffffffffffffff16600360008673ffffffffffffffffffffffffffffffffffffffff1673ffffffffffffffffffffffffffffffffffffffff16815260200190815260200160002060040160009054906101000a900473ffffffffffffffffffffffffffffffffffffffff1673ffffffffffffffffffffffffffffffffffffffff16146110df576040517f08c379a00000000000000000000000000000000000000000000000000000000081526004016110d690615599565b60405180910390fd5b60006110ed848685856139c3565b9050600660008267ffffffffffffffff1667ffffffffffffffff16815260200190815260200160002060040160009054906101000a900460ff16611166576040517f08c379a000000000000000000000000000000000000000000000000000000000815260040161115d90615605565b60405180910390fd5b60006111718661078e565b9050600061117e86611e3b565b9050600061118b8661238e565b90506000600160009054906101000a900467ffffffffffffffff1690506001600081819054906101000a900467ffffffffffffffff16809291906111ce90615654565b91906101000a81548167ffffffffffffffff021916908367ffffffffffffffff160217905550506040518060a001604052808267ffffffffffffffff16815260200185815260200184815260200183815260200187815250600560008367ffffffffffffffff1667ffffffffffffffff16815260200190815260200160002060008201518160000160006101000a81548167ffffffffffffffff021916908367ffffffffffffffff16021790555060208201518160010160008201518160000160006101000a81548160ff02191690831515021790555060208201518160000160016101000a81548160ff02191690831515021790555060408201518160010190816112da919061537d565b5060608201518160020190816112f0919061537d565b506080820151816003019081611306919061537d565b5060a08201518160040160006101000a81548173ffffffffffffffffffffffffffffffffffffffff021916908373ffffffffffffffffffffffffffffffffffffffff160217905550505060408201518160060160008201518160000160006101000a81548160ff021916908315150217905550602082015181600101908161138e919061537d565b5060408201518160020190816113a4919061537d565b5060608201518160030190816113ba919061537d565b505050606082015181600a0160008201518160000160006101000a81548160ff02191690831515021790555060208201518160010190816113fb919061537d565b505050608082015181600c019081611413919061537d565b509050507f541d7786d4c8dabb0d781252e2f318a55f659e7c98c068e7cc1337640b8f7550816040516114469190614b46565b60405180910390a1505050505050505050565b6008818154811061146957600080fd5b906000526020600020016000915054906101000a900473ffffffffffffffffffffffffffffffffffffffff1681565b600160009054906101000a900467ffffffffffffffff1681565b7fa49807205ce4d355092ef5a8a18f56e8913cf4a201fbe287825b095693c2177581565b6000600660008467ffffffffffffffff1667ffffffffffffffff16815260200190815260200160002090508060040160019054906101000a900460ff16611552576040517f08c379a0000000000000000000000000000000000000000000000000000000008152600401611549906156d0565b60405180910390fd5b3373ffffffffffffffffffffffffffffffffffffffff168160010160009054906101000a900473ffffffffffffffffffffffffffffffffffffffff1673ffffffffffffffffffffffffffffffffffffffff16146115e4576040517f08c379a00000000000000000000000000000000000000000000000000000000081526004016115db90615762565b60405180910390fd5b818160040160006101000a81548160ff02191690831515021790555060008160040160016101000a81548160ff021916908315150217905550505050565b606060078054806020026020016040519081016040528092919081815260200182805480156116a657602002820191906000526020600020905b8160009054906101000a900473ffffffffffffffffffffffffffffffffffffffff1673ffffffffffffffffffffffffffffffffffffffff168152602001906001019080831161165c575b5050505050905090565b6116da7fc8f5b4140cca307cd927e59cbeea8291bffeee228fc677f0fa059aef7b4dd8d533611885565b8061170b575061170a7fa49807205ce4d355092ef5a8a18f56e8913cf4a201fbe287825b095693c2177533611885565b5b61174a576040517f08c379a0000000000000000000000000000000000000000000000000000000008152600401611741906157ce565b60405180910390fd5b600360008373ffffffffffffffffffffffffffffffffffffffff1673ffffffffffffffffffffffffffffffffffffffff16815260200190815260200160002060000160009054906101000a900460ff166117d9576040517f08c379a00000000000000000000000000000000000000000000000000000000081526004016117d09061583a565b60405180910390fd5b80600360008473ffffffffffffffffffffffffffffffffffffffff1673ffffffffffffffffffffffffffffffffffffffff16815260200190815260200160002060000160016101000a81548160ff0219169083151502179055508173ffffffffffffffffffffffffffffffffffffffff167fa638cb51bc7af9950d0b4b97e6e079ad47517c071824a48b815be8112ecb87ab826040516118799190614441565b60405180910390a25050565b600080600084815260200190815260200160002060000160008373ffffffffffffffffffffffffffffffffffffffff1673ffffffffffffffffffffffffffffffffffffffff16815260200190815260200160002060009054906101000a900460ff16905092915050565b600160089054906101000a900467ffffffffffffffff1681565b6119337fc8f5b4140cca307cd927e59cbeea8291bffeee228fc677f0fa059aef7b4dd8d533611885565b611972576040517f08c379a000000000000000000000000000000000000000000000000000000000815260040161196990615145565b60405180910390fd5b600360008673ffffffffffffffffffffffffffffffffffffffff1673ffffffffffffffffffffffffffffffffffffffff16815260200190815260200160002060000160009054906101000a900460ff1615611a02576040517f08c379a00000000000000000000000000000000000000000000000000000000081526004016119f9906158a6565b60405180910390fd5b600260008573ffffffffffffffffffffffffffffffffffffffff1673ffffffffffffffffffffffffffffffffffffffff16815260200190815260200160002060000160009054906101000a900460ff16611a91576040517f08c379a0000000000000000000000000000000000000000000000000000000008152600401611a8890615912565b60405180910390fd5b6040518060c001604052806001151581526020016001151581526020018481526020018281526020018381526020018573ffffffffffffffffffffffffffffffffffffffff16815250600360008773ffffffffffffffffffffffffffffffffffffffff1673ffffffffffffffffffffffffffffffffffffffff16815260200190815260200160002060008201518160000160006101000a81548160ff02191690831515021790555060208201518160000160016101000a81548160ff0219169083151502179055506040820151816001019081611b6e919061537d565b506060820151816002019081611b84919061537d565b506080820151816003019081611b9a919061537d565b5060a08201518160040160006101000a81548173ffffffffffffffffffffffffffffffffffffffff021916908373ffffffffffffffffffffffffffffffffffffffff1602179055509050506007859080600181540180825580915050600190039060005260206000200160009091909190916101000a81548173ffffffffffffffffffffffffffffffffffffffff021916908373ffffffffffffffffffffffffffffffffffffffff1602179055507f1528780482ffee4194e653b400fa578a1add3fe678dc33897731daa3a213288985604051611c779190614998565b60405180910390a1611ca97f0af1dac7dea2fd7f7738119cec7df099dfad49aa9d2e7d17ba6b60f63ae7411f866137d8565b505050505050565b611cdb7fa49807205ce4d355092ef5a8a18f56e8913cf4a201fbe287825b095693c2177533611885565b611d1a576040517f08c379a0000000000000000000000000000000000000000000000000000000008152600401611d119061597e565b60405180910390fd5b600460008273ffffffffffffffffffffffffffffffffffffffff1673ffffffffffffffffffffffffffffffffffffffff16815260200190815260200160002060000160009054906101000a900460ff16611da9576040517f08c379a0000000000000000000000000000000000000000000000000000000008152600401611da0906159ea565b60405180910390fd5b600460008273ffffffffffffffffffffffffffffffffffffffff1673ffffffffffffffffffffffffffffffffffffffff168152602001908152602001600020600080820160006101000a81549060ff0219169055600182016000611e0d91906142ea565b600282016000611e1d91906142ea565b600382016000611e2d91906142ea565b5050611e3881613c97565b50565b611e4361432a565b600460008373ffffffffffffffffffffffffffffffffffffffff1673ffffffffffffffffffffffffffffffffffffffff1681526020019081526020016000206040518060800160405290816000820160009054906101000a900460ff16151515158152602001600182018054611eb8906150c8565b80601f0160208091040260200160405190810160405280929190818152602001828054611ee4906150c8565b8015611f315780601f10611f0657610100808354040283529160200191611f31565b820191906000526020600020905b815481529060010190602001808311611f1457829003601f168201915b50505050508152602001600282018054611f4a906150c8565b80601f0160208091040260200160405190810160405280929190818152602001828054611f76906150c8565b8015611fc35780601f10611f9857610100808354040283529160200191611fc3565b820191906000526020600020905b815481529060010190602001808311611fa657829003601f168201915b50505050508152602001600382018054611fdc906150c8565b80601f0160208091040260200160405190810160405280929190818152602001828054612008906150c8565b80156120555780601f1061202a57610100808354040283529160200191612055565b820191906000526020600020905b81548152906001019060200180831161203857829003601f168201915b5050505050815250509050919050565b61208f7fa49807205ce4d355092ef5a8a18f56e8913cf4a201fbe287825b095693c2177533611885565b806120c057506120bf7fc8f5b4140cca307cd927e59cbeea8291bffeee228fc677f0fa059aef7b4dd8d533611885565b5b6120ff576040517f08c379a00000000000000000000000000000000000000000000000000000000081526004016120f6906157ce565b60405180910390fd5b6121297fc8f5b4140cca307cd927e59cbeea8291bffeee228fc677f0fa059aef7b4dd8d533611885565b80156121c257503373ffffffffffffffffffffffffffffffffffffffff16600360008373ffffffffffffffffffffffffffffffffffffffff1673ffffffffffffffffffffffffffffffffffffffff16815260200190815260200160002060040160009054906101000a900473ffffffffffffffffffffffffffffffffffffffff1673ffffffffffffffffffffffffffffffffffffffff16145b806121f357506121f27fa49807205ce4d355092ef5a8a18f56e8913cf4a201fbe287825b095693c2177533611885565b5b612232576040517f08c379a0000000000000000000000000000000000000000000000000000000008152600401612229906157ce565b60405180910390fd5b600360008273ffffffffffffffffffffffffffffffffffffffff1673ffffffffffffffffffffffffffffffffffffffff16815260200190815260200160002060000160009054906101000a900460ff166122c1576040517f08c379a00000000000000000000000000000000000000000000000000000000081526004016122b89061583a565b60405180910390fd5b600360008273ffffffffffffffffffffffffffffffffffffffff1673ffffffffffffffffffffffffffffffffffffffff168152602001908152602001600020600080820160006101000a81549060ff02191690556000820160016101000a81549060ff021916905560018201600061233991906142ea565b60028201600061234991906142ea565b60038201600061235991906142ea565b6004820160006101000a81549073ffffffffffffffffffffffffffffffffffffffff0219169055505061238b81613e7c565b50565b612396614354565b600260008373ffffffffffffffffffffffffffffffffffffffff1673ffffffffffffffffffffffffffffffffffffffff1681526020019081526020016000206040518060400160405290816000820160009054906101000a900460ff1615151515815260200160018201805461240b906150c8565b80601f0160208091040260200160405190810160405280929190818152602001828054612437906150c8565b80156124845780601f1061245957610100808354040283529160200191612484565b820191906000526020600020905b81548152906001019060200180831161246757829003601f168201915b5050505050815250509050919050565b6000801b81565b6060600880548060200260200160405190810160405280929190818152602001828054801561251f57602002820191906000526020600020905b8160009054906101000a900473ffffffffffffffffffffffffffffffffffffffff1673ffffffffffffffffffffffffffffffffffffffff16815260200190600101908083116124d5575b5050505050905090565b60046020528060005260406000206000915090508060000160009054906101000a900460ff169080600101805461255f906150c8565b80601f016020809104026020016040519081016040528092919081815260200182805461258b906150c8565b80156125d85780601f106125ad576101008083540402835291602001916125d8565b820191906000526020600020905b8154815290600101906020018083116125bb57829003601f168201915b5050505050908060020180546125ed906150c8565b80601f0160208091040260200160405190810160405280929190818152602001828054612619906150c8565b80156126665780601f1061263b57610100808354040283529160200191612666565b820191906000526020600020905b81548152906001019060200180831161264957829003601f168201915b50505050509080600301805461267b906150c8565b80601f01602080910402602001604051908101604052809291908181526020018280546126a7906150c8565b80156126f45780601f106126c9576101008083540402835291602001916126f4565b820191906000526020600020905b8154815290600101906020018083116126d757829003601f168201915b5050505050905084565b60036020528060005260406000206000915090508060000160009054906101000a900460ff16908060000160019054906101000a900460ff1690806001018054612747906150c8565b80601f0160208091040260200160405190810160405280929190818152602001828054612773906150c8565b80156127c05780601f10612795576101008083540402835291602001916127c0565b820191906000526020600020905b8154815290600101906020018083116127a357829003601f168201915b5050505050908060020180546127d5906150c8565b80601f0160208091040260200160405190810160405280929190818152602001828054612801906150c8565b801561284e5780601f106128235761010080835404028352916020019161284e565b820191906000526020600020905b81548152906001019060200180831161283157829003601f168201915b505050505090806003018054612863906150c8565b80601f016020809104026020016040519081016040528092919081815260200182805461288f906150c8565b80156128dc5780601f106128b1576101008083540402835291602001916128dc565b820191906000526020600020905b8154815290600101906020018083116128bf57829003601f168201915b5050505050908060040160009054906101000a900473ffffffffffffffffffffffffffffffffffffffff16905086565b6129367f14823911f2da1b49f045a0929a60b8c1f2a7fc8c06c7284ca3e8ab4e193a08c833611885565b612975576040517f08c379a000000000000000000000000000000000000000000000000000000000815260040161296c90615a56565b60405180910390fd5b600460003373ffffffffffffffffffffffffffffffffffffffff1673ffffffffffffffffffffffffffffffffffffffff16815260200190815260200160002060000160009054906101000a900460ff16612a04576040517f08c379a00000000000000000000000000000000000000000000000000000000081526004016129fb906159ea565b60405180910390fd5b600360008373ffffffffffffffffffffffffffffffffffffffff1673ffffffffffffffffffffffffffffffffffffffff16815260200190815260200160002060000160009054906101000a900460ff16612a93576040517f08c379a0000000000000000000000000000000000000000000000000000000008152600401612a8a9061583a565b60405180910390fd5b6000600160089054906101000a900467ffffffffffffffff1690506001600881819054906101000a900467ffffffffffffffff1680929190612ad490615654565b91906101000a81548167ffffffffffffffff021916908367ffffffffffffffff160217905550506040518061010001604052808267ffffffffffffffff1681526020013373ffffffffffffffffffffffffffffffffffffffff1681526020018473ffffffffffffffffffffffffffffffffffffffff168152602001600360008673ffffffffffffffffffffffffffffffffffffffff1673ffffffffffffffffffffffffffffffffffffffff16815260200190815260200160002060040160009054906101000a900473ffffffffffffffffffffffffffffffffffffffff1673ffffffffffffffffffffffffffffffffffffffff16815260200183815260200160001515815260200160011515815260200143815250600660008367ffffffffffffffff1667ffffffffffffffff16815260200190815260200160002060008201518160000160006101000a81548167ffffffffffffffff021916908367ffffffffffffffff16021790555060208201518160000160086101000a81548173ffffffffffffffffffffffffffffffffffffffff021916908373ffffffffffffffffffffffffffffffffffffffff16021790555060408201518160010160006101000a81548173ffffffffffffffffffffffffffffffffffffffff021916908373ffffffffffffffffffffffffffffffffffffffff16021790555060608201518160020160006101000a81548173ffffffffffffffffffffffffffffffffffffffff021916908373ffffffffffffffffffffffffffffffffffffffff1602179055506080820151816003019081612d29919061537d565b5060a08201518160040160006101000a81548160ff02191690831515021790555060c08201518160040160016101000a81548160ff02191690831515021790555060e082015181600501559050507f698ee5445279e9e6dc4aefc59c1c830a1215a567455013ed3a2703de7fe83e6c81604051612da69190614b46565b60405180910390a1505050565b612dbc82610b06565b612dc5816137c4565b612dcf83836138d1565b50505050565b612dff7fa49807205ce4d355092ef5a8a18f56e8913cf4a201fbe287825b095693c2177533611885565b612e3e576040517f08c379a0000000000000000000000000000000000000000000000000000000008152600401612e3590615ac2565b60405180910390fd5b600260008273ffffffffffffffffffffffffffffffffffffffff1673ffffffffffffffffffffffffffffffffffffffff16815260200190815260200160002060000160009054906101000a900460ff16612ecd576040517f08c379a0000000000000000000000000000000000000000000000000000000008152600401612ec490615912565b60405180910390fd5b612ed681614007565b600260008273ffffffffffffffffffffffffffffffffffffffff1673ffffffffffffffffffffffffffffffffffffffff168152602001908152602001600020600080820160006101000a81549060ff0219169055600182016000612f3a91906142ea565b505050565b7fc8f5b4140cca307cd927e59cbeea8291bffeee228fc677f0fa059aef7b4dd8d581565b60056020528060005260406000206000915090508060000160009054906101000a900467ffffffffffffffff1690806001016040518060c00160405290816000820160009054906101000a900460ff161515151581526020016000820160019054906101000a900460ff16151515158152602001600182018054612fe6906150c8565b80601f0160208091040260200160405190810160405280929190818152602001828054613012906150c8565b801561305f5780601f106130345761010080835404028352916020019161305f565b820191906000526020600020905b81548152906001019060200180831161304257829003601f168201915b50505050508152602001600282018054613078906150c8565b80601f01602080910402602001604051908101604052809291908181526020018280546130a4906150c8565b80156130f15780601f106130c6576101008083540402835291602001916130f1565b820191906000526020600020905b8154815290600101906020018083116130d457829003601f168201915b5050505050815260200160038201805461310a906150c8565b80601f0160208091040260200160405190810160405280929190818152602001828054613136906150c8565b80156131835780601f1061315857610100808354040283529160200191613183565b820191906000526020600020905b81548152906001019060200180831161316657829003601f168201915b505050505081526020016004820160009054906101000a900473ffffffffffffffffffffffffffffffffffffffff1673ffffffffffffffffffffffffffffffffffffffff1673ffffffffffffffffffffffffffffffffffffffff168152505090806006016040518060800160405290816000820160009054906101000a900460ff1615151515815260200160018201805461321d906150c8565b80601f0160208091040260200160405190810160405280929190818152602001828054613249906150c8565b80156132965780601f1061326b57610100808354040283529160200191613296565b820191906000526020600020905b81548152906001019060200180831161327957829003601f168201915b505050505081526020016002820180546132af906150c8565b80601f01602080910402602001604051908101604052809291908181526020018280546132db906150c8565b80156133285780601f106132fd57610100808354040283529160200191613328565b820191906000526020600020905b81548152906001019060200180831161330b57829003601f168201915b50505050508152602001600382018054613341906150c8565b80601f016020809104026020016040519081016040528092919081815260200182805461336d906150c8565b80156133ba5780601f1061338f576101008083540402835291602001916133ba565b820191906000526020600020905b81548152906001019060200180831161339d57829003601f168201915b5050505050815250509080600a016040518060400160405290816000820160009054906101000a900460ff161515151581526020016001820180546133fe906150c8565b80601f016020809104026020016040519081016040528092919081815260200182805461342a906150c8565b80156134775780601f1061344c57610100808354040283529160200191613477565b820191906000526020600020905b81548152906001019060200180831161345a57829003601f168201915b5050505050815250509080600c018054613490906150c8565b80601f01602080910402602001604051908101604052809291908181526020018280546134bc906150c8565b80156135095780601f106134de57610100808354040283529160200191613509565b820191906000526020600020905b8154815290600101906020018083116134ec57829003601f168201915b5050505050905085565b600460008573ffffffffffffffffffffffffffffffffffffffff1673ffffffffffffffffffffffffffffffffffffffff16815260200190815260200160002060000160009054906101000a900460ff16156135a3576040517f08c379a000000000000000000000000000000000000000000000000000000000815260040161359a90615b2e565b60405180910390fd5b604051806080016040528060011515815260200184815260200183815260200182815250600460008673ffffffffffffffffffffffffffffffffffffffff1673ffffffffffffffffffffffffffffffffffffffff16815260200190815260200160002060008201518160000160006101000a81548160ff021916908315150217905550602082015181600101908161363b919061537d565b506040820151816002019081613651919061537d565b506060820151816003019081613667919061537d565b509050506008849080600181540180825580915050600190039060005260206000200160009091909190916101000a81548173ffffffffffffffffffffffffffffffffffffffff021916908373ffffffffffffffffffffffffffffffffffffffff1602179055507fc8702bbcbb48287a2a0d974f0c88e43b6e90727257c37b4f3795f955c47f3d5d846040516136fd9190614998565b60405180910390a161372f7f14823911f2da1b49f045a0929a60b8c1f2a7fc8c06c7284ca3e8ab4e193a08c8856137d8565b5050505050565b7f0af1dac7dea2fd7f7738119cec7df099dfad49aa9d2e7d17ba6b60f63ae7411f81565b60007f01ffc9a7000000000000000000000000000000000000000000000000000000007bffffffffffffffffffffffffffffffffffffffffffffffffffffffff1916827bffffffffffffffffffffffffffffffffffffffffffffffffffffffff1916149050919050565b6137d5816137d06138c9565b614249565b50565b60006137e48383611885565b6138be57600160008085815260200190815260200160002060000160008473ffffffffffffffffffffffffffffffffffffffff1673ffffffffffffffffffffffffffffffffffffffff16815260200190815260200160002060006101000a81548160ff02191690831515021790555061385b6138c9565b73ffffffffffffffffffffffffffffffffffffffff168273ffffffffffffffffffffffffffffffffffffffff16847f2f8788117e7eff1d82e926ec794901d17c78024a50270940304540a733656f0d60405160405180910390a4600190506138c3565b600090505b92915050565b600033905090565b60006138dd8383611885565b156139b857600080600085815260200190815260200160002060000160008473ffffffffffffffffffffffffffffffffffffffff1673ffffffffffffffffffffffffffffffffffffffff16815260200190815260200160002060006101000a81548160ff0219169083151502179055506139556138c9565b73ffffffffffffffffffffffffffffffffffffffff168273ffffffffffffffffffffffffffffffffffffffff16847ff6391f5c32d9c69d2a47ea670b442974b53935d1edc7fd64eb21e047a839171b60405160405180910390a4600190506139bd565b600090505b92915050565b600080600090505b600160089054906101000a900467ffffffffffffffff1667ffffffffffffffff168167ffffffffffffffff161015613c53578573ffffffffffffffffffffffffffffffffffffffff16600660008367ffffffffffffffff1667ffffffffffffffff16815260200190815260200160002060000160089054906101000a900473ffffffffffffffffffffffffffffffffffffffff1673ffffffffffffffffffffffffffffffffffffffff16148015613af757508473ffffffffffffffffffffffffffffffffffffffff16600660008367ffffffffffffffff1667ffffffffffffffff16815260200190815260200160002060010160009054906101000a900473ffffffffffffffffffffffffffffffffffffffff1673ffffffffffffffffffffffffffffffffffffffff16145b8015613b7857508373ffffffffffffffffffffffffffffffffffffffff16600660008367ffffffffffffffff1667ffffffffffffffff16815260200190815260200160002060020160009054906101000a900473ffffffffffffffffffffffffffffffffffffffff1673ffffffffffffffffffffffffffffffffffffffff16145b8015613bf8575082604051602001613b909190615b8a565b60405160208183030381529060405280519060200120600660008367ffffffffffffffff1667ffffffffffffffff168152602001908152602001600020600301604051602001613be09190615c24565b60405160208183030381529060405280519060200120145b8015613c385750600660008267ffffffffffffffff1667ffffffffffffffff16815260200190815260200160002060040160009054906101000a900460ff165b15613c465780915050613c8f565b80806001019150506139cb565b506040517f08c379a0000000000000000000000000000000000000000000000000000000008152600401613c8690615c87565b60405180910390fd5b949350505050565b60005b6008805490508167ffffffffffffffff161015613e78578173ffffffffffffffffffffffffffffffffffffffff1660088267ffffffffffffffff1681548110613ce657613ce5615ca7565b5b9060005260206000200160009054906101000a900473ffffffffffffffffffffffffffffffffffffffff1673ffffffffffffffffffffffffffffffffffffffff1603613e655760086001600880549050613d409190615cd6565b81548110613d5157613d50615ca7565b5b9060005260206000200160009054906101000a900473ffffffffffffffffffffffffffffffffffffffff1660088267ffffffffffffffff1681548110613d9a57613d99615ca7565b5b9060005260206000200160006101000a81548173ffffffffffffffffffffffffffffffffffffffff021916908373ffffffffffffffffffffffffffffffffffffffff1602179055506008805480613df457613df3615d0a565b5b6001900381819060005260206000200160006101000a81549073ffffffffffffffffffffffffffffffffffffffff021916905590557f0ba57158da2085997394901bf3a39951041537c10f8461f90ed82e17e7f50e8b82604051613e589190614998565b60405180910390a1613e78565b8080613e7090615654565b915050613c9a565b5050565b6000600780549050905060005b81811015614002578273ffffffffffffffffffffffffffffffffffffffff1660078281548110613ebc57613ebb615ca7565b5b9060005260206000200160009054906101000a900473ffffffffffffffffffffffffffffffffffffffff1673ffffffffffffffffffffffffffffffffffffffff1603613ff5576007600183613f119190615cd6565b81548110613f2257613f21615ca7565b5b9060005260206000200160009054906101000a900473ffffffffffffffffffffffffffffffffffffffff1660078281548110613f6157613f60615ca7565b5b9060005260206000200160006101000a81548173ffffffffffffffffffffffffffffffffffffffff021916908373ffffffffffffffffffffffffffffffffffffffff1602179055506007805480613fbb57613fba615d0a565b5b6001900381819060005260206000200160006101000a81549073ffffffffffffffffffffffffffffffffffffffff02191690559055614002565b8080600101915050613e89565b505050565b6000600780549050905060005b818110156142445760006007828154811061403257614031615ca7565b5b9060005260206000200160009054906101000a900473ffffffffffffffffffffffffffffffffffffffff1690508373ffffffffffffffffffffffffffffffffffffffff16600360008373ffffffffffffffffffffffffffffffffffffffff1673ffffffffffffffffffffffffffffffffffffffff16815260200190815260200160002060040160009054906101000a900473ffffffffffffffffffffffffffffffffffffffff1673ffffffffffffffffffffffffffffffffffffffff160361422f576140fd81612065565b7f493d7cf6a7c880406a55654d6727464ea088bd01d40498e1987a327e68961ab88160405161412c9190614998565b60405180910390a160018311156141e557600760018461414c9190615cd6565b8154811061415d5761415c615ca7565b5b9060005260206000200160009054906101000a900473ffffffffffffffffffffffffffffffffffffffff166007838154811061419c5761419b615ca7565b5b9060005260206000200160006101000a81548173ffffffffffffffffffffffffffffffffffffffff021916908373ffffffffffffffffffffffffffffffffffffffff1602179055505b82806141f090615d39565b9350507fc6012ff124b01924d7b4979454f1d5ecf08c098a27498bc901a0bcf370cf1de0816040516142229190614998565b60405180910390a161423e565b818061423a90615d62565b9250505b50614014565b505050565b6142538282611885565b6142965780826040517fe2517d3f00000000000000000000000000000000000000000000000000000000815260040161428d929190615daa565b60405180910390fd5b5050565b6040518060c00160405280600015158152602001600015158152602001606081526020016060815260200160608152602001600073ffffffffffffffffffffffffffffffffffffffff1681525090565b5080546142f6906150c8565b6000825580601f106143085750614327565b601f0160209004906000526020600020908101906143269190614370565b5b50565b60405180608001604052806000151581526020016060815260200160608152602001606081525090565b6040518060400160405280600015158152602001606081525090565b5b80821115614389576000816000905550600101614371565b5090565b6000604051905090565b600080fd5b600080fd5b60007fffffffff0000000000000000000000000000000000000000000000000000000082169050919050565b6143d6816143a1565b81146143e157600080fd5b50565b6000813590506143f3816143cd565b92915050565b60006020828403121561440f5761440e614397565b5b600061441d848285016143e4565b91505092915050565b60008115159050919050565b61443b81614426565b82525050565b60006020820190506144566000830184614432565b92915050565b600073ffffffffffffffffffffffffffffffffffffffff82169050919050565b60006144878261445c565b9050919050565b6144978161447c565b81146144a257600080fd5b50565b6000813590506144b48161448e565b92915050565b6000602082840312156144d0576144cf614397565b5b60006144de848285016144a5565b91505092915050565b6144f081614426565b82525050565b600081519050919050565b600082825260208201905092915050565b60005b83811015614530578082015181840152602081019050614515565b60008484015250505050565b6000601f19601f8301169050919050565b6000614558826144f6565b6145628185614501565b9350614572818560208601614512565b61457b8161453c565b840191505092915050565b61458f8161447c565b82525050565b600060c0830160008301516145ad60008601826144e7565b5060208301516145c060208601826144e7565b50604083015184820360408601526145d8828261454d565b915050606083015184820360608601526145f2828261454d565b9150506080830151848203608086015261460c828261454d565b91505060a083015161462160a0860182614586565b508091505092915050565b600060208201905081810360008301526146468184614595565b905092915050565b6000819050919050565b6146618161464e565b82525050565b600060208201905061467c6000830184614658565b92915050565b600082825260208201905092915050565b600061469e826144f6565b6146a88185614682565b93506146b8818560208601614512565b6146c18161453c565b840191505092915050565b60006040820190506146e16000830185614432565b81810360208301526146f38184614693565b90509392505050565b6147058161464e565b811461471057600080fd5b50565b600081359050614722816146fc565b92915050565b60006020828403121561473e5761473d614397565b5b600061474c84828501614713565b91505092915050565b6000806040838503121561476c5761476b614397565b5b600061477a85828601614713565b925050602061478b858286016144a5565b9150509250929050565b600080fd5b600080fd5b7f4e487b7100000000000000000000000000000000000000000000000000000000600052604160045260246000fd5b6147d78261453c565b810181811067ffffffffffffffff821117156147f6576147f561479f565b5b80604052505050565b600061480961438d565b905061481582826147ce565b919050565b600067ffffffffffffffff8211156148355761483461479f565b5b61483e8261453c565b9050602081019050919050565b82818337600083830152505050565b600061486d6148688461481a565b6147ff565b9050828152602081018484840111156148895761488861479a565b5b61489484828561484b565b509392505050565b600082601f8301126148b1576148b0614795565b5b81356148c184826020860161485a565b91505092915050565b600080604083850312156148e1576148e0614397565b5b60006148ef858286016144a5565b925050602083013567ffffffffffffffff8111156149105761490f61439c565b5b61491c8582860161489c565b9150509250929050565b6000819050919050565b61493981614926565b811461494457600080fd5b50565b60008135905061495681614930565b92915050565b60006020828403121561497257614971614397565b5b600061498084828501614947565b91505092915050565b6149928161447c565b82525050565b60006020820190506149ad6000830184614989565b92915050565b600067ffffffffffffffff82169050919050565b6149d0816149b3565b81146149db57600080fd5b50565b6000813590506149ed816149c7565b92915050565b600060208284031215614a0957614a08614397565b5b6000614a17848285016149de565b91505092915050565b614a29816149b3565b82525050565b614a3881614926565b82525050565b600061010082019050614a54600083018b614a20565b614a61602083018a614989565b614a6e6040830189614989565b614a7b6060830188614989565b8181036080830152614a8d8187614693565b9050614a9c60a0830186614432565b614aa960c0830185614432565b614ab660e0830184614a2f565b9998505050505050505050565b60008060008060808587031215614add57614adc614397565b5b6000614aeb878288016144a5565b9450506020614afc878288016144a5565b9350506040614b0d878288016144a5565b925050606085013567ffffffffffffffff811115614b2e57614b2d61439c565b5b614b3a8782880161489c565b91505092959194509250565b6000602082019050614b5b6000830184614a20565b92915050565b614b6a81614426565b8114614b7557600080fd5b50565b600081359050614b8781614b61565b92915050565b60008060408385031215614ba457614ba3614397565b5b6000614bb2858286016149de565b9250506020614bc385828601614b78565b9150509250929050565b600081519050919050565b600082825260208201905092915050565b6000819050602082019050919050565b6000614c058383614586565b60208301905092915050565b6000602082019050919050565b6000614c2982614bcd565b614c338185614bd8565b9350614c3e83614be9565b8060005b83811015614c6f578151614c568882614bf9565b9750614c6183614c11565b925050600181019050614c42565b5085935050505092915050565b60006020820190508181036000830152614c968184614c1e565b905092915050565b60008060408385031215614cb557614cb4614397565b5b6000614cc3858286016144a5565b9250506020614cd485828601614b78565b9150509250929050565b600080600080600060a08688031215614cfa57614cf9614397565b5b6000614d08888289016144a5565b9550506020614d19888289016144a5565b945050604086013567ffffffffffffffff811115614d3a57614d3961439c565b5b614d468882890161489c565b935050606086013567ffffffffffffffff811115614d6757614d6661439c565b5b614d738882890161489c565b925050608086013567ffffffffffffffff811115614d9457614d9361439c565b5b614da08882890161489c565b9150509295509295909350565b6000608083016000830151614dc560008601826144e7565b5060208301518482036020860152614ddd828261454d565b91505060408301518482036040860152614df7828261454d565b91505060608301518482036060860152614e11828261454d565b9150508091505092915050565b60006020820190508181036000830152614e388184614dad565b905092915050565b6000604083016000830151614e5860008601826144e7565b5060208301518482036020860152614e70828261454d565b9150508091505092915050565b60006020820190508181036000830152614e978184614e40565b905092915050565b6000608082019050614eb46000830187614432565b8181036020830152614ec68186614693565b90508181036040830152614eda8185614693565b90508181036060830152614eee8184614693565b905095945050505050565b600060c082019050614f0e6000830189614432565b614f1b6020830188614432565b8181036040830152614f2d8187614693565b90508181036060830152614f418186614693565b90508181036080830152614f558185614693565b9050614f6460a0830184614989565b979650505050505050565b600060a082019050614f846000830188614a20565b8181036020830152614f968187614595565b90508181036040830152614faa8186614dad565b90508181036060830152614fbe8185614e40565b90508181036080830152614fd28184614693565b90509695505050505050565b60008060008060808587031215614ff857614ff7614397565b5b6000615006878288016144a5565b945050602085013567ffffffffffffffff8111156150275761502661439c565b5b6150338782880161489c565b935050604085013567ffffffffffffffff8111156150545761505361439c565b5b6150608782880161489c565b925050606085013567ffffffffffffffff8111156150815761508061439c565b5b61508d8782880161489c565b91505092959194509250565b7f4e487b7100000000000000000000000000000000000000000000000000000000600052602260045260246000fd5b600060028204905060018216806150e057607f821691505b6020821081036150f3576150f2615099565b5b50919050565b7f43616c6c6572206973206e6f74206120686f73706974616c0000000000000000600082015250565b600061512f601883614682565b915061513a826150f9565b602082019050919050565b6000602082019050818103600083015261515e81615122565b9050919050565b7f456e7469747920616c7265616479207265676973746572656400000000000000600082015250565b600061519b601983614682565b91506151a682615165565b602082019050919050565b600060208201905081810360008301526151ca8161518e565b9050919050565b60008190508160005260206000209050919050565b60006020601f8301049050919050565b600082821b905092915050565b6000600883026152337fffffffffffffffffffffffffffffffffffffffffffffffffffffffffffffffff826151f6565b61523d86836151f6565b95508019841693508086168417925050509392505050565b6000819050919050565b600061527a61527561527084614926565b615255565b614926565b9050919050565b6000819050919050565b6152948361525f565b6152a86152a082615281565b848454615203565b825550505050565b600090565b6152bd6152b0565b6152c881848461528b565b505050565b5b818110156152ec576152e16000826152b5565b6001810190506152ce565b5050565b601f82111561533157615302816151d1565b61530b846151e6565b8101602085101561531a578190505b61532e615326856151e6565b8301826152cd565b50505b505050565b600082821c905092915050565b600061535460001984600802615336565b1980831691505092915050565b600061536d8383615343565b9150826002028217905092915050565b615386826144f6565b67ffffffffffffffff81111561539f5761539e61479f565b5b6153a982546150c8565b6153b48282856152f0565b600060209050601f8311600181146153e757600084156153d5578287015190505b6153df8582615361565b865550615447565b601f1984166153f5866151d1565b60005b8281101561541d578489015182556001820191506020850194506020810190506153f8565b8683101561543a5784890151615436601f891682615343565b8355505b6001600288020188555050505b505050505050565b7f43616c6c6572206973206e6f74206120646f63746f7200000000000000000000600082015250565b6000615485601683614682565b91506154908261544f565b602082019050919050565b600060208201905081810360008301526154b481615478565b9050919050565b7f446f63746f72206973206e6f7420616374697665000000000000000000000000600082015250565b60006154f1601483614682565b91506154fc826154bb565b602082019050919050565b60006020820190508181036000830152615520816154e4565b9050919050565b7f446f63746f7220646f6573206e6f742062656c6f6e6720746f2074686973206860008201527f6f73706974616c00000000000000000000000000000000000000000000000000602082015250565b6000615583602783614682565b915061558e82615527565b604082019050919050565b600060208201905081810360008301526155b281615576565b9050919050565b7f5265717565737420686173206e6f74206265656e20617070726f766564000000600082015250565b60006155ef601d83614682565b91506155fa826155b9565b602082019050919050565b6000602082019050818103600083015261561e816155e2565b9050919050565b7f4e487b7100000000000000000000000000000000000000000000000000000000600052601160045260246000fd5b600061565f826149b3565b915067ffffffffffffffff820361567957615678615625565b5b600182019050919050565b7f52657175657374206973206e6f742070656e64696e6700000000000000000000600082015250565b60006156ba601683614682565b91506156c582615684565b602082019050919050565b600060208201905081810360008301526156e9816156ad565b9050919050565b7f4f6e6c79207468652061737369676e656420646f63746f722063616e2072657360008201527f706f6e6400000000000000000000000000000000000000000000000000000000602082015250565b600061574c602483614682565b9150615757826156f0565b604082019050919050565b6000602082019050818103600083015261577b8161573f565b9050919050565b7f4e6f7420617574686f72697a6564000000000000000000000000000000000000600082015250565b60006157b8600e83614682565b91506157c382615782565b602082019050919050565b600060208201905081810360008301526157e7816157ab565b9050919050565b7f446f63746f72206e6f7420726567697374657265640000000000000000000000600082015250565b6000615824601583614682565b915061582f826157ee565b602082019050919050565b6000602082019050818103600083015261585381615817565b9050919050565b7f446f63746f7220616c7265616479207265676973746572656400000000000000600082015250565b6000615890601983614682565b915061589b8261585a565b602082019050919050565b600060208201905081810360008301526158bf81615883565b9050919050565b7f456e74697479206e6f7420726567697374657265640000000000000000000000600082015250565b60006158fc601583614682565b9150615907826158c6565b602082019050919050565b6000602082019050818103600083015261592b816158ef565b9050919050565b7f4f6e6c792061646d696e2063616e2072656d6f76652061207573657200000000600082015250565b6000615968601c83614682565b915061597382615932565b602082019050919050565b600060208201905081810360008301526159978161595b565b9050919050565b7f55736572206e6f74207265676973746572656400000000000000000000000000600082015250565b60006159d4601383614682565b91506159df8261599e565b602082019050919050565b60006020820190508181036000830152615a03816159c7565b9050919050565b7f43616c6c6572206973206e6f7420612075736572000000000000000000000000600082015250565b6000615a40601483614682565b9150615a4b82615a0a565b602082019050919050565b60006020820190508181036000830152615a6f81615a33565b9050919050565b7f4f6e6c792061646d696e2063616e2072656d6f766520616e20656e7469747900600082015250565b6000615aac601f83614682565b9150615ab782615a76565b602082019050919050565b60006020820190508181036000830152615adb81615a9f565b9050919050565b7f5573657220616c72656164792072656769737465726564000000000000000000600082015250565b6000615b18601783614682565b9150615b2382615ae2565b602082019050919050565b60006020820190508181036000830152615b4781615b0b565b9050919050565b600081905092915050565b6000615b64826144f6565b615b6e8185615b4e565b9350615b7e818560208601614512565b80840191505092915050565b6000615b968284615b59565b915081905092915050565b60008154615bae816150c8565b615bb88186615b4e565b94506001821660008114615bd35760018114615be857615c1b565b60ff1983168652811515820286019350615c1b565b615bf1856151d1565b60005b83811015615c1357815481890152600182019150602081019050615bf4565b838801955050505b50505092915050565b6000615c308284615ba1565b915081905092915050565b7f4e6f206d61746368696e67207265717565737420666f756e6400000000000000600082015250565b6000615c71601983614682565b9150615c7c82615c3b565b602082019050919050565b60006020820190508181036000830152615ca081615c64565b9050919050565b7f4e487b7100000000000000000000000000000000000000000000000000000000600052603260045260246000fd5b6000615ce182614926565b9150615cec83614926565b9250828203905081811115615d0457615d03615625565b5b92915050565b7f4e487b7100000000000000000000000000000000000000000000000000000000600052603160045260246000fd5b6000615d4482614926565b915060008203615d5757615d56615625565b5b600182039050919050565b6000615d6d82614926565b91507fffffffffffffffffffffffffffffffffffffffffffffffffffffffffffffffff8203615d9f57615d9e615625565b5b600182019050919050565b6000604082019050615dbf6000830185614989565b615dcc6020830184614658565b939250505056fea2646970667358221220c0788e5d945292f3eb3311cc67dadf1306100c15c8e66bef01aecd402711bb7f64736f6c63430008180033",
  "linkReferences": {},
  "deployedLinkReferences": {}
}