{"contracts/App.sol":{"App":{"abi":[{"inputs":[],"stateMutability":"nonpayable","type":"constructor"},{"inputs":[],"name":"AccessControlBadConfirmation","type":"error"},{"inputs":[{"internalType":"address","name":"account","type":"address"},{"internalType":"bytes32","name":"neededRole","type":"bytes32"}],"name":"AccessControlUnauthorizedAccount","type":"error"},{"anonymous":false,"inputs":[{"indexed":false,"internalType":"uint64","name":"certificateId","type":"uint64"}],"name":"CertificateGenerated","type":"event"},{"anonymous":false,"inputs":[{"indexed":false,"internalType":"uint64","name":"requestId","type":"uint64"}],"name":"CertificateRequested","type":"event"},{"anonymous":false,"inputs":[{"indexed":false,"internalType":"address","name":"doctorAddr","type":"address"}],"name":"DoctorAddressAdded","type":"event"},{"anonymous":false,"inputs":[{"indexed":false,"internalType":"address","name":"doctorAddr","type":"address"}],"name":"DoctorAddressRemoved","type":"event"},{"anonymous":false,"inputs":[{"indexed":false,"internalType":"address","name":"doctorAddr","type":"address"}],"name":"DoctorRemoved","type":"event"},{"anonymous":false,"inputs":[{"indexed":true,"internalType":"address","name":"doctorAddr","type":"address"},{"indexed":false,"internalType":"bool","name":"isActive","type":"bool"}],"name":"DoctorStatusChanged","type":"event"},{"anonymous":false,"inputs":[{"indexed":true,"internalType":"bytes32","name":"role","type":"bytes32"},{"indexed":true,"internalType":"bytes32","name":"previousAdminRole","type":"bytes32"},{"indexed":true,"internalType":"bytes32","name":"newAdminRole","type":"bytes32"}],"name":"RoleAdminChanged","type":"event"},{"anonymous":false,"inputs":[{"indexed":true,"internalType":"bytes32","name":"role","type":"bytes32"},{"indexed":true,"internalType":"address","name":"account","type":"address"},{"indexed":true,"internalType":"address","name":"sender","type":"address"}],"name":"RoleGranted","type":"event"},{"anonymous":false,"inputs":[{"indexed":true,"internalType":"bytes32","name":"role","type":"bytes32"},{"indexed":true,"internalType":"address","name":"account","type":"address"},{"indexed":true,"internalType":"address","name":"sender","type":"address"}],"name":"RoleRevoked","type":"event"},{"anonymous":false,"inputs":[{"indexed":false,"internalType":"address","name":"userAddr","type":"address"}],"name":"UserAddressAdded","type":"event"},{"anonymous":false,"inputs":[{"indexed":false,"internalType":"address","name":"userAddr","type":"address"}],"name":"UserAddressRemoved","type":"event"},{"inputs":[],"name":"ADMIN_ROLE","outputs":[{"internalType":"bytes32","name":"","type":"bytes32"}],"stateMutability":"view","type":"function"},{"inputs":[],"name":"DEFAULT_ADMIN_ROLE","outputs":[{"internalType":"bytes32","name":"","type":"bytes32"}],"stateMutability":"view","type":"function"},{"inputs":[],"name":"DOCTOR_ROLE","outputs":[{"internalType":"bytes32","name":"","type":"bytes32"}],"stateMutability":"view","type":"function"},{"inputs":[],"name":"HOSPITAL_ROLE","outputs":[{"internalType":"bytes32","name":"","type":"bytes32"}],"stateMutability":"view","type":"function"},{"inputs":[],"name":"USER_ROLE","outputs":[{"internalType":"bytes32","name":"","type":"bytes32"}],"stateMutability":"view","type":"function"},{"inputs":[],"name":"certificateCounter","outputs":[{"internalType":"uint64","name":"","type":"uint64"}],"stateMutability":"view","type":"function"},{"inputs":[{"internalType":"uint64","name":"","type":"uint64"}],"name":"certificates","outputs":[{"internalType":"uint64","name":"id","type":"uint64"},{"components":[{"internalType":"bool","name":"isRegistered","type":"bool"},{"internalType":"bool","name":"isActive","type":"bool"},{"internalType":"string","name":"uf","type":"string"},{"internalType":"string","name":"crm","type":"string"},{"internalType":"string","name":"especialidade","type":"string"},{"internalType":"address","name":"hospital","type":"address"}],"internalType":"struct App.Doctor","name":"doctor","type":"tuple"},{"components":[{"internalType":"bool","name":"isRegistered","type":"bool"},{"internalType":"string","name":"name","type":"string"},{"internalType":"string","name":"cpf","type":"string"},{"internalType":"string","name":"email","type":"string"}],"internalType":"struct App.User","name":"user","type":"tuple"},{"components":[{"internalType":"bool","name":"isRegistered","type":"bool"},{"internalType":"string","name":"name","type":"string"}],"internalType":"struct App.Entity","name":"hospital","type":"tuple"},{"internalType":"string","name":"description","type":"string"}],"stateMutability":"view","type":"function"},{"inputs":[{"internalType":"uint256","name":"","type":"uint256"}],"name":"doctorAddresses","outputs":[{"internalType":"address","name":"","type":"address"}],"stateMutability":"view","type":"function"},{"inputs":[{"internalType":"address","name":"","type":"address"}],"name":"doctors","outputs":[{"internalType":"bool","name":"isRegistered","type":"bool"},{"internalType":"bool","name":"isActive","type":"bool"},{"internalType":"string","name":"uf","type":"string"},{"internalType":"string","name":"crm","type":"string"},{"internalType":"string","name":"especialidade","type":"string"},{"internalType":"address","name":"hospital","type":"address"}],"stateMutability":"view","type":"function"},{"inputs":[{"internalType":"address","name":"","type":"address"}],"name":"entities","outputs":[{"internalType":"bool","name":"isRegistered","type":"bool"},{"internalType":"string","name":"name","type":"string"}],"stateMutability":"view","type":"function"},{"inputs":[{"internalType":"address","name":"docAddr","type":"address"},{"internalType":"address","name":"patientAddr","type":"address"},{"internalType":"address","name":"hospitalAddr","type":"address"},{"internalType":"string","name":"description","type":"string"}],"name":"generateCertificate","outputs":[],"stateMutability":"nonpayable","type":"function"},{"inputs":[],"name":"getDoctorAddresses","outputs":[{"internalType":"address[]","name":"","type":"address[]"}],"stateMutability":"view","type":"function"},{"inputs":[{"internalType":"address","name":"doctorAddr","type":"address"}],"name":"getDoctorInformation","outputs":[{"components":[{"internalType":"bool","name":"isRegistered","type":"bool"},{"internalType":"bool","name":"isActive","type":"bool"},{"internalType":"string","name":"uf","type":"string"},{"internalType":"string","name":"crm","type":"string"},{"internalType":"string","name":"especialidade","type":"string"},{"internalType":"address","name":"hospital","type":"address"}],"internalType":"struct App.Doctor","name":"","type":"tuple"}],"stateMutability":"view","type":"function"},{"inputs":[{"internalType":"address","name":"addr","type":"address"}],"name":"getEntityInformation","outputs":[{"components":[{"internalType":"bool","name":"isRegistered","type":"bool"},{"internalType":"string","name":"name","type":"string"}],"internalType":"struct App.Entity","name":"","type":"tuple"}],"stateMutability":"view","type":"function"},{"inputs":[{"internalType":"bytes32","name":"role","type":"bytes32"}],"name":"getRoleAdmin","outputs":[{"internalType":"bytes32","name":"","type":"bytes32"}],"stateMutability":"view","type":"function"},{"inputs":[],"name":"getUserAddresses","outputs":[{"internalType":"address[]","name":"","type":"address[]"}],"stateMutability":"view","type":"function"},{"inputs":[{"internalType":"address","name":"userAddr","type":"address"}],"name":"getUserInformation","outputs":[{"components":[{"internalType":"bool","name":"isRegistered","type":"bool"},{"internalType":"string","name":"name","type":"string"},{"internalType":"string","name":"cpf","type":"string"},{"internalType":"string","name":"email","type":"string"}],"internalType":"struct App.User","name":"","type":"tuple"}],"stateMutability":"view","type":"function"},{"inputs":[{"internalType":"bytes32","name":"role","type":"bytes32"},{"internalType":"address","name":"account","type":"address"}],"name":"grantRole","outputs":[],"stateMutability":"nonpayable","type":"function"},{"inputs":[{"internalType":"bytes32","name":"role","type":"bytes32"},{"internalType":"address","name":"account","type":"address"}],"name":"hasRole","outputs":[{"internalType":"bool","name":"","type":"bool"}],"stateMutability":"view","type":"function"},{"inputs":[{"internalType":"address","name":"doctorAddr","type":"address"},{"internalType":"address","name":"entityAddr","type":"address"},{"internalType":"string","name":"uf","type":"string"},{"internalType":"string","name":"especialidade","type":"string"},{"internalType":"string","name":"crm","type":"string"}],"name":"registerDoctor","outputs":[],"stateMutability":"nonpayable","type":"function"},{"inputs":[{"internalType":"address","name":"addr","type":"address"},{"internalType":"string","name":"name","type":"string"}],"name":"registerEntity","outputs":[],"stateMutability":"nonpayable","type":"function"},{"inputs":[{"internalType":"address","name":"addr","type":"address"},{"internalType":"string","name":"nome","type":"string"},{"internalType":"string","name":"cpf","type":"string"},{"internalType":"string","name":"email","type":"string"}],"name":"registerUser","outputs":[],"stateMutability":"nonpayable","type":"function"},{"inputs":[{"internalType":"address","name":"doctorAddr","type":"address"}],"name":"removeDoctor","outputs":[],"stateMutability":"nonpayable","type":"function"},{"inputs":[{"internalType":"address","name":"entityAddr","type":"address"}],"name":"removeEntity","outputs":[],"stateMutability":"nonpayable","type":"function"},{"inputs":[{"internalType":"address","name":"userAddr","type":"address"}],"name":"removeUser","outputs":[],"stateMutability":"nonpayable","type":"function"},{"inputs":[{"internalType":"bytes32","name":"role","type":"bytes32"},{"internalType":"address","name":"callerConfirmation","type":"address"}],"name":"renounceRole","outputs":[],"stateMutability":"nonpayable","type":"function"},{"inputs":[{"internalType":"address","name":"doctorAddr","type":"address"},{"internalType":"string","name":"description","type":"string"}],"name":"requestCertificate","outputs":[],"stateMutability":"nonpayable","type":"function"},{"inputs":[],"name":"requestCounter","outputs":[{"internalType":"uint64","name":"","type":"uint64"}],"stateMutability":"view","type":"function"},{"inputs":[{"internalType":"uint64","name":"","type":"uint64"}],"name":"requests","outputs":[{"internalType":"uint64","name":"id","type":"uint64"},{"internalType":"address","name":"userAddr","type":"address"},{"internalType":"address","name":"doctorAddr","type":"address"},{"internalType":"address","name":"hospitalAddr","type":"address"},{"internalType":"string","name":"description","type":"string"},{"internalType":"bool","name":"isApproved","type":"bool"},{"internalType":"bool","name":"isPending","type":"bool"},{"internalType":"uint256","name":"blockNumber","type":"uint256"}],"stateMutability":"view","type":"function"},{"inputs":[{"internalType":"uint64","name":"requestId","type":"uint64"},{"internalType":"bool","name":"approve","type":"bool"}],"name":"respondToCertificateRequest","outputs":[],"stateMutability":"nonpayable","type":"function"},{"inputs":[{"internalType":"bytes32","name":"role","type":"bytes32"},{"internalType":"address","name":"account","type":"address"}],"name":"revokeRole","outputs":[],"stateMutability":"nonpayable","type":"function"},{"inputs":[{"internalType":"address","name":"doctorAddr","type":"address"},{"internalType":"bool","name":"isActive","type":"bool"}],"name":"setDoctorActiveStatus","outputs":[],"stateMutability":"nonpayable","type":"function"},{"inputs":[{"internalType":"bytes4","name":"interfaceId","type":"bytes4"}],"name":"supportsInterface","outputs":[{"internalType":"bool","name":"","type":"bool"}],"stateMutability":"view","type":"function"},{"inputs":[{"internalType":"uint256","name":"","type":"uint256"}],"name":"userAddresses","outputs":[{"internalType":"address","name":"","type":"address"}],"stateMutability":"view","type":"function"},{"inputs":[{"internalType":"address","name":"","type":"address"}],"name":"users","outputs":[{"internalType":"bool","name":"isRegistered","type":"bool"},{"internalType":"string","name":"name","type":"string"},{"internalType":"string","name":"cpf","type":"string"},{"internalType":"string","name":"email","type":"string"}],"stateMutability":"view","type":"function"}],"evm":{"bytecode":{"linkReferences":{},"object":"60806040523480156200001157600080fd5b50620000276000801b336200006160201b60201c565b506200005a7fa49807205ce4d355092ef5a8a18f56e8913cf4a201fbe287825b095693c21775336200006160201b60201c565b50620001d6565b60006200007583836200016460201b60201c565b6200015957600160008085815260200190815260200160002060000160008473ffffffffffffffffffffffffffffffffffffffff1673ffffffffffffffffffffffffffffffffffffffff16815260200190815260200160002060006101000a81548160ff021916908315150217905550620000f5620001ce60201b60201c565b73ffffffffffffffffffffffffffffffffffffffff168273ffffffffffffffffffffffffffffffffffffffff16847f2f8788117e7eff1d82e926ec794901d17c78024a50270940304540a733656f0d60405160405180910390a4600190506200015e565b600090505b92915050565b600080600084815260200190815260200160002060000160008373ffffffffffffffffffffffffffffffffffffffff1673ffffffffffffffffffffffffffffffffffffffff16815260200190815260200160002060009054906101000a900460ff16905092915050565b600033905090565b615e0980620001e66000396000f3fe608060405234801561001057600080fd5b50600436106102115760003560e01c806391d1485411610125578063a87430ba116100ad578063dd1829961161007c578063dd1829961461066c578063f6ba667814610688578063fa223b44146106a6578063fe69c296146106da578063fec331f2146106f657610211565b8063a87430ba146105cc578063a9583c22146105ff578063c736cf9314610634578063d547741f1461065057610211565b80639862d5f0116100f45780639862d5f01461051457806398fc90e914610544578063a0714eb014610560578063a217fddf14610590578063a591efde146105ae57610211565b806391d148541461048e578063973a814e146104be578063981b5502146104dc57806398575188146104f857610211565b80633ba51e7c116101a857806367764b261161017757806367764b26146103fc57806375b238fc1461041a57806383195a7a1461043857806384d3d47b1461045457806388b261ac1461047257610211565b80633ba51e7c14610349578063411010ec1461037957806347ed9e1d146103b0578063502c9bd5146103cc57610211565b8063248a9ca3116101e4578063248a9ca3146102c55780632f2ff15d146102f557806332b3f5681461031157806336568abe1461032d57610211565b806301ffc9a71461021657806311fdcb071461024657806313119161146102765780631d8ee48a14610294575b600080fd5b610230600480360381019061022b91906143f9565b610714565b60405161023d9190614441565b60405180910390f35b610260600480360381019061025b91906144ba565b61078e565b60405161026d919061462c565b60405180910390f35b61027e610a29565b60405161028b9190614667565b60405180910390f35b6102ae60048036038101906102a991906144ba565b610a4d565b6040516102bc9291906146cc565b60405180910390f35b6102df60048036038101906102da9190614728565b610b06565b6040516102ec9190614667565b60405180910390f35b61030f600480360381019061030a9190614755565b610b25565b005b61032b600480360381019061032691906148ca565b610b47565b005b61034760048036038101906103429190614755565b610cff565b005b610363600480360381019061035e919061495c565b610d7a565b6040516103709190614998565b60405180910390f35b610393600480360381019061038e91906149f3565b610db9565b6040516103a7989796959493929190614a3e565b60405180910390f35b6103ca60048036038101906103c59190614ac3565b610f17565b005b6103e660048036038101906103e1919061495c565b611459565b6040516103f39190614998565b60405180910390f35b610404611498565b6040516104119190614b46565b60405180910390f35b6104226114b2565b60405161042f9190614667565b60405180910390f35b610452600480360381019061044d9190614b8d565b6114d6565b005b61045c611622565b6040516104699190614c7c565b60405180910390f35b61048c60048036038101906104879190614c9e565b6116b0565b005b6104a860048036038101906104a39190614755565b611885565b6040516104b59190614441565b60405180910390f35b6104c66118ef565b6040516104d39190614b46565b60405180910390f35b6104f660048036038101906104f19190614cde565b611909565b005b610512600480360381019061050d91906144ba565b611cb1565b005b61052e600480360381019061052991906144ba565b611e3b565b60405161053b9190614e1e565b60405180910390f35b61055e600480360381019061055991906144ba565b612065565b005b61057a600480360381019061057591906144ba565b61238e565b6040516105879190614e7d565b60405180910390f35b610598612494565b6040516105a59190614667565b60405180910390f35b6105b661249b565b6040516105c39190614c7c565b60405180910390f35b6105e660048036038101906105e191906144ba565b612529565b6040516105f69493929190614e9f565b60405180910390f35b610619600480360381019061061491906144ba565b6126fe565b60405161062b96959493929190614ef9565b60405180910390f35b61064e600480360381019061064991906148ca565b61290c565b005b61066a60048036038101906106659190614755565b612db3565b005b610686600480360381019061068191906144ba565b612dd5565b005b610690612f3f565b60405161069d9190614667565b60405180910390f35b6106c060048036038101906106bb91906149f3565b612f63565b6040516106d1959493929190614f6f565b60405180910390f35b6106f460048036038101906106ef9190614fde565b613513565b005b6106fe613736565b60405161070b9190614667565b60405180910390f35b60007f7965db0b000000000000000000000000000000000000000000000000000000007bffffffffffffffffffffffffffffffffffffffffffffffffffffffff1916827bffffffffffffffffffffffffffffffffffffffffffffffffffffffff1916148061078757506107868261375a565b5b9050919050565b61079661429a565b600360008373ffffffffffffffffffffffffffffffffffffffff1673ffffffffffffffffffffffffffffffffffffffff1681526020019081526020016000206040518060c00160405290816000820160009054906101000a900460ff161515151581526020016000820160019054906101000a900460ff16151515158152602001600182018054610826906150c8565b80601f0160208091040260200160405190810160405280929190818152602001828054610852906150c8565b801561089f5780601f106108745761010080835404028352916020019161089f565b820191906000526020600020905b81548152906001019060200180831161088257829003601f168201915b505050505081526020016002820180546108b8906150c8565b80601f01602080910402602001604051908101604052809291908181526020018280546108e4906150c8565b80156109315780601f1061090657610100808354040283529160200191610931565b820191906000526020600020905b81548152906001019060200180831161091457829003601f168201915b5050505050815260200160038201805461094a906150c8565b80601f0160208091040260200160405190810160405280929190818152602001828054610976906150c8565b80156109c35780601f10610998576101008083540402835291602001916109c3565b820191906000526020600020905b8154815290600101906020018083116109a657829003601f168201915b505050505081526020016004820160009054906101000a900473ffffffffffffffffffffffffffffffffffffffff1673ffffffffffffffffffffffffffffffffffffffff1673ffffffffffffffffffffffffffffffffffffffff16815250509050919050565b7f14823911f2da1b49f045a0929a60b8c1f2a7fc8c06c7284ca3e8ab4e193a08c881565b60026020528060005260406000206000915090508060000160009054906101000a900460ff1690806001018054610a83906150c8565b80601f0160208091040260200160405190810160405280929190818152602001828054610aaf906150c8565b8015610afc5780601f10610ad157610100808354040283529160200191610afc565b820191906000526020600020905b815481529060010190602001808311610adf57829003601f168201915b5050505050905082565b6000806000838152602001908152602001600020600101549050919050565b610b2e82610b06565b610b37816137c4565b610b4183836137d8565b50505050565b610b717fc8f5b4140cca307cd927e59cbeea8291bffeee228fc677f0fa059aef7b4dd8d533611885565b610bb0576040517f08c379a0000000000000000000000000000000000000000000000000000000008152600401610ba790615145565b60405180910390fd5b600260008373ffffffffffffffffffffffffffffffffffffffff1673ffffffffffffffffffffffffffffffffffffffff16815260200190815260200160002060000160009054906101000a900460ff1615610c40576040517f08c379a0000000000000000000000000000000000000000000000000000000008152600401610c37906151b1565b60405180910390fd5b604051806040016040528060011515815260200182815250600260008473ffffffffffffffffffffffffffffffffffffffff1673ffffffffffffffffffffffffffffffffffffffff16815260200190815260200160002060008201518160000160006101000a81548160ff0219169083151502179055506020820151816001019081610ccc919061537d565b50905050610cfa7fc8f5b4140cca307cd927e59cbeea8291bffeee228fc677f0fa059aef7b4dd8d5836137d8565b505050565b610d076138c9565b73ffffffffffffffffffffffffffffffffffffffff168173ffffffffffffffffffffffffffffffffffffffff1614610d6b576040517f6697b23200000000000000000000000000000000000000000000000000000000815260040160405180910390fd5b610d7582826138d1565b505050565b60078181548110610d8a57600080fd5b906000526020600020016000915054906101000a900473ffffffffffffffffffffffffffffffffffffffff1681565b60066020528060005260406000206000915090508060000160009054906101000a900467ffffffffffffffff16908060000160089054906101000a900473ffffffffffffffffffffffffffffffffffffffff16908060010160009054906101000a900473ffffffffffffffffffffffffffffffffffffffff16908060020160009054906101000a900473ffffffffffffffffffffffffffffffffffffffff1690806003018054610e68906150c8565b80601f0160208091040260200160405190810160405280929190818152602001828054610e94906150c8565b8015610ee15780601f10610eb657610100808354040283529160200191610ee1565b820191906000526020600020905b815481529060010190602001808311610ec457829003601f168201915b5050505050908060040160009054906101000a900460ff16908060040160019054906101000a900460ff16908060050154905088565b610f417f0af1dac7dea2fd7f7738119cec7df099dfad49aa9d2e7d17ba6b60f63ae7411f85611885565b610f80576040517f08c379a0000000000000000000000000000000000000000000000000000000008152600401610f779061549b565b60405180910390fd5b600360008573ffffffffffffffffffffffffffffffffffffffff1673ffffffffffffffffffffffffffffffffffffffff16815260200190815260200160002060000160019054906101000a900460ff1661100f576040517f08c379a000000000000000000000000000000000000000000000000000000000815260040161100690615507565b60405180910390fd5b8173ffffffffffffffffffffffffffffffffffffffff16600360008673ffffffffffffffffffffffffffffffffffffffff1673ffffffffffffffffffffffffffffffffffffffff16815260200190815260200160002060040160009054906101000a900473ffffffffffffffffffffffffffffffffffffffff1673ffffffffffffffffffffffffffffffffffffffff16146110df576040517f08c379a00000000000000000000000000000000000000000000000000000000081526004016110d690615599565b60405180910390fd5b60006110ed848685856139c3565b9050600660008267ffffffffffffffff1667ffffffffffffffff16815260200190815260200160002060040160009054906101000a900460ff16611166576040517f08c379a000000000000000000000000000000000000000000000000000000000815260040161115d90615605565b60405180910390fd5b60006111718661078e565b9050600061117e86611e3b565b9050600061118b8661238e565b90506000600160009054906101000a900467ffffffffffffffff1690506001600081819054906101000a900467ffffffffffffffff16809291906111ce90615654565b91906101000a81548167ffffffffffffffff021916908367ffffffffffffffff160217905550506040518060a001604052808267ffffffffffffffff16815260200185815260200184815260200183815260200187815250600560008367ffffffffffffffff1667ffffffffffffffff16815260200190815260200160002060008201518160000160006101000a81548167ffffffffffffffff021916908367ffffffffffffffff16021790555060208201518160010160008201518160000160006101000a81548160ff02191690831515021790555060208201518160000160016101000a81548160ff02191690831515021790555060408201518160010190816112da919061537d565b5060608201518160020190816112f0919061537d565b506080820151816003019081611306919061537d565b5060a08201518160040160006101000a81548173ffffffffffffffffffffffffffffffffffffffff021916908373ffffffffffffffffffffffffffffffffffffffff160217905550505060408201518160060160008201518160000160006101000a81548160ff021916908315150217905550602082015181600101908161138e919061537d565b5060408201518160020190816113a4919061537d565b5060608201518160030190816113ba919061537d565b505050606082015181600a0160008201518160000160006101000a81548160ff02191690831515021790555060208201518160010190816113fb919061537d565b505050608082015181600c019081611413919061537d565b509050507f541d7786d4c8dabb0d781252e2f318a55f659e7c98c068e7cc1337640b8f7550816040516114469190614b46565b60405180910390a1505050505050505050565b6008818154811061146957600080fd5b906000526020600020016000915054906101000a900473ffffffffffffffffffffffffffffffffffffffff1681565b600160009054906101000a900467ffffffffffffffff1681565b7fa49807205ce4d355092ef5a8a18f56e8913cf4a201fbe287825b095693c2177581565b6000600660008467ffffffffffffffff1667ffffffffffffffff16815260200190815260200160002090508060040160019054906101000a900460ff16611552576040517f08c379a0000000000000000000000000000000000000000000000000000000008152600401611549906156d0565b60405180910390fd5b3373ffffffffffffffffffffffffffffffffffffffff168160010160009054906101000a900473ffffffffffffffffffffffffffffffffffffffff1673ffffffffffffffffffffffffffffffffffffffff16146115e4576040517f08c379a00000000000000000000000000000000000000000000000000000000081526004016115db90615762565b60405180910390fd5b818160040160006101000a81548160ff02191690831515021790555060008160040160016101000a81548160ff021916908315150217905550505050565b606060078054806020026020016040519081016040528092919081815260200182805480156116a657602002820191906000526020600020905b8160009054906101000a900473ffffffffffffffffffffffffffffffffffffffff1673ffffffffffffffffffffffffffffffffffffffff168152602001906001019080831161165c575b5050505050905090565b6116da7fc8f5b4140cca307cd927e59cbeea8291bffeee228fc677f0fa059aef7b4dd8d533611885565b8061170b575061170a7fa49807205ce4d355092ef5a8a18f56e8913cf4a201fbe287825b095693c2177533611885565b5b61174a576040517f08c379a0000000000000000000000000000000000000000000000000000000008152600401611741906157ce565b60405180910390fd5b600360008373ffffffffffffffffffffffffffffffffffffffff1673ffffffffffffffffffffffffffffffffffffffff16815260200190815260200160002060000160009054906101000a900460ff166117d9576040517f08c379a00000000000000000000000000000000000000000000000000000000081526004016117d09061583a565b60405180910390fd5b80600360008473ffffffffffffffffffffffffffffffffffffffff1673ffffffffffffffffffffffffffffffffffffffff16815260200190815260200160002060000160016101000a81548160ff0219169083151502179055508173ffffffffffffffffffffffffffffffffffffffff167fa638cb51bc7af9950d0b4b97e6e079ad47517c071824a48b815be8112ecb87ab826040516118799190614441565b60405180910390a25050565b600080600084815260200190815260200160002060000160008373ffffffffffffffffffffffffffffffffffffffff1673ffffffffffffffffffffffffffffffffffffffff16815260200190815260200160002060009054906101000a900460ff16905092915050565b600160089054906101000a900467ffffffffffffffff1681565b6119337fc8f5b4140cca307cd927e59cbeea8291bffeee228fc677f0fa059aef7b4dd8d533611885565b611972576040517f08c379a000000000000000000000000000000000000000000000000000000000815260040161196990615145565b60405180910390fd5b600360008673ffffffffffffffffffffffffffffffffffffffff1673ffffffffffffffffffffffffffffffffffffffff16815260200190815260200160002060000160009054906101000a900460ff1615611a02576040517f08c379a00000000000000000000000000000000000000000000000000000000081526004016119f9906158a6565b60405180910390fd5b600260008573ffffffffffffffffffffffffffffffffffffffff1673ffffffffffffffffffffffffffffffffffffffff16815260200190815260200160002060000160009054906101000a900460ff16611a91576040517f08c379a0000000000000000000000000000000000000000000000000000000008152600401611a8890615912565b60405180910390fd5b6040518060c001604052806001151581526020016001151581526020018481526020018281526020018381526020018573ffffffffffffffffffffffffffffffffffffffff16815250600360008773ffffffffffffffffffffffffffffffffffffffff1673ffffffffffffffffffffffffffffffffffffffff16815260200190815260200160002060008201518160000160006101000a81548160ff02191690831515021790555060208201518160000160016101000a81548160ff0219169083151502179055506040820151816001019081611b6e919061537d565b506060820151816002019081611b84919061537d565b506080820151816003019081611b9a919061537d565b5060a08201518160040160006101000a81548173ffffffffffffffffffffffffffffffffffffffff021916908373ffffffffffffffffffffffffffffffffffffffff1602179055509050506007859080600181540180825580915050600190039060005260206000200160009091909190916101000a81548173ffffffffffffffffffffffffffffffffffffffff021916908373ffffffffffffffffffffffffffffffffffffffff1602179055507f1528780482ffee4194e653b400fa578a1add3fe678dc33897731daa3a213288985604051611c779190614998565b60405180910390a1611ca97f0af1dac7dea2fd7f7738119cec7df099dfad49aa9d2e7d17ba6b60f63ae7411f866137d8565b505050505050565b611cdb7fa49807205ce4d355092ef5a8a18f56e8913cf4a201fbe287825b095693c2177533611885565b611d1a576040517f08c379a0000000000000000000000000000000000000000000000000000000008152600401611d119061597e565b60405180910390fd5b600460008273ffffffffffffffffffffffffffffffffffffffff1673ffffffffffffffffffffffffffffffffffffffff16815260200190815260200160002060000160009054906101000a900460ff16611da9576040517f08c379a0000000000000000000000000000000000000000000000000000000008152600401611da0906159ea565b60405180910390fd5b600460008273ffffffffffffffffffffffffffffffffffffffff1673ffffffffffffffffffffffffffffffffffffffff168152602001908152602001600020600080820160006101000a81549060ff0219169055600182016000611e0d91906142ea565b600282016000611e1d91906142ea565b600382016000611e2d91906142ea565b5050611e3881613c97565b50565b611e4361432a565b600460008373ffffffffffffffffffffffffffffffffffffffff1673ffffffffffffffffffffffffffffffffffffffff1681526020019081526020016000206040518060800160405290816000820160009054906101000a900460ff16151515158152602001600182018054611eb8906150c8565b80601f0160208091040260200160405190810160405280929190818152602001828054611ee4906150c8565b8015611f315780601f10611f0657610100808354040283529160200191611f31565b820191906000526020600020905b815481529060010190602001808311611f1457829003601f168201915b50505050508152602001600282018054611f4a906150c8565b80601f0160208091040260200160405190810160405280929190818152602001828054611f76906150c8565b8015611fc35780601f10611f9857610100808354040283529160200191611fc3565b820191906000526020600020905b815481529060010190602001808311611fa657829003601f168201915b50505050508152602001600382018054611fdc906150c8565b80601f0160208091040260200160405190810160405280929190818152602001828054612008906150c8565b80156120555780601f1061202a57610100808354040283529160200191612055565b820191906000526020600020905b81548152906001019060200180831161203857829003601f168201915b5050505050815250509050919050565b61208f7fa49807205ce4d355092ef5a8a18f56e8913cf4a201fbe287825b095693c2177533611885565b806120c057506120bf7fc8f5b4140cca307cd927e59cbeea8291bffeee228fc677f0fa059aef7b4dd8d533611885565b5b6120ff576040517f08c379a00000000000000000000000000000000000000000000000000000000081526004016120f6906157ce565b60405180910390fd5b6121297fc8f5b4140cca307cd927e59cbeea8291bffeee228fc677f0fa059aef7b4dd8d533611885565b80156121c257503373ffffffffffffffffffffffffffffffffffffffff16600360008373ffffffffffffffffffffffffffffffffffffffff1673ffffffffffffffffffffffffffffffffffffffff16815260200190815260200160002060040160009054906101000a900473ffffffffffffffffffffffffffffffffffffffff1673ffffffffffffffffffffffffffffffffffffffff16145b806121f357506121f27fa49807205ce4d355092ef5a8a18f56e8913cf4a201fbe287825b095693c2177533611885565b5b612232576040517f08c379a0000000000000000000000000000000000000000000000000000000008152600401612229906157ce565b60405180910390fd5b600360008273ffffffffffffffffffffffffffffffffffffffff1673ffffffffffffffffffffffffffffffffffffffff16815260200190815260200160002060000160009054906101000a900460ff166122c1576040517f08c379a00000000000000000000000000000000000000000000000000000000081526004016122b89061583a565b60405180910390fd5b600360008273ffffffffffffffffffffffffffffffffffffffff1673ffffffffffffffffffffffffffffffffffffffff168152602001908152602001600020600080820160006101000a81549060ff02191690556000820160016101000a81549060ff021916905560018201600061233991906142ea565b60028201600061234991906142ea565b60038201600061235991906142ea565b6004820160006101000a81549073ffffffffffffffffffffffffffffffffffffffff0219169055505061238b81613e7c565b50565b612396614354565b600260008373ffffffffffffffffffffffffffffffffffffffff1673ffffffffffffffffffffffffffffffffffffffff1681526020019081526020016000206040518060400160405290816000820160009054906101000a900460ff1615151515815260200160018201805461240b906150c8565b80601f0160208091040260200160405190810160405280929190818152602001828054612437906150c8565b80156124845780601f1061245957610100808354040283529160200191612484565b820191906000526020600020905b81548152906001019060200180831161246757829003601f168201915b5050505050815250509050919050565b6000801b81565b6060600880548060200260200160405190810160405280929190818152602001828054801561251f57602002820191906000526020600020905b8160009054906101000a900473ffffffffffffffffffffffffffffffffffffffff1673ffffffffffffffffffffffffffffffffffffffff16815260200190600101908083116124d5575b5050505050905090565b60046020528060005260406000206000915090508060000160009054906101000a900460ff169080600101805461255f906150c8565b80601f016020809104026020016040519081016040528092919081815260200182805461258b906150c8565b80156125d85780601f106125ad576101008083540402835291602001916125d8565b820191906000526020600020905b8154815290600101906020018083116125bb57829003601f168201915b5050505050908060020180546125ed906150c8565b80601f0160208091040260200160405190810160405280929190818152602001828054612619906150c8565b80156126665780601f1061263b57610100808354040283529160200191612666565b820191906000526020600020905b81548152906001019060200180831161264957829003601f168201915b50505050509080600301805461267b906150c8565b80601f01602080910402602001604051908101604052809291908181526020018280546126a7906150c8565b80156126f45780601f106126c9576101008083540402835291602001916126f4565b820191906000526020600020905b8154815290600101906020018083116126d757829003601f168201915b5050505050905084565b60036020528060005260406000206000915090508060000160009054906101000a900460ff16908060000160019054906101000a900460ff1690806001018054612747906150c8565b80601f0160208091040260200160405190810160405280929190818152602001828054612773906150c8565b80156127c05780601f10612795576101008083540402835291602001916127c0565b820191906000526020600020905b8154815290600101906020018083116127a357829003601f168201915b5050505050908060020180546127d5906150c8565b80601f0160208091040260200160405190810160405280929190818152602001828054612801906150c8565b801561284e5780601f106128235761010080835404028352916020019161284e565b820191906000526020600020905b81548152906001019060200180831161283157829003601f168201915b505050505090806003018054612863906150c8565b80601f016020809104026020016040519081016040528092919081815260200182805461288f906150c8565b80156128dc5780601f106128b1576101008083540402835291602001916128dc565b820191906000526020600020905b8154815290600101906020018083116128bf57829003601f168201915b5050505050908060040160009054906101000a900473ffffffffffffffffffffffffffffffffffffffff16905086565b6129367f14823911f2da1b49f045a0929a60b8c1f2a7fc8c06c7284ca3e8ab4e193a08c833611885565b612975576040517f08c379a000000000000000000000000000000000000000000000000000000000815260040161296c90615a56565b60405180910390fd5b600460003373ffffffffffffffffffffffffffffffffffffffff1673ffffffffffffffffffffffffffffffffffffffff16815260200190815260200160002060000160009054906101000a900460ff16612a04576040517f08c379a00000000000000000000000000000000000000000000000000000000081526004016129fb906159ea565b60405180910390fd5b600360008373ffffffffffffffffffffffffffffffffffffffff1673ffffffffffffffffffffffffffffffffffffffff16815260200190815260200160002060000160009054906101000a900460ff16612a93576040517f08c379a0000000000000000000000000000000000000000000000000000000008152600401612a8a9061583a565b60405180910390fd5b6000600160089054906101000a900467ffffffffffffffff1690506001600881819054906101000a900467ffffffffffffffff1680929190612ad490615654565b91906101000a81548167ffffffffffffffff021916908367ffffffffffffffff160217905550506040518061010001604052808267ffffffffffffffff1681526020013373ffffffffffffffffffffffffffffffffffffffff1681526020018473ffffffffffffffffffffffffffffffffffffffff168152602001600360008673ffffffffffffffffffffffffffffffffffffffff1673ffffffffffffffffffffffffffffffffffffffff16815260200190815260200160002060040160009054906101000a900473ffffffffffffffffffffffffffffffffffffffff1673ffffffffffffffffffffffffffffffffffffffff16815260200183815260200160001515815260200160011515815260200143815250600660008367ffffffffffffffff1667ffffffffffffffff16815260200190815260200160002060008201518160000160006101000a81548167ffffffffffffffff021916908367ffffffffffffffff16021790555060208201518160000160086101000a81548173ffffffffffffffffffffffffffffffffffffffff021916908373ffffffffffffffffffffffffffffffffffffffff16021790555060408201518160010160006101000a81548173ffffffffffffffffffffffffffffffffffffffff021916908373ffffffffffffffffffffffffffffffffffffffff16021790555060608201518160020160006101000a81548173ffffffffffffffffffffffffffffffffffffffff021916908373ffffffffffffffffffffffffffffffffffffffff1602179055506080820151816003019081612d29919061537d565b5060a08201518160040160006101000a81548160ff02191690831515021790555060c08201518160040160016101000a81548160ff02191690831515021790555060e082015181600501559050507f698ee5445279e9e6dc4aefc59c1c830a1215a567455013ed3a2703de7fe83e6c81604051612da69190614b46565b60405180910390a1505050565b612dbc82610b06565b612dc5816137c4565b612dcf83836138d1565b50505050565b612dff7fa49807205ce4d355092ef5a8a18f56e8913cf4a201fbe287825b095693c2177533611885565b612e3e576040517f08c379a0000000000000000000000000000000000000000000000000000000008152600401612e3590615ac2565b60405180910390fd5b600260008273ffffffffffffffffffffffffffffffffffffffff1673ffffffffffffffffffffffffffffffffffffffff16815260200190815260200160002060000160009054906101000a900460ff16612ecd576040517f08c379a0000000000000000000000000000000000000000000000000000000008152600401612ec490615912565b60405180910390fd5b612ed681614007565b600260008273ffffffffffffffffffffffffffffffffffffffff1673ffffffffffffffffffffffffffffffffffffffff168152602001908152602001600020600080820160006101000a81549060ff0219169055600182016000612f3a91906142ea565b505050565b7fc8f5b4140cca307cd927e59cbeea8291bffeee228fc677f0fa059aef7b4dd8d581565b60056020528060005260406000206000915090508060000160009054906101000a900467ffffffffffffffff1690806001016040518060c00160405290816000820160009054906101000a900460ff161515151581526020016000820160019054906101000a900460ff16151515158152602001600182018054612fe6906150c8565b80601f0160208091040260200160405190810160405280929190818152602001828054613012906150c8565b801561305f5780601f106130345761010080835404028352916020019161305f565b820191906000526020600020905b81548152906001019060200180831161304257829003601f168201915b50505050508152602001600282018054613078906150c8565b80601f01602080910402602001604051908101604052809291908181526020018280546130a4906150c8565b80156130f15780601f106130c6576101008083540402835291602001916130f1565b820191906000526020600020905b8154815290600101906020018083116130d457829003601f168201915b5050505050815260200160038201805461310a906150c8565b80601f0160208091040260200160405190810160405280929190818152602001828054613136906150c8565b80156131835780601f1061315857610100808354040283529160200191613183565b820191906000526020600020905b81548152906001019060200180831161316657829003601f168201915b505050505081526020016004820160009054906101000a900473ffffffffffffffffffffffffffffffffffffffff1673ffffffffffffffffffffffffffffffffffffffff1673ffffffffffffffffffffffffffffffffffffffff168152505090806006016040518060800160405290816000820160009054906101000a900460ff1615151515815260200160018201805461321d906150c8565b80601f0160208091040260200160405190810160405280929190818152602001828054613249906150c8565b80156132965780601f1061326b57610100808354040283529160200191613296565b820191906000526020600020905b81548152906001019060200180831161327957829003601f168201915b505050505081526020016002820180546132af906150c8565b80601f01602080910402602001604051908101604052809291908181526020018280546132db906150c8565b80156133285780601f106132fd57610100808354040283529160200191613328565b820191906000526020600020905b81548152906001019060200180831161330b57829003601f168201915b50505050508152602001600382018054613341906150c8565b80601f016020809104026020016040519081016040528092919081815260200182805461336d906150c8565b80156133ba5780601f1061338f576101008083540402835291602001916133ba565b820191906000526020600020905b81548152906001019060200180831161339d57829003601f168201915b5050505050815250509080600a016040518060400160405290816000820160009054906101000a900460ff161515151581526020016001820180546133fe906150c8565b80601f016020809104026020016040519081016040528092919081815260200182805461342a906150c8565b80156134775780601f1061344c57610100808354040283529160200191613477565b820191906000526020600020905b81548152906001019060200180831161345a57829003601f168201915b5050505050815250509080600c018054613490906150c8565b80601f01602080910402602001604051908101604052809291908181526020018280546134bc906150c8565b80156135095780601f106134de57610100808354040283529160200191613509565b820191906000526020600020905b8154815290600101906020018083116134ec57829003601f168201915b5050505050905085565b600460008573ffffffffffffffffffffffffffffffffffffffff1673ffffffffffffffffffffffffffffffffffffffff16815260200190815260200160002060000160009054906101000a900460ff16156135a3576040517f08c379a000000000000000000000000000000000000000000000000000000000815260040161359a90615b2e565b60405180910390fd5b604051806080016040528060011515815260200184815260200183815260200182815250600460008673ffffffffffffffffffffffffffffffffffffffff1673ffffffffffffffffffffffffffffffffffffffff16815260200190815260200160002060008201518160000160006101000a81548160ff021916908315150217905550602082015181600101908161363b919061537d565b506040820151816002019081613651919061537d565b506060820151816003019081613667919061537d565b509050506008849080600181540180825580915050600190039060005260206000200160009091909190916101000a81548173ffffffffffffffffffffffffffffffffffffffff021916908373ffffffffffffffffffffffffffffffffffffffff1602179055507fc8702bbcbb48287a2a0d974f0c88e43b6e90727257c37b4f3795f955c47f3d5d846040516136fd9190614998565b60405180910390a161372f7f14823911f2da1b49f045a0929a60b8c1f2a7fc8c06c7284ca3e8ab4e193a08c8856137d8565b5050505050565b7f0af1dac7dea2fd7f7738119cec7df099dfad49aa9d2e7d17ba6b60f63ae7411f81565b60007f01ffc9a7000000000000000000000000000000000000000000000000000000007bffffffffffffffffffffffffffffffffffffffffffffffffffffffff1916827bffffffffffffffffffffffffffffffffffffffffffffffffffffffff1916149050919050565b6137d5816137d06138c9565b614249565b50565b60006137e48383611885565b6138be57600160008085815260200190815260200160002060000160008473ffffffffffffffffffffffffffffffffffffffff1673ffffffffffffffffffffffffffffffffffffffff16815260200190815260200160002060006101000a81548160ff02191690831515021790555061385b6138c9565b73ffffffffffffffffffffffffffffffffffffffff168273ffffffffffffffffffffffffffffffffffffffff16847f2f8788117e7eff1d82e926ec794901d17c78024a50270940304540a733656f0d60405160405180910390a4600190506138c3565b600090505b92915050565b600033905090565b60006138dd8383611885565b156139b857600080600085815260200190815260200160002060000160008473ffffffffffffffffffffffffffffffffffffffff1673ffffffffffffffffffffffffffffffffffffffff16815260200190815260200160002060006101000a81548160ff0219169083151502179055506139556138c9565b73ffffffffffffffffffffffffffffffffffffffff168273ffffffffffffffffffffffffffffffffffffffff16847ff6391f5c32d9c69d2a47ea670b442974b53935d1edc7fd64eb21e047a839171b60405160405180910390a4600190506139bd565b600090505b92915050565b600080600090505b600160089054906101000a900467ffffffffffffffff1667ffffffffffffffff168167ffffffffffffffff161015613c53578573ffffffffffffffffffffffffffffffffffffffff16600660008367ffffffffffffffff1667ffffffffffffffff16815260200190815260200160002060000160089054906101000a900473ffffffffffffffffffffffffffffffffffffffff1673ffffffffffffffffffffffffffffffffffffffff16148015613af757508473ffffffffffffffffffffffffffffffffffffffff16600660008367ffffffffffffffff1667ffffffffffffffff16815260200190815260200160002060010160009054906101000a900473ffffffffffffffffffffffffffffffffffffffff1673ffffffffffffffffffffffffffffffffffffffff16145b8015613b7857508373ffffffffffffffffffffffffffffffffffffffff16600660008367ffffffffffffffff1667ffffffffffffffff16815260200190815260200160002060020160009054906101000a900473ffffffffffffffffffffffffffffffffffffffff1673ffffffffffffffffffffffffffffffffffffffff16145b8015613bf8575082604051602001613b909190615b8a565b60405160208183030381529060405280519060200120600660008367ffffffffffffffff1667ffffffffffffffff168152602001908152602001600020600301604051602001613be09190615c24565b60405160208183030381529060405280519060200120145b8015613c385750600660008267ffffffffffffffff1667ffffffffffffffff16815260200190815260200160002060040160009054906101000a900460ff165b15613c465780915050613c8f565b80806001019150506139cb565b506040517f08c379a0000000000000000000000000000000000000000000000000000000008152600401613c8690615c87565b60405180910390fd5b949350505050565b60005b6008805490508167ffffffffffffffff161015613e78578173ffffffffffffffffffffffffffffffffffffffff1660088267ffffffffffffffff1681548110613ce657613ce5615ca7565b5b9060005260206000200160009054906101000a900473ffffffffffffffffffffffffffffffffffffffff1673ffffffffffffffffffffffffffffffffffffffff1603613e655760086001600880549050613d409190615cd6565b81548110613d5157613d50615ca7565b5b9060005260206000200160009054906101000a900473ffffffffffffffffffffffffffffffffffffffff1660088267ffffffffffffffff1681548110613d9a57613d99615ca7565b5b9060005260206000200160006101000a81548173ffffffffffffffffffffffffffffffffffffffff021916908373ffffffffffffffffffffffffffffffffffffffff1602179055506008805480613df457613df3615d0a565b5b6001900381819060005260206000200160006101000a81549073ffffffffffffffffffffffffffffffffffffffff021916905590557f0ba57158da2085997394901bf3a39951041537c10f8461f90ed82e17e7f50e8b82604051613e589190614998565b60405180910390a1613e78565b8080613e7090615654565b915050613c9a565b5050565b6000600780549050905060005b81811015614002578273ffffffffffffffffffffffffffffffffffffffff1660078281548110613ebc57613ebb615ca7565b5b9060005260206000200160009054906101000a900473ffffffffffffffffffffffffffffffffffffffff1673ffffffffffffffffffffffffffffffffffffffff1603613ff5576007600183613f119190615cd6565b81548110613f2257613f21615ca7565b5b9060005260206000200160009054906101000a900473ffffffffffffffffffffffffffffffffffffffff1660078281548110613f6157613f60615ca7565b5b9060005260206000200160006101000a81548173ffffffffffffffffffffffffffffffffffffffff021916908373ffffffffffffffffffffffffffffffffffffffff1602179055506007805480613fbb57613fba615d0a565b5b6001900381819060005260206000200160006101000a81549073ffffffffffffffffffffffffffffffffffffffff02191690559055614002565b8080600101915050613e89565b505050565b6000600780549050905060005b818110156142445760006007828154811061403257614031615ca7565b5b9060005260206000200160009054906101000a900473ffffffffffffffffffffffffffffffffffffffff1690508373ffffffffffffffffffffffffffffffffffffffff16600360008373ffffffffffffffffffffffffffffffffffffffff1673ffffffffffffffffffffffffffffffffffffffff16815260200190815260200160002060040160009054906101000a900473ffffffffffffffffffffffffffffffffffffffff1673ffffffffffffffffffffffffffffffffffffffff160361422f576140fd81612065565b7f493d7cf6a7c880406a55654d6727464ea088bd01d40498e1987a327e68961ab88160405161412c9190614998565b60405180910390a160018311156141e557600760018461414c9190615cd6565b8154811061415d5761415c615ca7565b5b9060005260206000200160009054906101000a900473ffffffffffffffffffffffffffffffffffffffff166007838154811061419c5761419b615ca7565b5b9060005260206000200160006101000a81548173ffffffffffffffffffffffffffffffffffffffff021916908373ffffffffffffffffffffffffffffffffffffffff1602179055505b82806141f090615d39565b9350507fc6012ff124b01924d7b4979454f1d5ecf08c098a27498bc901a0bcf370cf1de0816040516142229190614998565b60405180910390a161423e565b818061423a90615d62565b9250505b50614014565b505050565b6142538282611885565b6142965780826040517fe2517d3f00000000000000000000000000000000000000000000000000000000815260040161428d929190615daa565b60405180910390fd5b5050565b6040518060c00160405280600015158152602001600015158152602001606081526020016060815260200160608152602001600073ffffffffffffffffffffffffffffffffffffffff1681525090565b5080546142f6906150c8565b6000825580601f106143085750614327565b601f0160209004906000526020600020908101906143269190614370565b5b50565b60405180608001604052806000151581526020016060815260200160608152602001606081525090565b6040518060400160405280600015158152602001606081525090565b5b80821115614389576000816000905550600101614371565b5090565b6000604051905090565b600080fd5b600080fd5b60007fffffffff0000000000000000000000000000000000000000000000000000000082169050919050565b6143d6816143a1565b81146143e157600080fd5b50565b6000813590506143f3816143cd565b92915050565b60006020828403121561440f5761440e614397565b5b600061441d848285016143e4565b91505092915050565b60008115159050919050565b61443b81614426565b82525050565b60006020820190506144566000830184614432565b92915050565b600073ffffffffffffffffffffffffffffffffffffffff82169050919050565b60006144878261445c565b9050919050565b6144978161447c565b81146144a257600080fd5b50565b6000813590506144b48161448e565b92915050565b6000602082840312156144d0576144cf614397565b5b60006144de848285016144a5565b91505092915050565b6144f081614426565b82525050565b600081519050919050565b600082825260208201905092915050565b60005b83811015614530578082015181840152602081019050614515565b60008484015250505050565b6000601f19601f8301169050919050565b6000614558826144f6565b6145628185614501565b9350614572818560208601614512565b61457b8161453c565b840191505092915050565b61458f8161447c565b82525050565b600060c0830160008301516145ad60008601826144e7565b5060208301516145c060208601826144e7565b50604083015184820360408601526145d8828261454d565b915050606083015184820360608601526145f2828261454d565b9150506080830151848203608086015261460c828261454d565b91505060a083015161462160a0860182614586565b508091505092915050565b600060208201905081810360008301526146468184614595565b905092915050565b6000819050919050565b6146618161464e565b82525050565b600060208201905061467c6000830184614658565b92915050565b600082825260208201905092915050565b600061469e826144f6565b6146a88185614682565b93506146b8818560208601614512565b6146c18161453c565b840191505092915050565b60006040820190506146e16000830185614432565b81810360208301526146f38184614693565b90509392505050565b6147058161464e565b811461471057600080fd5b50565b600081359050614722816146fc565b92915050565b60006020828403121561473e5761473d614397565b5b600061474c84828501614713565b91505092915050565b6000806040838503121561476c5761476b614397565b5b600061477a85828601614713565b925050602061478b858286016144a5565b9150509250929050565b600080fd5b600080fd5b7f4e487b7100000000000000000000000000000000000000000000000000000000600052604160045260246000fd5b6147d78261453c565b810181811067ffffffffffffffff821117156147f6576147f561479f565b5b80604052505050565b600061480961438d565b905061481582826147ce565b919050565b600067ffffffffffffffff8211156148355761483461479f565b5b61483e8261453c565b9050602081019050919050565b82818337600083830152505050565b600061486d6148688461481a565b6147ff565b9050828152602081018484840111156148895761488861479a565b5b61489484828561484b565b509392505050565b600082601f8301126148b1576148b0614795565b5b81356148c184826020860161485a565b91505092915050565b600080604083850312156148e1576148e0614397565b5b60006148ef858286016144a5565b925050602083013567ffffffffffffffff8111156149105761490f61439c565b5b61491c8582860161489c565b9150509250929050565b6000819050919050565b61493981614926565b811461494457600080fd5b50565b60008135905061495681614930565b92915050565b60006020828403121561497257614971614397565b5b600061498084828501614947565b91505092915050565b6149928161447c565b82525050565b60006020820190506149ad6000830184614989565b92915050565b600067ffffffffffffffff82169050919050565b6149d0816149b3565b81146149db57600080fd5b50565b6000813590506149ed816149c7565b92915050565b600060208284031215614a0957614a08614397565b5b6000614a17848285016149de565b91505092915050565b614a29816149b3565b82525050565b614a3881614926565b82525050565b600061010082019050614a54600083018b614a20565b614a61602083018a614989565b614a6e6040830189614989565b614a7b6060830188614989565b8181036080830152614a8d8187614693565b9050614a9c60a0830186614432565b614aa960c0830185614432565b614ab660e0830184614a2f565b9998505050505050505050565b60008060008060808587031215614add57614adc614397565b5b6000614aeb878288016144a5565b9450506020614afc878288016144a5565b9350506040614b0d878288016144a5565b925050606085013567ffffffffffffffff811115614b2e57614b2d61439c565b5b614b3a8782880161489c565b91505092959194509250565b6000602082019050614b5b6000830184614a20565b92915050565b614b6a81614426565b8114614b7557600080fd5b50565b600081359050614b8781614b61565b92915050565b60008060408385031215614ba457614ba3614397565b5b6000614bb2858286016149de565b9250506020614bc385828601614b78565b9150509250929050565b600081519050919050565b600082825260208201905092915050565b6000819050602082019050919050565b6000614c058383614586565b60208301905092915050565b6000602082019050919050565b6000614c2982614bcd565b614c338185614bd8565b9350614c3e83614be9565b8060005b83811015614c6f578151614c568882614bf9565b9750614c6183614c11565b925050600181019050614c42565b5085935050505092915050565b60006020820190508181036000830152614c968184614c1e565b905092915050565b60008060408385031215614cb557614cb4614397565b5b6000614cc3858286016144a5565b9250506020614cd485828601614b78565b9150509250929050565b600080600080600060a08688031215614cfa57614cf9614397565b5b6000614d08888289016144a5565b9550506020614d19888289016144a5565b945050604086013567ffffffffffffffff811115614d3a57614d3961439c565b5b614d468882890161489c565b935050606086013567ffffffffffffffff811115614d6757614d6661439c565b5b614d738882890161489c565b925050608086013567ffffffffffffffff811115614d9457614d9361439c565b5b614da08882890161489c565b9150509295509295909350565b6000608083016000830151614dc560008601826144e7565b5060208301518482036020860152614ddd828261454d565b91505060408301518482036040860152614df7828261454d565b91505060608301518482036060860152614e11828261454d565b9150508091505092915050565b60006020820190508181036000830152614e388184614dad565b905092915050565b6000604083016000830151614e5860008601826144e7565b5060208301518482036020860152614e70828261454d565b9150508091505092915050565b60006020820190508181036000830152614e978184614e40565b905092915050565b6000608082019050614eb46000830187614432565b8181036020830152614ec68186614693565b90508181036040830152614eda8185614693565b90508181036060830152614eee8184614693565b905095945050505050565b600060c082019050614f0e6000830189614432565b614f1b6020830188614432565b8181036040830152614f2d8187614693565b90508181036060830152614f418186614693565b90508181036080830152614f558185614693565b9050614f6460a0830184614989565b979650505050505050565b600060a082019050614f846000830188614a20565b8181036020830152614f968187614595565b90508181036040830152614faa8186614dad565b90508181036060830152614fbe8185614e40565b90508181036080830152614fd28184614693565b90509695505050505050565b60008060008060808587031215614ff857614ff7614397565b5b6000615006878288016144a5565b945050602085013567ffffffffffffffff8111156150275761502661439c565b5b6150338782880161489c565b935050604085013567ffffffffffffffff8111156150545761505361439c565b5b6150608782880161489c565b925050606085013567ffffffffffffffff8111156150815761508061439c565b5b61508d8782880161489c565b91505092959194509250565b7f4e487b7100000000000000000000000000000000000000000000000000000000600052602260045260246000fd5b600060028204905060018216806150e057607f821691505b6020821081036150f3576150f2615099565b5b50919050565b7f43616c6c6572206973206e6f74206120686f73706974616c0000000000000000600082015250565b600061512f601883614682565b915061513a826150f9565b602082019050919050565b6000602082019050818103600083015261515e81615122565b9050919050565b7f456e7469747920616c7265616479207265676973746572656400000000000000600082015250565b600061519b601983614682565b91506151a682615165565b602082019050919050565b600060208201905081810360008301526151ca8161518e565b9050919050565b60008190508160005260206000209050919050565b60006020601f8301049050919050565b600082821b905092915050565b6000600883026152337fffffffffffffffffffffffffffffffffffffffffffffffffffffffffffffffff826151f6565b61523d86836151f6565b95508019841693508086168417925050509392505050565b6000819050919050565b600061527a61527561527084614926565b615255565b614926565b9050919050565b6000819050919050565b6152948361525f565b6152a86152a082615281565b848454615203565b825550505050565b600090565b6152bd6152b0565b6152c881848461528b565b505050565b5b818110156152ec576152e16000826152b5565b6001810190506152ce565b5050565b601f82111561533157615302816151d1565b61530b846151e6565b8101602085101561531a578190505b61532e615326856151e6565b8301826152cd565b50505b505050565b600082821c905092915050565b600061535460001984600802615336565b1980831691505092915050565b600061536d8383615343565b9150826002028217905092915050565b615386826144f6565b67ffffffffffffffff81111561539f5761539e61479f565b5b6153a982546150c8565b6153b48282856152f0565b600060209050601f8311600181146153e757600084156153d5578287015190505b6153df8582615361565b865550615447565b601f1984166153f5866151d1565b60005b8281101561541d578489015182556001820191506020850194506020810190506153f8565b8683101561543a5784890151615436601f891682615343565b8355505b6001600288020188555050505b505050505050565b7f43616c6c6572206973206e6f74206120646f63746f7200000000000000000000600082015250565b6000615485601683614682565b91506154908261544f565b602082019050919050565b600060208201905081810360008301526154b481615478565b9050919050565b7f446f63746f72206973206e6f7420616374697665000000000000000000000000600082015250565b60006154f1601483614682565b91506154fc826154bb565b602082019050919050565b60006020820190508181036000830152615520816154e4565b9050919050565b7f446f63746f7220646f6573206e6f742062656c6f6e6720746f2074686973206860008201527f6f73706974616c00000000000000000000000000000000000000000000000000602082015250565b6000615583602783614682565b915061558e82615527565b604082019050919050565b600060208201905081810360008301526155b281615576565b9050919050565b7f5265717565737420686173206e6f74206265656e20617070726f766564000000600082015250565b60006155ef601d83614682565b91506155fa826155b9565b602082019050919050565b6000602082019050818103600083015261561e816155e2565b9050919050565b7f4e487b7100000000000000000000000000000000000000000000000000000000600052601160045260246000fd5b600061565f826149b3565b915067ffffffffffffffff820361567957615678615625565b5b600182019050919050565b7f52657175657374206973206e6f742070656e64696e6700000000000000000000600082015250565b60006156ba601683614682565b91506156c582615684565b602082019050919050565b600060208201905081810360008301526156e9816156ad565b9050919050565b7f4f6e6c79207468652061737369676e656420646f63746f722063616e2072657360008201527f706f6e6400000000000000000000000000000000000000000000000000000000602082015250565b600061574c602483614682565b9150615757826156f0565b604082019050919050565b6000602082019050818103600083015261577b8161573f565b9050919050565b7f4e6f7420617574686f72697a6564000000000000000000000000000000000000600082015250565b60006157b8600e83614682565b91506157c382615782565b602082019050919050565b600060208201905081810360008301526157e7816157ab565b9050919050565b7f446f63746f72206e6f7420726567697374657265640000000000000000000000600082015250565b6000615824601583614682565b915061582f826157ee565b602082019050919050565b6000602082019050818103600083015261585381615817565b9050919050565b7f446f63746f7220616c7265616479207265676973746572656400000000000000600082015250565b6000615890601983614682565b915061589b8261585a565b602082019050919050565b600060208201905081810360008301526158bf81615883565b9050919050565b7f456e74697479206e6f7420726567697374657265640000000000000000000000600082015250565b60006158fc601583614682565b9150615907826158c6565b602082019050919050565b6000602082019050818103600083015261592b816158ef565b9050919050565b7f4f6e6c792061646d696e2063616e2072656d6f76652061207573657200000000600082015250565b6000615968601c83614682565b915061597382615932565b602082019050919050565b600060208201905081810360008301526159978161595b565b9050919050565b7f55736572206e6f74207265676973746572656400000000000000000000000000600082015250565b60006159d4601383614682565b91506159df8261599e565b602082019050919050565b60006020820190508181036000830152615a03816159c7565b9050919050565b7f43616c6c6572206973206e6f7420612075736572000000000000000000000000600082015250565b6000615a40601483614682565b9150615a4b82615a0a565b602082019050919050565b60006020820190508181036000830152615a6f81615a33565b9050919050565b7f4f6e6c792061646d696e2063616e2072656d6f766520616e20656e7469747900600082015250565b6000615aac601f83614682565b9150615ab782615a76565b602082019050919050565b60006020820190508181036000830152615adb81615a9f565b9050919050565b7f5573657220616c72656164792072656769737465726564000000000000000000600082015250565b6000615b18601783614682565b9150615b2382615ae2565b602082019050919050565b60006020820190508181036000830152615b4781615b0b565b9050919050565b600081905092915050565b6000615b64826144f6565b615b6e8185615b4e565b9350615b7e818560208601614512565b80840191505092915050565b6000615b968284615b59565b915081905092915050565b60008154615bae816150c8565b615bb88186615b4e565b94506001821660008114615bd35760018114615be857615c1b565b60ff1983168652811515820286019350615c1b565b615bf1856151d1565b60005b83811015615c1357815481890152600182019150602081019050615bf4565b838801955050505b50505092915050565b6000615c308284615ba1565b915081905092915050565b7f4e6f206d61746368696e67207265717565737420666f756e6400000000000000600082015250565b6000615c71601983614682565b9150615c7c82615c3b565b602082019050919050565b60006020820190508181036000830152615ca081615c64565b9050919050565b7f4e487b7100000000000000000000000000000000000000000000000000000000600052603260045260246000fd5b6000615ce182614926565b9150615cec83614926565b9250828203905081811115615d0457615d03615625565b5b92915050565b7f4e487b7100000000000000000000000000000000000000000000000000000000600052603160045260246000fd5b6000615d4482614926565b915060008203615d5757615d56615625565b5b600182039050919050565b6000615d6d82614926565b91507fffffffffffffffffffffffffffffffffffffffffffffffffffffffffffffffff8203615d9f57615d9e615625565b5b600182019050919050565b6000604082019050615dbf6000830185614989565b615dcc6020830184614658565b939250505056fea2646970667358221220c0788e5d945292f3eb3311cc67dadf1306100c15c8e66bef01aecd402711bb7f64736f6c63430008180033","opcodes":"PUSH1 0x80 PUSH1 0x40 MSTORE CALLVALUE DUP1 ISZERO PUSH3 0x11 JUMPI PUSH1 0x0 DUP1 REVERT JUMPDEST POP PUSH3 0x27 PUSH1 0x0 DUP1 SHL CALLER PUSH3 0x61 PUSH1 0x20 SHL PUSH1 0x20 SHR JUMP JUMPDEST POP PUSH3 0x5A PUSH32 0xA49807205CE4D355092EF5A8A18F56E8913CF4A201FBE287825B095693C21775 CALLER PUSH3 0x61 PUSH1 0x20 SHL PUSH1 0x20 SHR JUMP JUMPDEST POP PUSH3 0x1D6 JUMP JUMPDEST PUSH1 0x0 PUSH3 0x75 DUP4 DUP4 PUSH3 0x164 PUSH1 0x20 SHL PUSH1 0x20 SHR JUMP JUMPDEST PUSH3 0x159 JUMPI PUSH1 0x1 PUSH1 0x0 DUP1 DUP6 DUP2 MSTORE PUSH1 0x20 ADD SWAP1 DUP2 MSTORE PUSH1 0x20 ADD PUSH1 0x0 KECCAK256 PUSH1 0x0 ADD PUSH1 0x0 DUP5 PUSH20 0xFFFFFFFFFFFFFFFFFFFFFFFFFFFFFFFFFFFFFFFF AND PUSH20 0xFFFFFFFFFFFFFFFFFFFFFFFFFFFFFFFFFFFFFFFF AND DUP2 MSTORE PUSH1 0x20 ADD SWAP1 DUP2 MSTORE PUSH1 0x20 ADD PUSH1 0x0 KECCAK256 PUSH1 0x0 PUSH2 0x100 EXP DUP2 SLOAD DUP2 PUSH1 0xFF MUL NOT AND SWAP1 DUP4 ISZERO ISZERO MUL OR SWAP1 SSTORE POP PUSH3 0xF5 PUSH3 0x1CE PUSH1 0x20 SHL PUSH1 0x20 SHR JUMP JUMPDEST PUSH20 0xFFFFFFFFFFFFFFFFFFFFFFFFFFFFFFFFFFFFFFFF AND DUP3 PUSH20 0xFFFFFFFFFFFFFFFFFFFFFFFFFFFFFFFFFFFFFFFF AND DUP5 PUSH32 0x2F8788117E7EFF1D82E926EC794901D17C78024A50270940304540A733656F0D PUSH1 0x40 MLOAD PUSH1 0x40 MLOAD DUP1 SWAP2 SUB SWAP1 LOG4 PUSH1 0x1 SWAP1 POP PUSH3 0x15E JUMP JUMPDEST PUSH1 0x0 SWAP1 POP JUMPDEST SWAP3 SWAP2 POP POP JUMP JUMPDEST PUSH1 0x0 DUP1 PUSH1 0x0 DUP5 DUP2 MSTORE PUSH1 0x20 ADD SWAP1 DUP2 MSTORE PUSH1 0x20 ADD PUSH1 0x0 KECCAK256 PUSH1 0x0 ADD PUSH1 0x0 DUP4 PUSH20 0xFFFFFFFFFFFFFFFFFFFFFFFFFFFFFFFFFFFFFFFF AND PUSH20 0xFFFFFFFFFFFFFFFFFFFFFFFFFFFFFFFFFFFFFFFF AND DUP2 MSTORE PUSH1 0x20 ADD SWAP1 DUP2 MSTORE PUSH1 0x20 ADD PUSH1 0x0 KECCAK256 PUSH1 0x0 SWAP1 SLOAD SWAP1 PUSH2 0x100 EXP SWAP1 DIV PUSH1 0xFF AND SWAP1 POP SWAP3 SWAP2 POP POP JUMP JUMPDEST PUSH1 0x0 CALLER SWAP1 POP SWAP1 JUMP JUMPDEST PUSH2 0x5E09 DUP1 PUSH3 0x1E6 PUSH1 0x0 CODECOPY PUSH1 0x0 RETURN INVALID PUSH1 0x80 PUSH1 0x40 MSTORE CALLVALUE DUP1 ISZERO PUSH2 0x10 JUMPI PUSH1 0x0 DUP1 REVERT JUMPDEST POP PUSH1 0x4 CALLDATASIZE LT PUSH2 0x211 JUMPI PUSH1 0x0 CALLDATALOAD PUSH1 0xE0 SHR DUP1 PUSH4 0x91D14854 GT PUSH2 0x125 JUMPI DUP1 PUSH4 0xA87430BA GT PUSH2 0xAD JUMPI DUP1 PUSH4 0xDD182996 GT PUSH2 0x7C JUMPI DUP1 PUSH4 0xDD182996 EQ PUSH2 0x66C JUMPI DUP1 PUSH4 0xF6BA6678 EQ PUSH2 0x688 JUMPI DUP1 PUSH4 0xFA223B44 EQ PUSH2 0x6A6 JUMPI DUP1 PUSH4 0xFE69C296 EQ PUSH2 0x6DA JUMPI DUP1 PUSH4 0xFEC331F2 EQ PUSH2 0x6F6 JUMPI PUSH2 0x211 JUMP JUMPDEST DUP1 PUSH4 0xA87430BA EQ PUSH2 0x5CC JUMPI DUP1 PUSH4 0xA9583C22 EQ PUSH2 0x5FF JUMPI DUP1 PUSH4 0xC736CF93 EQ PUSH2 0x634 JUMPI DUP1 PUSH4 0xD547741F EQ PUSH2 0x650 JUMPI PUSH2 0x211 JUMP JUMPDEST DUP1 PUSH4 0x9862D5F0 GT PUSH2 0xF4 JUMPI DUP1 PUSH4 0x9862D5F0 EQ PUSH2 0x514 JUMPI DUP1 PUSH4 0x98FC90E9 EQ PUSH2 0x544 JUMPI DUP1 PUSH4 0xA0714EB0 EQ PUSH2 0x560 JUMPI DUP1 PUSH4 0xA217FDDF EQ PUSH2 0x590 JUMPI DUP1 PUSH4 0xA591EFDE EQ PUSH2 0x5AE JUMPI PUSH2 0x211 JUMP JUMPDEST DUP1 PUSH4 0x91D14854 EQ PUSH2 0x48E JUMPI DUP1 PUSH4 0x973A814E EQ PUSH2 0x4BE JUMPI DUP1 PUSH4 0x981B5502 EQ PUSH2 0x4DC JUMPI DUP1 PUSH4 0x98575188 EQ PUSH2 0x4F8 JUMPI PUSH2 0x211 JUMP JUMPDEST DUP1 PUSH4 0x3BA51E7C GT PUSH2 0x1A8 JUMPI DUP1 PUSH4 0x67764B26 GT PUSH2 0x177 JUMPI DUP1 PUSH4 0x67764B26 EQ PUSH2 0x3FC JUMPI DUP1 PUSH4 0x75B238FC EQ PUSH2 0x41A JUMPI DUP1 PUSH4 0x83195A7A EQ PUSH2 0x438 JUMPI DUP1 PUSH4 0x84D3D47B EQ PUSH2 0x454 JUMPI DUP1 PUSH4 0x88B261AC EQ PUSH2 0x472 JUMPI PUSH2 0x211 JUMP JUMPDEST DUP1 PUSH4 0x3BA51E7C EQ PUSH2 0x349 JUMPI DUP1 PUSH4 0x411010EC EQ PUSH2 0x379 JUMPI DUP1 PUSH4 0x47ED9E1D EQ PUSH2 0x3B0 JUMPI DUP1 PUSH4 0x502C9BD5 EQ PUSH2 0x3CC JUMPI PUSH2 0x211 JUMP JUMPDEST DUP1 PUSH4 0x248A9CA3 GT PUSH2 0x1E4 JUMPI DUP1 PUSH4 0x248A9CA3 EQ PUSH2 0x2C5 JUMPI DUP1 PUSH4 0x2F2FF15D EQ PUSH2 0x2F5 JUMPI DUP1 PUSH4 0x32B3F568 EQ PUSH2 0x311 JUMPI DUP1 PUSH4 0x36568ABE EQ PUSH2 0x32D JUMPI PUSH2 0x211 JUMP JUMPDEST DUP1 PUSH4 0x1FFC9A7 EQ PUSH2 0x216 JUMPI DUP1 PUSH4 0x11FDCB07 EQ PUSH2 0x246 JUMPI DUP1 PUSH4 0x13119161 EQ PUSH2 0x276 JUMPI DUP1 PUSH4 0x1D8EE48A EQ PUSH2 0x294 JUMPI JUMPDEST PUSH1 0x0 DUP1 REVERT JUMPDEST PUSH2 0x230 PUSH1 0x4 DUP1 CALLDATASIZE SUB DUP2 ADD SWAP1 PUSH2 0x22B SWAP2 SWAP1 PUSH2 0x43F9 JUMP JUMPDEST PUSH2 0x714 JUMP JUMPDEST PUSH1 0x40 MLOAD PUSH2 0x23D SWAP2 SWAP1 PUSH2 0x4441 JUMP JUMPDEST PUSH1 0x40 MLOAD DUP1 SWAP2 SUB SWAP1 RETURN JUMPDEST PUSH2 0x260 PUSH1 0x4 DUP1 CALLDATASIZE SUB DUP2 ADD SWAP1 PUSH2 0x25B SWAP2 SWAP1 PUSH2 0x44BA JUMP JUMPDEST PUSH2 0x78E JUMP JUMPDEST PUSH1 0x40 MLOAD PUSH2 0x26D SWAP2 SWAP1 PUSH2 0x462C JUMP JUMPDEST PUSH1 0x40 MLOAD DUP1 SWAP2 SUB SWAP1 RETURN JUMPDEST PUSH2 0x27E PUSH2 0xA29 JUMP JUMPDEST PUSH1 0x40 MLOAD PUSH2 0x28B SWAP2 SWAP1 PUSH2 0x4667 JUMP JUMPDEST PUSH1 0x40 MLOAD DUP1 SWAP2 SUB SWAP1 RETURN JUMPDEST PUSH2 0x2AE PUSH1 0x4 DUP1 CALLDATASIZE SUB DUP2 ADD SWAP1 PUSH2 0x2A9 SWAP2 SWAP1 PUSH2 0x44BA JUMP JUMPDEST PUSH2 0xA4D JUMP JUMPDEST PUSH1 0x40 MLOAD PUSH2 0x2BC SWAP3 SWAP2 SWAP1 PUSH2 0x46CC JUMP JUMPDEST PUSH1 0x40 MLOAD DUP1 SWAP2 SUB SWAP1 RETURN JUMPDEST PUSH2 0x2DF PUSH1 0x4 DUP1 CALLDATASIZE SUB DUP2 ADD SWAP1 PUSH2 0x2DA SWAP2 SWAP1 PUSH2 0x4728 JUMP JUMPDEST PUSH2 0xB06 JUMP JUMPDEST PUSH1 0x40 MLOAD PUSH2 0x2EC SWAP2 SWAP1 PUSH2 0x4667 JUMP JUMPDEST PUSH1 0x40 MLOAD DUP1 SWAP2 SUB SWAP1 RETURN JUMPDEST PUSH2 0x30F PUSH1 0x4 DUP1 CALLDATASIZE SUB DUP2 ADD SWAP1 PUSH2 0x30A SWAP2 SWAP1 PUSH2 0x4755 JUMP JUMPDEST PUSH2 0xB25 JUMP JUMPDEST STOP JUMPDEST PUSH2 0x32B PUSH1 0x4 DUP1 CALLDATASIZE SUB DUP2 ADD SWAP1 PUSH2 0x326 SWAP2 SWAP1 PUSH2 0x48CA JUMP JUMPDEST PUSH2 0xB47 JUMP JUMPDEST STOP JUMPDEST PUSH2 0x347 PUSH1 0x4 DUP1 CALLDATASIZE SUB DUP2 ADD SWAP1 PUSH2 0x342 SWAP2 SWAP1 PUSH2 0x4755 JUMP JUMPDEST PUSH2 0xCFF JUMP JUMPDEST STOP JUMPDEST PUSH2 0x363 PUSH1 0x4 DUP1 CALLDATASIZE SUB DUP2 ADD SWAP1 PUSH2 0x35E SWAP2 SWAP1 PUSH2 0x495C JUMP JUMPDEST PUSH2 0xD7A JUMP JUMPDEST PUSH1 0x40 MLOAD PUSH2 0x370 SWAP2 SWAP1 PUSH2 0x4998 JUMP JUMPDEST PUSH1 0x40 MLOAD DUP1 SWAP2 SUB SWAP1 RETURN JUMPDEST PUSH2 0x393 PUSH1 0x4 DUP1 CALLDATASIZE SUB DUP2 ADD SWAP1 PUSH2 0x38E SWAP2 SWAP1 PUSH2 0x49F3 JUMP JUMPDEST PUSH2 0xDB9 JUMP JUMPDEST PUSH1 0x40 MLOAD PUSH2 0x3A7 SWAP9 SWAP8 SWAP7 SWAP6 SWAP5 SWAP4 SWAP3 SWAP2 SWAP1 PUSH2 0x4A3E JUMP JUMPDEST PUSH1 0x40 MLOAD DUP1 SWAP2 SUB SWAP1 RETURN JUMPDEST PUSH2 0x3CA PUSH1 0x4 DUP1 CALLDATASIZE SUB DUP2 ADD SWAP1 PUSH2 0x3C5 SWAP2 SWAP1 PUSH2 0x4AC3 JUMP JUMPDEST PUSH2 0xF17 JUMP JUMPDEST STOP JUMPDEST PUSH2 0x3E6 PUSH1 0x4 DUP1 CALLDATASIZE SUB DUP2 ADD SWAP1 PUSH2 0x3E1 SWAP2 SWAP1 PUSH2 0x495C JUMP JUMPDEST PUSH2 0x1459 JUMP JUMPDEST PUSH1 0x40 MLOAD PUSH2 0x3F3 SWAP2 SWAP1 PUSH2 0x4998 JUMP JUMPDEST PUSH1 0x40 MLOAD DUP1 SWAP2 SUB SWAP1 RETURN JUMPDEST PUSH2 0x404 PUSH2 0x1498 JUMP JUMPDEST PUSH1 0x40 MLOAD PUSH2 0x411 SWAP2 SWAP1 PUSH2 0x4B46 JUMP JUMPDEST PUSH1 0x40 MLOAD DUP1 SWAP2 SUB SWAP1 RETURN JUMPDEST PUSH2 0x422 PUSH2 0x14B2 JUMP JUMPDEST PUSH1 0x40 MLOAD PUSH2 0x42F SWAP2 SWAP1 PUSH2 0x4667 JUMP JUMPDEST PUSH1 0x40 MLOAD DUP1 SWAP2 SUB SWAP1 RETURN JUMPDEST PUSH2 0x452 PUSH1 0x4 DUP1 CALLDATASIZE SUB DUP2 ADD SWAP1 PUSH2 0x44D SWAP2 SWAP1 PUSH2 0x4B8D JUMP JUMPDEST PUSH2 0x14D6 JUMP JUMPDEST STOP JUMPDEST PUSH2 0x45C PUSH2 0x1622 JUMP JUMPDEST PUSH1 0x40 MLOAD PUSH2 0x469 SWAP2 SWAP1 PUSH2 0x4C7C JUMP JUMPDEST PUSH1 0x40 MLOAD DUP1 SWAP2 SUB SWAP1 RETURN JUMPDEST PUSH2 0x48C PUSH1 0x4 DUP1 CALLDATASIZE SUB DUP2 ADD SWAP1 PUSH2 0x487 SWAP2 SWAP1 PUSH2 0x4C9E JUMP JUMPDEST PUSH2 0x16B0 JUMP JUMPDEST STOP JUMPDEST PUSH2 0x4A8 PUSH1 0x4 DUP1 CALLDATASIZE SUB DUP2 ADD SWAP1 PUSH2 0x4A3 SWAP2 SWAP1 PUSH2 0x4755 JUMP JUMPDEST PUSH2 0x1885 JUMP JUMPDEST PUSH1 0x40 MLOAD PUSH2 0x4B5 SWAP2 SWAP1 PUSH2 0x4441 JUMP JUMPDEST PUSH1 0x40 MLOAD DUP1 SWAP2 SUB SWAP1 RETURN JUMPDEST PUSH2 0x4C6 PUSH2 0x18EF JUMP JUMPDEST PUSH1 0x40 MLOAD PUSH2 0x4D3 SWAP2 SWAP1 PUSH2 0x4B46 JUMP JUMPDEST PUSH1 0x40 MLOAD DUP1 SWAP2 SUB SWAP1 RETURN JUMPDEST PUSH2 0x4F6 PUSH1 0x4 DUP1 CALLDATASIZE SUB DUP2 ADD SWAP1 PUSH2 0x4F1 SWAP2 SWAP1 PUSH2 0x4CDE JUMP JUMPDEST PUSH2 0x1909 JUMP JUMPDEST STOP JUMPDEST PUSH2 0x512 PUSH1 0x4 DUP1 CALLDATASIZE SUB DUP2 ADD SWAP1 PUSH2 0x50D SWAP2 SWAP1 PUSH2 0x44BA JUMP JUMPDEST PUSH2 0x1CB1 JUMP JUMPDEST STOP JUMPDEST PUSH2 0x52E PUSH1 0x4 DUP1 CALLDATASIZE SUB DUP2 ADD SWAP1 PUSH2 0x529 SWAP2 SWAP1 PUSH2 0x44BA JUMP JUMPDEST PUSH2 0x1E3B JUMP JUMPDEST PUSH1 0x40 MLOAD PUSH2 0x53B SWAP2 SWAP1 PUSH2 0x4E1E JUMP JUMPDEST PUSH1 0x40 MLOAD DUP1 SWAP2 SUB SWAP1 RETURN JUMPDEST PUSH2 0x55E PUSH1 0x4 DUP1 CALLDATASIZE SUB DUP2 ADD SWAP1 PUSH2 0x559 SWAP2 SWAP1 PUSH2 0x44BA JUMP JUMPDEST PUSH2 0x2065 JUMP JUMPDEST STOP JUMPDEST PUSH2 0x57A PUSH1 0x4 DUP1 CALLDATASIZE SUB DUP2 ADD SWAP1 PUSH2 0x575 SWAP2 SWAP1 PUSH2 0x44BA JUMP JUMPDEST PUSH2 0x238E JUMP JUMPDEST PUSH1 0x40 MLOAD PUSH2 0x587 SWAP2 SWAP1 PUSH2 0x4E7D JUMP JUMPDEST PUSH1 0x40 MLOAD DUP1 SWAP2 SUB SWAP1 RETURN JUMPDEST PUSH2 0x598 PUSH2 0x2494 JUMP JUMPDEST PUSH1 0x40 MLOAD PUSH2 0x5A5 SWAP2 SWAP1 PUSH2 0x4667 JUMP JUMPDEST PUSH1 0x40 MLOAD DUP1 SWAP2 SUB SWAP1 RETURN JUMPDEST PUSH2 0x5B6 PUSH2 0x249B JUMP JUMPDEST PUSH1 0x40 MLOAD PUSH2 0x5C3 SWAP2 SWAP1 PUSH2 0x4C7C JUMP JUMPDEST PUSH1 0x40 MLOAD DUP1 SWAP2 SUB SWAP1 RETURN JUMPDEST PUSH2 0x5E6 PUSH1 0x4 DUP1 CALLDATASIZE SUB DUP2 ADD SWAP1 PUSH2 0x5E1 SWAP2 SWAP1 PUSH2 0x44BA JUMP JUMPDEST PUSH2 0x2529 JUMP JUMPDEST PUSH1 0x40 MLOAD PUSH2 0x5F6 SWAP5 SWAP4 SWAP3 SWAP2 SWAP1 PUSH2 0x4E9F JUMP JUMPDEST PUSH1 0x40 MLOAD DUP1 SWAP2 SUB SWAP1 RETURN JUMPDEST PUSH2 0x619 PUSH1 0x4 DUP1 CALLDATASIZE SUB DUP2 ADD SWAP1 PUSH2 0x614 SWAP2 SWAP1 PUSH2 0x44BA JUMP JUMPDEST PUSH2 0x26FE JUMP JUMPDEST PUSH1 0x40 MLOAD PUSH2 0x62B SWAP7 SWAP6 SWAP5 SWAP4 SWAP3 SWAP2 SWAP1 PUSH2 0x4EF9 JUMP JUMPDEST PUSH1 0x40 MLOAD DUP1 SWAP2 SUB SWAP1 RETURN JUMPDEST PUSH2 0x64E PUSH1 0x4 DUP1 CALLDATASIZE SUB DUP2 ADD SWAP1 PUSH2 0x649 SWAP2 SWAP1 PUSH2 0x48CA JUMP JUMPDEST PUSH2 0x290C JUMP JUMPDEST STOP JUMPDEST PUSH2 0x66A PUSH1 0x4 DUP1 CALLDATASIZE SUB DUP2 ADD SWAP1 PUSH2 0x665 SWAP2 SWAP1 PUSH2 0x4755 JUMP JUMPDEST PUSH2 0x2DB3 JUMP JUMPDEST STOP JUMPDEST PUSH2 0x686 PUSH1 0x4 DUP1 CALLDATASIZE SUB DUP2 ADD SWAP1 PUSH2 0x681 SWAP2 SWAP1 PUSH2 0x44BA JUMP JUMPDEST PUSH2 0x2DD5 JUMP JUMPDEST STOP JUMPDEST PUSH2 0x690 PUSH2 0x2F3F JUMP JUMPDEST PUSH1 0x40 MLOAD PUSH2 0x69D SWAP2 SWAP1 PUSH2 0x4667 JUMP JUMPDEST PUSH1 0x40 MLOAD DUP1 SWAP2 SUB SWAP1 RETURN JUMPDEST PUSH2 0x6C0 PUSH1 0x4 DUP1 CALLDATASIZE SUB DUP2 ADD SWAP1 PUSH2 0x6BB SWAP2 SWAP1 PUSH2 0x49F3 JUMP JUMPDEST PUSH2 0x2F63 JUMP JUMPDEST PUSH1 0x40 MLOAD PUSH2 0x6D1 SWAP6 SWAP5 SWAP4 SWAP3 SWAP2 SWAP1 PUSH2 0x4F6F JUMP JUMPDEST PUSH1 0x40 MLOAD DUP1 SWAP2 SUB SWAP1 RETURN JUMPDEST PUSH2 0x6F4 PUSH1 0x4 DUP1 CALLDATASIZE SUB DUP2 ADD SWAP1 PUSH2 0x6EF SWAP2 SWAP1 PUSH2 0x4FDE JUMP JUMPDEST PUSH2 0x3513 JUMP JUMPDEST STOP JUMPDEST PUSH2 0x6FE PUSH2 0x3736 JUMP JUMPDEST PUSH1 0x40 MLOAD PUSH2 0x70B SWAP2 SWAP1 PUSH2 0x4667 JUMP JUMPDEST PUSH1 0x40 MLOAD DUP1 SWAP2 SUB SWAP1 RETURN JUMPDEST PUSH1 0x0 PUSH32 0x7965DB0B00000000000000000000000000000000000000000000000000000000 PUSH28 0xFFFFFFFFFFFFFFFFFFFFFFFFFFFFFFFFFFFFFFFFFFFFFFFFFFFFFFFF NOT AND DUP3 PUSH28 0xFFFFFFFFFFFFFFFFFFFFFFFFFFFFFFFFFFFFFFFFFFFFFFFFFFFFFFFF NOT AND EQ DUP1 PUSH2 0x787 JUMPI POP PUSH2 0x786 DUP3 PUSH2 0x375A JUMP JUMPDEST JUMPDEST SWAP1 POP SWAP2 SWAP1 POP JUMP JUMPDEST PUSH2 0x796 PUSH2 0x429A JUMP JUMPDEST PUSH1 0x3 PUSH1 0x0 DUP4 PUSH20 0xFFFFFFFFFFFFFFFFFFFFFFFFFFFFFFFFFFFFFFFF AND PUSH20 0xFFFFFFFFFFFFFFFFFFFFFFFFFFFFFFFFFFFFFFFF AND DUP2 MSTORE PUSH1 0x20 ADD SWAP1 DUP2 MSTORE PUSH1 0x20 ADD PUSH1 0x0 KECCAK256 PUSH1 0x40 MLOAD DUP1 PUSH1 0xC0 ADD PUSH1 0x40 MSTORE SWAP1 DUP2 PUSH1 0x0 DUP3 ADD PUSH1 0x0 SWAP1 SLOAD SWAP1 PUSH2 0x100 EXP SWAP1 DIV PUSH1 0xFF AND ISZERO ISZERO ISZERO ISZERO DUP2 MSTORE PUSH1 0x20 ADD PUSH1 0x0 DUP3 ADD PUSH1 0x1 SWAP1 SLOAD SWAP1 PUSH2 0x100 EXP SWAP1 DIV PUSH1 0xFF AND ISZERO ISZERO ISZERO ISZERO DUP2 MSTORE PUSH1 0x20 ADD PUSH1 0x1 DUP3 ADD DUP1 SLOAD PUSH2 0x826 SWAP1 PUSH2 0x50C8 JUMP JUMPDEST DUP1 PUSH1 0x1F ADD PUSH1 0x20 DUP1 SWAP2 DIV MUL PUSH1 0x20 ADD PUSH1 0x40 MLOAD SWAP1 DUP2 ADD PUSH1 0x40 MSTORE DUP1 SWAP3 SWAP2 SWAP1 DUP2 DUP2 MSTORE PUSH1 0x20 ADD DUP3 DUP1 SLOAD PUSH2 0x852 SWAP1 PUSH2 0x50C8 JUMP JUMPDEST DUP1 ISZERO PUSH2 0x89F JUMPI DUP1 PUSH1 0x1F LT PUSH2 0x874 JUMPI PUSH2 0x100 DUP1 DUP4 SLOAD DIV MUL DUP4 MSTORE SWAP2 PUSH1 0x20 ADD SWAP2 PUSH2 0x89F JUMP JUMPDEST DUP3 ADD SWAP2 SWAP1 PUSH1 0x0 MSTORE PUSH1 0x20 PUSH1 0x0 KECCAK256 SWAP1 JUMPDEST DUP2 SLOAD DUP2 MSTORE SWAP1 PUSH1 0x1 ADD SWAP1 PUSH1 0x20 ADD DUP1 DUP4 GT PUSH2 0x882 JUMPI DUP3 SWAP1 SUB PUSH1 0x1F AND DUP3 ADD SWAP2 JUMPDEST POP POP POP POP POP DUP2 MSTORE PUSH1 0x20 ADD PUSH1 0x2 DUP3 ADD DUP1 SLOAD PUSH2 0x8B8 SWAP1 PUSH2 0x50C8 JUMP JUMPDEST DUP1 PUSH1 0x1F ADD PUSH1 0x20 DUP1 SWAP2 DIV MUL PUSH1 0x20 ADD PUSH1 0x40 MLOAD SWAP1 DUP2 ADD PUSH1 0x40 MSTORE DUP1 SWAP3 SWAP2 SWAP1 DUP2 DUP2 MSTORE PUSH1 0x20 ADD DUP3 DUP1 SLOAD PUSH2 0x8E4 SWAP1 PUSH2 0x50C8 JUMP JUMPDEST DUP1 ISZERO PUSH2 0x931 JUMPI DUP1 PUSH1 0x1F LT PUSH2 0x906 JUMPI PUSH2 0x100 DUP1 DUP4 SLOAD DIV MUL DUP4 MSTORE SWAP2 PUSH1 0x20 ADD SWAP2 PUSH2 0x931 JUMP JUMPDEST DUP3 ADD SWAP2 SWAP1 PUSH1 0x0 MSTORE PUSH1 0x20 PUSH1 0x0 KECCAK256 SWAP1 JUMPDEST DUP2 SLOAD DUP2 MSTORE SWAP1 PUSH1 0x1 ADD SWAP1 PUSH1 0x20 ADD DUP1 DUP4 GT PUSH2 0x914 JUMPI DUP3 SWAP1 SUB PUSH1 0x1F AND DUP3 ADD SWAP2 JUMPDEST POP POP POP POP POP DUP2 MSTORE PUSH1 0x20 ADD PUSH1 0x3 DUP3 ADD DUP1 SLOAD PUSH2 0x94A SWAP1 PUSH2 0x50C8 JUMP JUMPDEST DUP1 PUSH1 0x1F ADD PUSH1 0x20 DUP1 SWAP2 DIV MUL PUSH1 0x20 ADD PUSH1 0x40 MLOAD SWAP1 DUP2 ADD PUSH1 0x40 MSTORE DUP1 SWAP3 SWAP2 SWAP1 DUP2 DUP2 MSTORE PUSH1 0x20 ADD DUP3 DUP1 SLOAD PUSH2 0x976 SWAP1 PUSH2 0x50C8 JUMP JUMPDEST DUP1 ISZERO PUSH2 0x9C3 JUMPI DUP1 PUSH1 0x1F LT PUSH2 0x998 JUMPI PUSH2 0x100 DUP1 DUP4 SLOAD DIV MUL DUP4 MSTORE SWAP2 PUSH1 0x20 ADD SWAP2 PUSH2 0x9C3 JUMP JUMPDEST DUP3 ADD SWAP2 SWAP1 PUSH1 0x0 MSTORE PUSH1 0x20 PUSH1 0x0 KECCAK256 SWAP1 JUMPDEST DUP2 SLOAD DUP2 MSTORE SWAP1 PUSH1 0x1 ADD SWAP1 PUSH1 0x20 ADD DUP1 DUP4 GT PUSH2 0x9A6 JUMPI DUP3 SWAP1 SUB PUSH1 0x1F AND DUP3 ADD SWAP2 JUMPDEST POP POP POP POP POP DUP2 MSTORE PUSH1 0x20 ADD PUSH1 0x4 DUP3 ADD PUSH1 0x0 SWAP1 SLOAD SWAP1 PUSH2 0x100 EXP SWAP1 DIV PUSH20 0xFFFFFFFFFFFFFFFFFFFFFFFFFFFFFFFFFFFFFFFF AND PUSH20 0xFFFFFFFFFFFFFFFFFFFFFFFFFFFFFFFFFFFFFFFF AND PUSH20 0xFFFFFFFFFFFFFFFFFFFFFFFFFFFFFFFFFFFFFFFF AND DUP2 MSTORE POP POP SWAP1 POP SWAP2 SWAP1 POP JUMP JUMPDEST PUSH32 0x14823911F2DA1B49F045A0929A60B8C1F2A7FC8C06C7284CA3E8AB4E193A08C8 DUP2 JUMP JUMPDEST PUSH1 0x2 PUSH1 0x20 MSTORE DUP1 PUSH1 0x0 MSTORE PUSH1 0x40 PUSH1 0x0 KECCAK256 PUSH1 0x0 SWAP2 POP SWAP1 POP DUP1 PUSH1 0x0 ADD PUSH1 0x0 SWAP1 SLOAD SWAP1 PUSH2 0x100 EXP SWAP1 DIV PUSH1 0xFF AND SWAP1 DUP1 PUSH1 0x1 ADD DUP1 SLOAD PUSH2 0xA83 SWAP1 PUSH2 0x50C8 JUMP JUMPDEST DUP1 PUSH1 0x1F ADD PUSH1 0x20 DUP1 SWAP2 DIV MUL PUSH1 0x20 ADD PUSH1 0x40 MLOAD SWAP1 DUP2 ADD PUSH1 0x40 MSTORE DUP1 SWAP3 SWAP2 SWAP1 DUP2 DUP2 MSTORE PUSH1 0x20 ADD DUP3 DUP1 SLOAD PUSH2 0xAAF SWAP1 PUSH2 0x50C8 JUMP JUMPDEST DUP1 ISZERO PUSH2 0xAFC JUMPI DUP1 PUSH1 0x1F LT PUSH2 0xAD1 JUMPI PUSH2 0x100 DUP1 DUP4 SLOAD DIV MUL DUP4 MSTORE SWAP2 PUSH1 0x20 ADD SWAP2 PUSH2 0xAFC JUMP JUMPDEST DUP3 ADD SWAP2 SWAP1 PUSH1 0x0 MSTORE PUSH1 0x20 PUSH1 0x0 KECCAK256 SWAP1 JUMPDEST DUP2 SLOAD DUP2 MSTORE SWAP1 PUSH1 0x1 ADD SWAP1 PUSH1 0x20 ADD DUP1 DUP4 GT PUSH2 0xADF JUMPI DUP3 SWAP1 SUB PUSH1 0x1F AND DUP3 ADD SWAP2 JUMPDEST POP POP POP POP POP SWAP1 POP DUP3 JUMP JUMPDEST PUSH1 0x0 DUP1 PUSH1 0x0 DUP4 DUP2 MSTORE PUSH1 0x20 ADD SWAP1 DUP2 MSTORE PUSH1 0x20 ADD PUSH1 0x0 KECCAK256 PUSH1 0x1 ADD SLOAD SWAP1 POP SWAP2 SWAP1 POP JUMP JUMPDEST PUSH2 0xB2E DUP3 PUSH2 0xB06 JUMP JUMPDEST PUSH2 0xB37 DUP2 PUSH2 0x37C4 JUMP JUMPDEST PUSH2 0xB41 DUP4 DUP4 PUSH2 0x37D8 JUMP JUMPDEST POP POP POP POP JUMP JUMPDEST PUSH2 0xB71 PUSH32 0xC8F5B4140CCA307CD927E59CBEEA8291BFFEEE228FC677F0FA059AEF7B4DD8D5 CALLER PUSH2 0x1885 JUMP JUMPDEST PUSH2 0xBB0 JUMPI PUSH1 0x40 MLOAD PUSH32 0x8C379A000000000000000000000000000000000000000000000000000000000 DUP2 MSTORE PUSH1 0x4 ADD PUSH2 0xBA7 SWAP1 PUSH2 0x5145 JUMP JUMPDEST PUSH1 0x40 MLOAD DUP1 SWAP2 SUB SWAP1 REVERT JUMPDEST PUSH1 0x2 PUSH1 0x0 DUP4 PUSH20 0xFFFFFFFFFFFFFFFFFFFFFFFFFFFFFFFFFFFFFFFF AND PUSH20 0xFFFFFFFFFFFFFFFFFFFFFFFFFFFFFFFFFFFFFFFF AND DUP2 MSTORE PUSH1 0x20 ADD SWAP1 DUP2 MSTORE PUSH1 0x20 ADD PUSH1 0x0 KECCAK256 PUSH1 0x0 ADD PUSH1 0x0 SWAP1 SLOAD SWAP1 PUSH2 0x100 EXP SWAP1 DIV PUSH1 0xFF AND ISZERO PUSH2 0xC40 JUMPI PUSH1 0x40 MLOAD PUSH32 0x8C379A000000000000000000000000000000000000000000000000000000000 DUP2 MSTORE PUSH1 0x4 ADD PUSH2 0xC37 SWAP1 PUSH2 0x51B1 JUMP JUMPDEST PUSH1 0x40 MLOAD DUP1 SWAP2 SUB SWAP1 REVERT JUMPDEST PUSH1 0x40 MLOAD DUP1 PUSH1 0x40 ADD PUSH1 0x40 MSTORE DUP1 PUSH1 0x1 ISZERO ISZERO DUP2 MSTORE PUSH1 0x20 ADD DUP3 DUP2 MSTORE POP PUSH1 0x2 PUSH1 0x0 DUP5 PUSH20 0xFFFFFFFFFFFFFFFFFFFFFFFFFFFFFFFFFFFFFFFF AND PUSH20 0xFFFFFFFFFFFFFFFFFFFFFFFFFFFFFFFFFFFFFFFF AND DUP2 MSTORE PUSH1 0x20 ADD SWAP1 DUP2 MSTORE PUSH1 0x20 ADD PUSH1 0x0 KECCAK256 PUSH1 0x0 DUP3 ADD MLOAD DUP2 PUSH1 0x0 ADD PUSH1 0x0 PUSH2 0x100 EXP DUP2 SLOAD DUP2 PUSH1 0xFF MUL NOT AND SWAP1 DUP4 ISZERO ISZERO MUL OR SWAP1 SSTORE POP PUSH1 0x20 DUP3 ADD MLOAD DUP2 PUSH1 0x1 ADD SWAP1 DUP2 PUSH2 0xCCC SWAP2 SWAP1 PUSH2 0x537D JUMP JUMPDEST POP SWAP1 POP POP PUSH2 0xCFA PUSH32 0xC8F5B4140CCA307CD927E59CBEEA8291BFFEEE228FC677F0FA059AEF7B4DD8D5 DUP4 PUSH2 0x37D8 JUMP JUMPDEST POP POP POP JUMP JUMPDEST PUSH2 0xD07 PUSH2 0x38C9 JUMP JUMPDEST PUSH20 0xFFFFFFFFFFFFFFFFFFFFFFFFFFFFFFFFFFFFFFFF AND DUP2 PUSH20 0xFFFFFFFFFFFFFFFFFFFFFFFFFFFFFFFFFFFFFFFF AND EQ PUSH2 0xD6B JUMPI PUSH1 0x40 MLOAD PUSH32 0x6697B23200000000000000000000000000000000000000000000000000000000 DUP2 MSTORE PUSH1 0x4 ADD PUSH1 0x40 MLOAD DUP1 SWAP2 SUB SWAP1 REVERT JUMPDEST PUSH2 0xD75 DUP3 DUP3 PUSH2 0x38D1 JUMP JUMPDEST POP POP POP JUMP JUMPDEST PUSH1 0x7 DUP2 DUP2 SLOAD DUP2 LT PUSH2 0xD8A JUMPI PUSH1 0x0 DUP1 REVERT JUMPDEST SWAP1 PUSH1 0x0 MSTORE PUSH1 0x20 PUSH1 0x0 KECCAK256 ADD PUSH1 0x0 SWAP2 POP SLOAD SWAP1 PUSH2 0x100 EXP SWAP1 DIV PUSH20 0xFFFFFFFFFFFFFFFFFFFFFFFFFFFFFFFFFFFFFFFF AND DUP2 JUMP JUMPDEST PUSH1 0x6 PUSH1 0x20 MSTORE DUP1 PUSH1 0x0 MSTORE PUSH1 0x40 PUSH1 0x0 KECCAK256 PUSH1 0x0 SWAP2 POP SWAP1 POP DUP1 PUSH1 0x0 ADD PUSH1 0x0 SWAP1 SLOAD SWAP1 PUSH2 0x100 EXP SWAP1 DIV PUSH8 0xFFFFFFFFFFFFFFFF AND SWAP1 DUP1 PUSH1 0x0 ADD PUSH1 0x8 SWAP1 SLOAD SWAP1 PUSH2 0x100 EXP SWAP1 DIV PUSH20 0xFFFFFFFFFFFFFFFFFFFFFFFFFFFFFFFFFFFFFFFF AND SWAP1 DUP1 PUSH1 0x1 ADD PUSH1 0x0 SWAP1 SLOAD SWAP1 PUSH2 0x100 EXP SWAP1 DIV PUSH20 0xFFFFFFFFFFFFFFFFFFFFFFFFFFFFFFFFFFFFFFFF AND SWAP1 DUP1 PUSH1 0x2 ADD PUSH1 0x0 SWAP1 SLOAD SWAP1 PUSH2 0x100 EXP SWAP1 DIV PUSH20 0xFFFFFFFFFFFFFFFFFFFFFFFFFFFFFFFFFFFFFFFF AND SWAP1 DUP1 PUSH1 0x3 ADD DUP1 SLOAD PUSH2 0xE68 SWAP1 PUSH2 0x50C8 JUMP JUMPDEST DUP1 PUSH1 0x1F ADD PUSH1 0x20 DUP1 SWAP2 DIV MUL PUSH1 0x20 ADD PUSH1 0x40 MLOAD SWAP1 DUP2 ADD PUSH1 0x40 MSTORE DUP1 SWAP3 SWAP2 SWAP1 DUP2 DUP2 MSTORE PUSH1 0x20 ADD DUP3 DUP1 SLOAD PUSH2 0xE94 SWAP1 PUSH2 0x50C8 JUMP JUMPDEST DUP1 ISZERO PUSH2 0xEE1 JUMPI DUP1 PUSH1 0x1F LT PUSH2 0xEB6 JUMPI PUSH2 0x100 DUP1 DUP4 SLOAD DIV MUL DUP4 MSTORE SWAP2 PUSH1 0x20 ADD SWAP2 PUSH2 0xEE1 JUMP JUMPDEST DUP3 ADD SWAP2 SWAP1 PUSH1 0x0 MSTORE PUSH1 0x20 PUSH1 0x0 KECCAK256 SWAP1 JUMPDEST DUP2 SLOAD DUP2 MSTORE SWAP1 PUSH1 0x1 ADD SWAP1 PUSH1 0x20 ADD DUP1 DUP4 GT PUSH2 0xEC4 JUMPI DUP3 SWAP1 SUB PUSH1 0x1F AND DUP3 ADD SWAP2 JUMPDEST POP POP POP POP POP SWAP1 DUP1 PUSH1 0x4 ADD PUSH1 0x0 SWAP1 SLOAD SWAP1 PUSH2 0x100 EXP SWAP1 DIV PUSH1 0xFF AND SWAP1 DUP1 PUSH1 0x4 ADD PUSH1 0x1 SWAP1 SLOAD SWAP1 PUSH2 0x100 EXP SWAP1 DIV PUSH1 0xFF AND SWAP1 DUP1 PUSH1 0x5 ADD SLOAD SWAP1 POP DUP9 JUMP JUMPDEST PUSH2 0xF41 PUSH32 0xAF1DAC7DEA2FD7F7738119CEC7DF099DFAD49AA9D2E7D17BA6B60F63AE7411F DUP6 PUSH2 0x1885 JUMP JUMPDEST PUSH2 0xF80 JUMPI PUSH1 0x40 MLOAD PUSH32 0x8C379A000000000000000000000000000000000000000000000000000000000 DUP2 MSTORE PUSH1 0x4 ADD PUSH2 0xF77 SWAP1 PUSH2 0x549B JUMP JUMPDEST PUSH1 0x40 MLOAD DUP1 SWAP2 SUB SWAP1 REVERT JUMPDEST PUSH1 0x3 PUSH1 0x0 DUP6 PUSH20 0xFFFFFFFFFFFFFFFFFFFFFFFFFFFFFFFFFFFFFFFF AND PUSH20 0xFFFFFFFFFFFFFFFFFFFFFFFFFFFFFFFFFFFFFFFF AND DUP2 MSTORE PUSH1 0x20 ADD SWAP1 DUP2 MSTORE PUSH1 0x20 ADD PUSH1 0x0 KECCAK256 PUSH1 0x0 ADD PUSH1 0x1 SWAP1 SLOAD SWAP1 PUSH2 0x100 EXP SWAP1 DIV PUSH1 0xFF AND PUSH2 0x100F JUMPI PUSH1 0x40 MLOAD PUSH32 0x8C379A000000000000000000000000000000000000000000000000000000000 DUP2 MSTORE PUSH1 0x4 ADD PUSH2 0x1006 SWAP1 PUSH2 0x5507 JUMP JUMPDEST PUSH1 0x40 MLOAD DUP1 SWAP2 SUB SWAP1 REVERT JUMPDEST DUP2 PUSH20 0xFFFFFFFFFFFFFFFFFFFFFFFFFFFFFFFFFFFFFFFF AND PUSH1 0x3 PUSH1 0x0 DUP7 PUSH20 0xFFFFFFFFFFFFFFFFFFFFFFFFFFFFFFFFFFFFFFFF AND PUSH20 0xFFFFFFFFFFFFFFFFFFFFFFFFFFFFFFFFFFFFFFFF AND DUP2 MSTORE PUSH1 0x20 ADD SWAP1 DUP2 MSTORE PUSH1 0x20 ADD PUSH1 0x0 KECCAK256 PUSH1 0x4 ADD PUSH1 0x0 SWAP1 SLOAD SWAP1 PUSH2 0x100 EXP SWAP1 DIV PUSH20 0xFFFFFFFFFFFFFFFFFFFFFFFFFFFFFFFFFFFFFFFF AND PUSH20 0xFFFFFFFFFFFFFFFFFFFFFFFFFFFFFFFFFFFFFFFF AND EQ PUSH2 0x10DF JUMPI PUSH1 0x40 MLOAD PUSH32 0x8C379A000000000000000000000000000000000000000000000000000000000 DUP2 MSTORE PUSH1 0x4 ADD PUSH2 0x10D6 SWAP1 PUSH2 0x5599 JUMP JUMPDEST PUSH1 0x40 MLOAD DUP1 SWAP2 SUB SWAP1 REVERT JUMPDEST PUSH1 0x0 PUSH2 0x10ED DUP5 DUP7 DUP6 DUP6 PUSH2 0x39C3 JUMP JUMPDEST SWAP1 POP PUSH1 0x6 PUSH1 0x0 DUP3 PUSH8 0xFFFFFFFFFFFFFFFF AND PUSH8 0xFFFFFFFFFFFFFFFF AND DUP2 MSTORE PUSH1 0x20 ADD SWAP1 DUP2 MSTORE PUSH1 0x20 ADD PUSH1 0x0 KECCAK256 PUSH1 0x4 ADD PUSH1 0x0 SWAP1 SLOAD SWAP1 PUSH2 0x100 EXP SWAP1 DIV PUSH1 0xFF AND PUSH2 0x1166 JUMPI PUSH1 0x40 MLOAD PUSH32 0x8C379A000000000000000000000000000000000000000000000000000000000 DUP2 MSTORE PUSH1 0x4 ADD PUSH2 0x115D SWAP1 PUSH2 0x5605 JUMP JUMPDEST PUSH1 0x40 MLOAD DUP1 SWAP2 SUB SWAP1 REVERT JUMPDEST PUSH1 0x0 PUSH2 0x1171 DUP7 PUSH2 0x78E JUMP JUMPDEST SWAP1 POP PUSH1 0x0 PUSH2 0x117E DUP7 PUSH2 0x1E3B JUMP JUMPDEST SWAP1 POP PUSH1 0x0 PUSH2 0x118B DUP7 PUSH2 0x238E JUMP JUMPDEST SWAP1 POP PUSH1 0x0 PUSH1 0x1 PUSH1 0x0 SWAP1 SLOAD SWAP1 PUSH2 0x100 EXP SWAP1 DIV PUSH8 0xFFFFFFFFFFFFFFFF AND SWAP1 POP PUSH1 0x1 PUSH1 0x0 DUP2 DUP2 SWAP1 SLOAD SWAP1 PUSH2 0x100 EXP SWAP1 DIV PUSH8 0xFFFFFFFFFFFFFFFF AND DUP1 SWAP3 SWAP2 SWAP1 PUSH2 0x11CE SWAP1 PUSH2 0x5654 JUMP JUMPDEST SWAP2 SWAP1 PUSH2 0x100 EXP DUP2 SLOAD DUP2 PUSH8 0xFFFFFFFFFFFFFFFF MUL NOT AND SWAP1 DUP4 PUSH8 0xFFFFFFFFFFFFFFFF AND MUL OR SWAP1 SSTORE POP POP PUSH1 0x40 MLOAD DUP1 PUSH1 0xA0 ADD PUSH1 0x40 MSTORE DUP1 DUP3 PUSH8 0xFFFFFFFFFFFFFFFF AND DUP2 MSTORE PUSH1 0x20 ADD DUP6 DUP2 MSTORE PUSH1 0x20 ADD DUP5 DUP2 MSTORE PUSH1 0x20 ADD DUP4 DUP2 MSTORE PUSH1 0x20 ADD DUP8 DUP2 MSTORE POP PUSH1 0x5 PUSH1 0x0 DUP4 PUSH8 0xFFFFFFFFFFFFFFFF AND PUSH8 0xFFFFFFFFFFFFFFFF AND DUP2 MSTORE PUSH1 0x20 ADD SWAP1 DUP2 MSTORE PUSH1 0x20 ADD PUSH1 0x0 KECCAK256 PUSH1 0x0 DUP3 ADD MLOAD DUP2 PUSH1 0x0 ADD PUSH1 0x0 PUSH2 0x100 EXP DUP2 SLOAD DUP2 PUSH8 0xFFFFFFFFFFFFFFFF MUL NOT AND SWAP1 DUP4 PUSH8 0xFFFFFFFFFFFFFFFF AND MUL OR SWAP1 SSTORE POP PUSH1 0x20 DUP3 ADD MLOAD DUP2 PUSH1 0x1 ADD PUSH1 0x0 DUP3 ADD MLOAD DUP2 PUSH1 0x0 ADD PUSH1 0x0 PUSH2 0x100 EXP DUP2 SLOAD DUP2 PUSH1 0xFF MUL NOT AND SWAP1 DUP4 ISZERO ISZERO MUL OR SWAP1 SSTORE POP PUSH1 0x20 DUP3 ADD MLOAD DUP2 PUSH1 0x0 ADD PUSH1 0x1 PUSH2 0x100 EXP DUP2 SLOAD DUP2 PUSH1 0xFF MUL NOT AND SWAP1 DUP4 ISZERO ISZERO MUL OR SWAP1 SSTORE POP PUSH1 0x40 DUP3 ADD MLOAD DUP2 PUSH1 0x1 ADD SWAP1 DUP2 PUSH2 0x12DA SWAP2 SWAP1 PUSH2 0x537D JUMP JUMPDEST POP PUSH1 0x60 DUP3 ADD MLOAD DUP2 PUSH1 0x2 ADD SWAP1 DUP2 PUSH2 0x12F0 SWAP2 SWAP1 PUSH2 0x537D JUMP JUMPDEST POP PUSH1 0x80 DUP3 ADD MLOAD DUP2 PUSH1 0x3 ADD SWAP1 DUP2 PUSH2 0x1306 SWAP2 SWAP1 PUSH2 0x537D JUMP JUMPDEST POP PUSH1 0xA0 DUP3 ADD MLOAD DUP2 PUSH1 0x4 ADD PUSH1 0x0 PUSH2 0x100 EXP DUP2 SLOAD DUP2 PUSH20 0xFFFFFFFFFFFFFFFFFFFFFFFFFFFFFFFFFFFFFFFF MUL NOT AND SWAP1 DUP4 PUSH20 0xFFFFFFFFFFFFFFFFFFFFFFFFFFFFFFFFFFFFFFFF AND MUL OR SWAP1 SSTORE POP POP POP PUSH1 0x40 DUP3 ADD MLOAD DUP2 PUSH1 0x6 ADD PUSH1 0x0 DUP3 ADD MLOAD DUP2 PUSH1 0x0 ADD PUSH1 0x0 PUSH2 0x100 EXP DUP2 SLOAD DUP2 PUSH1 0xFF MUL NOT AND SWAP1 DUP4 ISZERO ISZERO MUL OR SWAP1 SSTORE POP PUSH1 0x20 DUP3 ADD MLOAD DUP2 PUSH1 0x1 ADD SWAP1 DUP2 PUSH2 0x138E SWAP2 SWAP1 PUSH2 0x537D JUMP JUMPDEST POP PUSH1 0x40 DUP3 ADD MLOAD DUP2 PUSH1 0x2 ADD SWAP1 DUP2 PUSH2 0x13A4 SWAP2 SWAP1 PUSH2 0x537D JUMP JUMPDEST POP PUSH1 0x60 DUP3 ADD MLOAD DUP2 PUSH1 0x3 ADD SWAP1 DUP2 PUSH2 0x13BA SWAP2 SWAP1 PUSH2 0x537D JUMP JUMPDEST POP POP POP PUSH1 0x60 DUP3 ADD MLOAD DUP2 PUSH1 0xA ADD PUSH1 0x0 DUP3 ADD MLOAD DUP2 PUSH1 0x0 ADD PUSH1 0x0 PUSH2 0x100 EXP DUP2 SLOAD DUP2 PUSH1 0xFF MUL NOT AND SWAP1 DUP4 ISZERO ISZERO MUL OR SWAP1 SSTORE POP PUSH1 0x20 DUP3 ADD MLOAD DUP2 PUSH1 0x1 ADD SWAP1 DUP2 PUSH2 0x13FB SWAP2 SWAP1 PUSH2 0x537D JUMP JUMPDEST POP POP POP PUSH1 0x80 DUP3 ADD MLOAD DUP2 PUSH1 0xC ADD SWAP1 DUP2 PUSH2 0x1413 SWAP2 SWAP1 PUSH2 0x537D JUMP JUMPDEST POP SWAP1 POP POP PUSH32 0x541D7786D4C8DABB0D781252E2F318A55F659E7C98C068E7CC1337640B8F7550 DUP2 PUSH1 0x40 MLOAD PUSH2 0x1446 SWAP2 SWAP1 PUSH2 0x4B46 JUMP JUMPDEST PUSH1 0x40 MLOAD DUP1 SWAP2 SUB SWAP1 LOG1 POP POP POP POP POP POP POP POP POP JUMP JUMPDEST PUSH1 0x8 DUP2 DUP2 SLOAD DUP2 LT PUSH2 0x1469 JUMPI PUSH1 0x0 DUP1 REVERT JUMPDEST SWAP1 PUSH1 0x0 MSTORE PUSH1 0x20 PUSH1 0x0 KECCAK256 ADD PUSH1 0x0 SWAP2 POP SLOAD SWAP1 PUSH2 0x100 EXP SWAP1 DIV PUSH20 0xFFFFFFFFFFFFFFFFFFFFFFFFFFFFFFFFFFFFFFFF AND DUP2 JUMP JUMPDEST PUSH1 0x1 PUSH1 0x0 SWAP1 SLOAD SWAP1 PUSH2 0x100 EXP SWAP1 DIV PUSH8 0xFFFFFFFFFFFFFFFF AND DUP2 JUMP JUMPDEST PUSH32 0xA49807205CE4D355092EF5A8A18F56E8913CF4A201FBE287825B095693C21775 DUP2 JUMP JUMPDEST PUSH1 0x0 PUSH1 0x6 PUSH1 0x0 DUP5 PUSH8 0xFFFFFFFFFFFFFFFF AND PUSH8 0xFFFFFFFFFFFFFFFF AND DUP2 MSTORE PUSH1 0x20 ADD SWAP1 DUP2 MSTORE PUSH1 0x20 ADD PUSH1 0x0 KECCAK256 SWAP1 POP DUP1 PUSH1 0x4 ADD PUSH1 0x1 SWAP1 SLOAD SWAP1 PUSH2 0x100 EXP SWAP1 DIV PUSH1 0xFF AND PUSH2 0x1552 JUMPI PUSH1 0x40 MLOAD PUSH32 0x8C379A000000000000000000000000000000000000000000000000000000000 DUP2 MSTORE PUSH1 0x4 ADD PUSH2 0x1549 SWAP1 PUSH2 0x56D0 JUMP JUMPDEST PUSH1 0x40 MLOAD DUP1 SWAP2 SUB SWAP1 REVERT JUMPDEST CALLER PUSH20 0xFFFFFFFFFFFFFFFFFFFFFFFFFFFFFFFFFFFFFFFF AND DUP2 PUSH1 0x1 ADD PUSH1 0x0 SWAP1 SLOAD SWAP1 PUSH2 0x100 EXP SWAP1 DIV PUSH20 0xFFFFFFFFFFFFFFFFFFFFFFFFFFFFFFFFFFFFFFFF AND PUSH20 0xFFFFFFFFFFFFFFFFFFFFFFFFFFFFFFFFFFFFFFFF AND EQ PUSH2 0x15E4 JUMPI PUSH1 0x40 MLOAD PUSH32 0x8C379A000000000000000000000000000000000000000000000000000000000 DUP2 MSTORE PUSH1 0x4 ADD PUSH2 0x15DB SWAP1 PUSH2 0x5762 JUMP JUMPDEST PUSH1 0x40 MLOAD DUP1 SWAP2 SUB SWAP1 REVERT JUMPDEST DUP2 DUP2 PUSH1 0x4 ADD PUSH1 0x0 PUSH2 0x100 EXP DUP2 SLOAD DUP2 PUSH1 0xFF MUL NOT AND SWAP1 DUP4 ISZERO ISZERO MUL OR SWAP1 SSTORE POP PUSH1 0x0 DUP2 PUSH1 0x4 ADD PUSH1 0x1 PUSH2 0x100 EXP DUP2 SLOAD DUP2 PUSH1 0xFF MUL NOT AND SWAP1 DUP4 ISZERO ISZERO MUL OR SWAP1 SSTORE POP POP POP POP JUMP JUMPDEST PUSH1 0x60 PUSH1 0x7 DUP1 SLOAD DUP1 PUSH1 0x20 MUL PUSH1 0x20 ADD PUSH1 0x40 MLOAD SWAP1 DUP2 ADD PUSH1 0x40 MSTORE DUP1 SWAP3 SWAP2 SWAP1 DUP2 DUP2 MSTORE PUSH1 0x20 ADD DUP3 DUP1 SLOAD DUP1 ISZERO PUSH2 0x16A6 JUMPI PUSH1 0x20 MUL DUP3 ADD SWAP2 SWAP1 PUSH1 0x0 MSTORE PUSH1 0x20 PUSH1 0x0 KECCAK256 SWAP1 JUMPDEST DUP2 PUSH1 0x0 SWAP1 SLOAD SWAP1 PUSH2 0x100 EXP SWAP1 DIV PUSH20 0xFFFFFFFFFFFFFFFFFFFFFFFFFFFFFFFFFFFFFFFF AND PUSH20 0xFFFFFFFFFFFFFFFFFFFFFFFFFFFFFFFFFFFFFFFF AND DUP2 MSTORE PUSH1 0x20 ADD SWAP1 PUSH1 0x1 ADD SWAP1 DUP1 DUP4 GT PUSH2 0x165C JUMPI JUMPDEST POP POP POP POP POP SWAP1 POP SWAP1 JUMP JUMPDEST PUSH2 0x16DA PUSH32 0xC8F5B4140CCA307CD927E59CBEEA8291BFFEEE228FC677F0FA059AEF7B4DD8D5 CALLER PUSH2 0x1885 JUMP JUMPDEST DUP1 PUSH2 0x170B JUMPI POP PUSH2 0x170A PUSH32 0xA49807205CE4D355092EF5A8A18F56E8913CF4A201FBE287825B095693C21775 CALLER PUSH2 0x1885 JUMP JUMPDEST JUMPDEST PUSH2 0x174A JUMPI PUSH1 0x40 MLOAD PUSH32 0x8C379A000000000000000000000000000000000000000000000000000000000 DUP2 MSTORE PUSH1 0x4 ADD PUSH2 0x1741 SWAP1 PUSH2 0x57CE JUMP JUMPDEST PUSH1 0x40 MLOAD DUP1 SWAP2 SUB SWAP1 REVERT JUMPDEST PUSH1 0x3 PUSH1 0x0 DUP4 PUSH20 0xFFFFFFFFFFFFFFFFFFFFFFFFFFFFFFFFFFFFFFFF AND PUSH20 0xFFFFFFFFFFFFFFFFFFFFFFFFFFFFFFFFFFFFFFFF AND DUP2 MSTORE PUSH1 0x20 ADD SWAP1 DUP2 MSTORE PUSH1 0x20 ADD PUSH1 0x0 KECCAK256 PUSH1 0x0 ADD PUSH1 0x0 SWAP1 SLOAD SWAP1 PUSH2 0x100 EXP SWAP1 DIV PUSH1 0xFF AND PUSH2 0x17D9 JUMPI PUSH1 0x40 MLOAD PUSH32 0x8C379A000000000000000000000000000000000000000000000000000000000 DUP2 MSTORE PUSH1 0x4 ADD PUSH2 0x17D0 SWAP1 PUSH2 0x583A JUMP JUMPDEST PUSH1 0x40 MLOAD DUP1 SWAP2 SUB SWAP1 REVERT JUMPDEST DUP1 PUSH1 0x3 PUSH1 0x0 DUP5 PUSH20 0xFFFFFFFFFFFFFFFFFFFFFFFFFFFFFFFFFFFFFFFF AND PUSH20 0xFFFFFFFFFFFFFFFFFFFFFFFFFFFFFFFFFFFFFFFF AND DUP2 MSTORE PUSH1 0x20 ADD SWAP1 DUP2 MSTORE PUSH1 0x20 ADD PUSH1 0x0 KECCAK256 PUSH1 0x0 ADD PUSH1 0x1 PUSH2 0x100 EXP DUP2 SLOAD DUP2 PUSH1 0xFF MUL NOT AND SWAP1 DUP4 ISZERO ISZERO MUL OR SWAP1 SSTORE POP DUP2 PUSH20 0xFFFFFFFFFFFFFFFFFFFFFFFFFFFFFFFFFFFFFFFF AND PUSH32 0xA638CB51BC7AF9950D0B4B97E6E079AD47517C071824A48B815BE8112ECB87AB DUP3 PUSH1 0x40 MLOAD PUSH2 0x1879 SWAP2 SWAP1 PUSH2 0x4441 JUMP JUMPDEST PUSH1 0x40 MLOAD DUP1 SWAP2 SUB SWAP1 LOG2 POP POP JUMP JUMPDEST PUSH1 0x0 DUP1 PUSH1 0x0 DUP5 DUP2 MSTORE PUSH1 0x20 ADD SWAP1 DUP2 MSTORE PUSH1 0x20 ADD PUSH1 0x0 KECCAK256 PUSH1 0x0 ADD PUSH1 0x0 DUP4 PUSH20 0xFFFFFFFFFFFFFFFFFFFFFFFFFFFFFFFFFFFFFFFF AND PUSH20 0xFFFFFFFFFFFFFFFFFFFFFFFFFFFFFFFFFFFFFFFF AND DUP2 MSTORE PUSH1 0x20 ADD SWAP1 DUP2 MSTORE PUSH1 0x20 ADD PUSH1 0x0 KECCAK256 PUSH1 0x0 SWAP1 SLOAD SWAP1 PUSH2 0x100 EXP SWAP1 DIV PUSH1 0xFF AND SWAP1 POP SWAP3 SWAP2 POP POP JUMP JUMPDEST PUSH1 0x1 PUSH1 0x8 SWAP1 SLOAD SWAP1 PUSH2 0x100 EXP SWAP1 DIV PUSH8 0xFFFFFFFFFFFFFFFF AND DUP2 JUMP JUMPDEST PUSH2 0x1933 PUSH32 0xC8F5B4140CCA307CD927E59CBEEA8291BFFEEE228FC677F0FA059AEF7B4DD8D5 CALLER PUSH2 0x1885 JUMP JUMPDEST PUSH2 0x1972 JUMPI PUSH1 0x40 MLOAD PUSH32 0x8C379A000000000000000000000000000000000000000000000000000000000 DUP2 MSTORE PUSH1 0x4 ADD PUSH2 0x1969 SWAP1 PUSH2 0x5145 JUMP JUMPDEST PUSH1 0x40 MLOAD DUP1 SWAP2 SUB SWAP1 REVERT JUMPDEST PUSH1 0x3 PUSH1 0x0 DUP7 PUSH20 0xFFFFFFFFFFFFFFFFFFFFFFFFFFFFFFFFFFFFFFFF AND PUSH20 0xFFFFFFFFFFFFFFFFFFFFFFFFFFFFFFFFFFFFFFFF AND DUP2 MSTORE PUSH1 0x20 ADD SWAP1 DUP2 MSTORE PUSH1 0x20 ADD PUSH1 0x0 KECCAK256 PUSH1 0x0 ADD PUSH1 0x0 SWAP1 SLOAD SWAP1 PUSH2 0x100 EXP SWAP1 DIV PUSH1 0xFF AND ISZERO PUSH2 0x1A02 JUMPI PUSH1 0x40 MLOAD PUSH32 0x8C379A000000000000000000000000000000000000000000000000000000000 DUP2 MSTORE PUSH1 0x4 ADD PUSH2 0x19F9 SWAP1 PUSH2 0x58A6 JUMP JUMPDEST PUSH1 0x40 MLOAD DUP1 SWAP2 SUB SWAP1 REVERT JUMPDEST PUSH1 0x2 PUSH1 0x0 DUP6 PUSH20 0xFFFFFFFFFFFFFFFFFFFFFFFFFFFFFFFFFFFFFFFF AND PUSH20 0xFFFFFFFFFFFFFFFFFFFFFFFFFFFFFFFFFFFFFFFF AND DUP2 MSTORE PUSH1 0x20 ADD SWAP1 DUP2 MSTORE PUSH1 0x20 ADD PUSH1 0x0 KECCAK256 PUSH1 0x0 ADD PUSH1 0x0 SWAP1 SLOAD SWAP1 PUSH2 0x100 EXP SWAP1 DIV PUSH1 0xFF AND PUSH2 0x1A91 JUMPI PUSH1 0x40 MLOAD PUSH32 0x8C379A000000000000000000000000000000000000000000000000000000000 DUP2 MSTORE PUSH1 0x4 ADD PUSH2 0x1A88 SWAP1 PUSH2 0x5912 JUMP JUMPDEST PUSH1 0x40 MLOAD DUP1 SWAP2 SUB SWAP1 REVERT JUMPDEST PUSH1 0x40 MLOAD DUP1 PUSH1 0xC0 ADD PUSH1 0x40 MSTORE DUP1 PUSH1 0x1 ISZERO ISZERO DUP2 MSTORE PUSH1 0x20 ADD PUSH1 0x1 ISZERO ISZERO DUP2 MSTORE PUSH1 0x20 ADD DUP5 DUP2 MSTORE PUSH1 0x20 ADD DUP3 DUP2 MSTORE PUSH1 0x20 ADD DUP4 DUP2 MSTORE PUSH1 0x20 ADD DUP6 PUSH20 0xFFFFFFFFFFFFFFFFFFFFFFFFFFFFFFFFFFFFFFFF AND DUP2 MSTORE POP PUSH1 0x3 PUSH1 0x0 DUP8 PUSH20 0xFFFFFFFFFFFFFFFFFFFFFFFFFFFFFFFFFFFFFFFF AND PUSH20 0xFFFFFFFFFFFFFFFFFFFFFFFFFFFFFFFFFFFFFFFF AND DUP2 MSTORE PUSH1 0x20 ADD SWAP1 DUP2 MSTORE PUSH1 0x20 ADD PUSH1 0x0 KECCAK256 PUSH1 0x0 DUP3 ADD MLOAD DUP2 PUSH1 0x0 ADD PUSH1 0x0 PUSH2 0x100 EXP DUP2 SLOAD DUP2 PUSH1 0xFF MUL NOT AND SWAP1 DUP4 ISZERO ISZERO MUL OR SWAP1 SSTORE POP PUSH1 0x20 DUP3 ADD MLOAD DUP2 PUSH1 0x0 ADD PUSH1 0x1 PUSH2 0x100 EXP DUP2 SLOAD DUP2 PUSH1 0xFF MUL NOT AND SWAP1 DUP4 ISZERO ISZERO MUL OR SWAP1 SSTORE POP PUSH1 0x40 DUP3 ADD MLOAD DUP2 PUSH1 0x1 ADD SWAP1 DUP2 PUSH2 0x1B6E SWAP2 SWAP1 PUSH2 0x537D JUMP JUMPDEST POP PUSH1 0x60 DUP3 ADD MLOAD DUP2 PUSH1 0x2 ADD SWAP1 DUP2 PUSH2 0x1B84 SWAP2 SWAP1 PUSH2 0x537D JUMP JUMPDEST POP PUSH1 0x80 DUP3 ADD MLOAD DUP2 PUSH1 0x3 ADD SWAP1 DUP2 PUSH2 0x1B9A SWAP2 SWAP1 PUSH2 0x537D JUMP JUMPDEST POP PUSH1 0xA0 DUP3 ADD MLOAD DUP2 PUSH1 0x4 ADD PUSH1 0x0 PUSH2 0x100 EXP DUP2 SLOAD DUP2 PUSH20 0xFFFFFFFFFFFFFFFFFFFFFFFFFFFFFFFFFFFFFFFF MUL NOT AND SWAP1 DUP4 PUSH20 0xFFFFFFFFFFFFFFFFFFFFFFFFFFFFFFFFFFFFFFFF AND MUL OR SWAP1 SSTORE POP SWAP1 POP POP PUSH1 0x7 DUP6 SWAP1 DUP1 PUSH1 0x1 DUP2 SLOAD ADD DUP1 DUP3 SSTORE DUP1 SWAP2 POP POP PUSH1 0x1 SWAP1 SUB SWAP1 PUSH1 0x0 MSTORE PUSH1 0x20 PUSH1 0x0 KECCAK256 ADD PUSH1 0x0 SWAP1 SWAP2 SWAP1 SWAP2 SWAP1 SWAP2 PUSH2 0x100 EXP DUP2 SLOAD DUP2 PUSH20 0xFFFFFFFFFFFFFFFFFFFFFFFFFFFFFFFFFFFFFFFF MUL NOT AND SWAP1 DUP4 PUSH20 0xFFFFFFFFFFFFFFFFFFFFFFFFFFFFFFFFFFFFFFFF AND MUL OR SWAP1 SSTORE POP PUSH32 0x1528780482FFEE4194E653B400FA578A1ADD3FE678DC33897731DAA3A2132889 DUP6 PUSH1 0x40 MLOAD PUSH2 0x1C77 SWAP2 SWAP1 PUSH2 0x4998 JUMP JUMPDEST PUSH1 0x40 MLOAD DUP1 SWAP2 SUB SWAP1 LOG1 PUSH2 0x1CA9 PUSH32 0xAF1DAC7DEA2FD7F7738119CEC7DF099DFAD49AA9D2E7D17BA6B60F63AE7411F DUP7 PUSH2 0x37D8 JUMP JUMPDEST POP POP POP POP POP POP JUMP JUMPDEST PUSH2 0x1CDB PUSH32 0xA49807205CE4D355092EF5A8A18F56E8913CF4A201FBE287825B095693C21775 CALLER PUSH2 0x1885 JUMP JUMPDEST PUSH2 0x1D1A JUMPI PUSH1 0x40 MLOAD PUSH32 0x8C379A000000000000000000000000000000000000000000000000000000000 DUP2 MSTORE PUSH1 0x4 ADD PUSH2 0x1D11 SWAP1 PUSH2 0x597E JUMP JUMPDEST PUSH1 0x40 MLOAD DUP1 SWAP2 SUB SWAP1 REVERT JUMPDEST PUSH1 0x4 PUSH1 0x0 DUP3 PUSH20 0xFFFFFFFFFFFFFFFFFFFFFFFFFFFFFFFFFFFFFFFF AND PUSH20 0xFFFFFFFFFFFFFFFFFFFFFFFFFFFFFFFFFFFFFFFF AND DUP2 MSTORE PUSH1 0x20 ADD SWAP1 DUP2 MSTORE PUSH1 0x20 ADD PUSH1 0x0 KECCAK256 PUSH1 0x0 ADD PUSH1 0x0 SWAP1 SLOAD SWAP1 PUSH2 0x100 EXP SWAP1 DIV PUSH1 0xFF AND PUSH2 0x1DA9 JUMPI PUSH1 0x40 MLOAD PUSH32 0x8C379A000000000000000000000000000000000000000000000000000000000 DUP2 MSTORE PUSH1 0x4 ADD PUSH2 0x1DA0 SWAP1 PUSH2 0x59EA JUMP JUMPDEST PUSH1 0x40 MLOAD DUP1 SWAP2 SUB SWAP1 REVERT JUMPDEST PUSH1 0x4 PUSH1 0x0 DUP3 PUSH20 0xFFFFFFFFFFFFFFFFFFFFFFFFFFFFFFFFFFFFFFFF AND PUSH20 0xFFFFFFFFFFFFFFFFFFFFFFFFFFFFFFFFFFFFFFFF AND DUP2 MSTORE PUSH1 0x20 ADD SWAP1 DUP2 MSTORE PUSH1 0x20 ADD PUSH1 0x0 KECCAK256 PUSH1 0x0 DUP1 DUP3 ADD PUSH1 0x0 PUSH2 0x100 EXP DUP2 SLOAD SWAP1 PUSH1 0xFF MUL NOT AND SWAP1 SSTORE PUSH1 0x1 DUP3 ADD PUSH1 0x0 PUSH2 0x1E0D SWAP2 SWAP1 PUSH2 0x42EA JUMP JUMPDEST PUSH1 0x2 DUP3 ADD PUSH1 0x0 PUSH2 0x1E1D SWAP2 SWAP1 PUSH2 0x42EA JUMP JUMPDEST PUSH1 0x3 DUP3 ADD PUSH1 0x0 PUSH2 0x1E2D SWAP2 SWAP1 PUSH2 0x42EA JUMP JUMPDEST POP POP PUSH2 0x1E38 DUP2 PUSH2 0x3C97 JUMP JUMPDEST POP JUMP JUMPDEST PUSH2 0x1E43 PUSH2 0x432A JUMP JUMPDEST PUSH1 0x4 PUSH1 0x0 DUP4 PUSH20 0xFFFFFFFFFFFFFFFFFFFFFFFFFFFFFFFFFFFFFFFF AND PUSH20 0xFFFFFFFFFFFFFFFFFFFFFFFFFFFFFFFFFFFFFFFF AND DUP2 MSTORE PUSH1 0x20 ADD SWAP1 DUP2 MSTORE PUSH1 0x20 ADD PUSH1 0x0 KECCAK256 PUSH1 0x40 MLOAD DUP1 PUSH1 0x80 ADD PUSH1 0x40 MSTORE SWAP1 DUP2 PUSH1 0x0 DUP3 ADD PUSH1 0x0 SWAP1 SLOAD SWAP1 PUSH2 0x100 EXP SWAP1 DIV PUSH1 0xFF AND ISZERO ISZERO ISZERO ISZERO DUP2 MSTORE PUSH1 0x20 ADD PUSH1 0x1 DUP3 ADD DUP1 SLOAD PUSH2 0x1EB8 SWAP1 PUSH2 0x50C8 JUMP JUMPDEST DUP1 PUSH1 0x1F ADD PUSH1 0x20 DUP1 SWAP2 DIV MUL PUSH1 0x20 ADD PUSH1 0x40 MLOAD SWAP1 DUP2 ADD PUSH1 0x40 MSTORE DUP1 SWAP3 SWAP2 SWAP1 DUP2 DUP2 MSTORE PUSH1 0x20 ADD DUP3 DUP1 SLOAD PUSH2 0x1EE4 SWAP1 PUSH2 0x50C8 JUMP JUMPDEST DUP1 ISZERO PUSH2 0x1F31 JUMPI DUP1 PUSH1 0x1F LT PUSH2 0x1F06 JUMPI PUSH2 0x100 DUP1 DUP4 SLOAD DIV MUL DUP4 MSTORE SWAP2 PUSH1 0x20 ADD SWAP2 PUSH2 0x1F31 JUMP JUMPDEST DUP3 ADD SWAP2 SWAP1 PUSH1 0x0 MSTORE PUSH1 0x20 PUSH1 0x0 KECCAK256 SWAP1 JUMPDEST DUP2 SLOAD DUP2 MSTORE SWAP1 PUSH1 0x1 ADD SWAP1 PUSH1 0x20 ADD DUP1 DUP4 GT PUSH2 0x1F14 JUMPI DUP3 SWAP1 SUB PUSH1 0x1F AND DUP3 ADD SWAP2 JUMPDEST POP POP POP POP POP DUP2 MSTORE PUSH1 0x20 ADD PUSH1 0x2 DUP3 ADD DUP1 SLOAD PUSH2 0x1F4A SWAP1 PUSH2 0x50C8 JUMP JUMPDEST DUP1 PUSH1 0x1F ADD PUSH1 0x20 DUP1 SWAP2 DIV MUL PUSH1 0x20 ADD PUSH1 0x40 MLOAD SWAP1 DUP2 ADD PUSH1 0x40 MSTORE DUP1 SWAP3 SWAP2 SWAP1 DUP2 DUP2 MSTORE PUSH1 0x20 ADD DUP3 DUP1 SLOAD PUSH2 0x1F76 SWAP1 PUSH2 0x50C8 JUMP JUMPDEST DUP1 ISZERO PUSH2 0x1FC3 JUMPI DUP1 PUSH1 0x1F LT PUSH2 0x1F98 JUMPI PUSH2 0x100 DUP1 DUP4 SLOAD DIV MUL DUP4 MSTORE SWAP2 PUSH1 0x20 ADD SWAP2 PUSH2 0x1FC3 JUMP JUMPDEST DUP3 ADD SWAP2 SWAP1 PUSH1 0x0 MSTORE PUSH1 0x20 PUSH1 0x0 KECCAK256 SWAP1 JUMPDEST DUP2 SLOAD DUP2 MSTORE SWAP1 PUSH1 0x1 ADD SWAP1 PUSH1 0x20 ADD DUP1 DUP4 GT PUSH2 0x1FA6 JUMPI DUP3 SWAP1 SUB PUSH1 0x1F AND DUP3 ADD SWAP2 JUMPDEST POP POP POP POP POP DUP2 MSTORE PUSH1 0x20 ADD PUSH1 0x3 DUP3 ADD DUP1 SLOAD PUSH2 0x1FDC SWAP1 PUSH2 0x50C8 JUMP JUMPDEST DUP1 PUSH1 0x1F ADD PUSH1 0x20 DUP1 SWAP2 DIV MUL PUSH1 0x20 ADD PUSH1 0x40 MLOAD SWAP1 DUP2 ADD PUSH1 0x40 MSTORE DUP1 SWAP3 SWAP2 SWAP1 DUP2 DUP2 MSTORE PUSH1 0x20 ADD DUP3 DUP1 SLOAD PUSH2 0x2008 SWAP1 PUSH2 0x50C8 JUMP JUMPDEST DUP1 ISZERO PUSH2 0x2055 JUMPI DUP1 PUSH1 0x1F LT PUSH2 0x202A JUMPI PUSH2 0x100 DUP1 DUP4 SLOAD DIV MUL DUP4 MSTORE SWAP2 PUSH1 0x20 ADD SWAP2 PUSH2 0x2055 JUMP JUMPDEST DUP3 ADD SWAP2 SWAP1 PUSH1 0x0 MSTORE PUSH1 0x20 PUSH1 0x0 KECCAK256 SWAP1 JUMPDEST DUP2 SLOAD DUP2 MSTORE SWAP1 PUSH1 0x1 ADD SWAP1 PUSH1 0x20 ADD DUP1 DUP4 GT PUSH2 0x2038 JUMPI DUP3 SWAP1 SUB PUSH1 0x1F AND DUP3 ADD SWAP2 JUMPDEST POP POP POP POP POP DUP2 MSTORE POP POP SWAP1 POP SWAP2 SWAP1 POP JUMP JUMPDEST PUSH2 0x208F PUSH32 0xA49807205CE4D355092EF5A8A18F56E8913CF4A201FBE287825B095693C21775 CALLER PUSH2 0x1885 JUMP JUMPDEST DUP1 PUSH2 0x20C0 JUMPI POP PUSH2 0x20BF PUSH32 0xC8F5B4140CCA307CD927E59CBEEA8291BFFEEE228FC677F0FA059AEF7B4DD8D5 CALLER PUSH2 0x1885 JUMP JUMPDEST JUMPDEST PUSH2 0x20FF JUMPI PUSH1 0x40 MLOAD PUSH32 0x8C379A000000000000000000000000000000000000000000000000000000000 DUP2 MSTORE PUSH1 0x4 ADD PUSH2 0x20F6 SWAP1 PUSH2 0x57CE JUMP JUMPDEST PUSH1 0x40 MLOAD DUP1 SWAP2 SUB SWAP1 REVERT JUMPDEST PUSH2 0x2129 PUSH32 0xC8F5B4140CCA307CD927E59CBEEA8291BFFEEE228FC677F0FA059AEF7B4DD8D5 CALLER PUSH2 0x1885 JUMP JUMPDEST DUP1 ISZERO PUSH2 0x21C2 JUMPI POP CALLER PUSH20 0xFFFFFFFFFFFFFFFFFFFFFFFFFFFFFFFFFFFFFFFF AND PUSH1 0x3 PUSH1 0x0 DUP4 PUSH20 0xFFFFFFFFFFFFFFFFFFFFFFFFFFFFFFFFFFFFFFFF AND PUSH20 0xFFFFFFFFFFFFFFFFFFFFFFFFFFFFFFFFFFFFFFFF AND DUP2 MSTORE PUSH1 0x20 ADD SWAP1 DUP2 MSTORE PUSH1 0x20 ADD PUSH1 0x0 KECCAK256 PUSH1 0x4 ADD PUSH1 0x0 SWAP1 SLOAD SWAP1 PUSH2 0x100 EXP SWAP1 DIV PUSH20 0xFFFFFFFFFFFFFFFFFFFFFFFFFFFFFFFFFFFFFFFF AND PUSH20 0xFFFFFFFFFFFFFFFFFFFFFFFFFFFFFFFFFFFFFFFF AND EQ JUMPDEST DUP1 PUSH2 0x21F3 JUMPI POP PUSH2 0x21F2 PUSH32 0xA49807205CE4D355092EF5A8A18F56E8913CF4A201FBE287825B095693C21775 CALLER PUSH2 0x1885 JUMP JUMPDEST JUMPDEST PUSH2 0x2232 JUMPI PUSH1 0x40 MLOAD PUSH32 0x8C379A000000000000000000000000000000000000000000000000000000000 DUP2 MSTORE PUSH1 0x4 ADD PUSH2 0x2229 SWAP1 PUSH2 0x57CE JUMP JUMPDEST PUSH1 0x40 MLOAD DUP1 SWAP2 SUB SWAP1 REVERT JUMPDEST PUSH1 0x3 PUSH1 0x0 DUP3 PUSH20 0xFFFFFFFFFFFFFFFFFFFFFFFFFFFFFFFFFFFFFFFF AND PUSH20 0xFFFFFFFFFFFFFFFFFFFFFFFFFFFFFFFFFFFFFFFF AND DUP2 MSTORE PUSH1 0x20 ADD SWAP1 DUP2 MSTORE PUSH1 0x20 ADD PUSH1 0x0 KECCAK256 PUSH1 0x0 ADD PUSH1 0x0 SWAP1 SLOAD SWAP1 PUSH2 0x100 EXP SWAP1 DIV PUSH1 0xFF AND PUSH2 0x22C1 JUMPI PUSH1 0x40 MLOAD PUSH32 0x8C379A000000000000000000000000000000000000000000000000000000000 DUP2 MSTORE PUSH1 0x4 ADD PUSH2 0x22B8 SWAP1 PUSH2 0x583A JUMP JUMPDEST PUSH1 0x40 MLOAD DUP1 SWAP2 SUB SWAP1 REVERT JUMPDEST PUSH1 0x3 PUSH1 0x0 DUP3 PUSH20 0xFFFFFFFFFFFFFFFFFFFFFFFFFFFFFFFFFFFFFFFF AND PUSH20 0xFFFFFFFFFFFFFFFFFFFFFFFFFFFFFFFFFFFFFFFF AND DUP2 MSTORE PUSH1 0x20 ADD SWAP1 DUP2 MSTORE PUSH1 0x20 ADD PUSH1 0x0 KECCAK256 PUSH1 0x0 DUP1 DUP3 ADD PUSH1 0x0 PUSH2 0x100 EXP DUP2 SLOAD SWAP1 PUSH1 0xFF MUL NOT AND SWAP1 SSTORE PUSH1 0x0 DUP3 ADD PUSH1 0x1 PUSH2 0x100 EXP DUP2 SLOAD SWAP1 PUSH1 0xFF MUL NOT AND SWAP1 SSTORE PUSH1 0x1 DUP3 ADD PUSH1 0x0 PUSH2 0x2339 SWAP2 SWAP1 PUSH2 0x42EA JUMP JUMPDEST PUSH1 0x2 DUP3 ADD PUSH1 0x0 PUSH2 0x2349 SWAP2 SWAP1 PUSH2 0x42EA JUMP JUMPDEST PUSH1 0x3 DUP3 ADD PUSH1 0x0 PUSH2 0x2359 SWAP2 SWAP1 PUSH2 0x42EA JUMP JUMPDEST PUSH1 0x4 DUP3 ADD PUSH1 0x0 PUSH2 0x100 EXP DUP2 SLOAD SWAP1 PUSH20 0xFFFFFFFFFFFFFFFFFFFFFFFFFFFFFFFFFFFFFFFF MUL NOT AND SWAP1 SSTORE POP POP PUSH2 0x238B DUP2 PUSH2 0x3E7C JUMP JUMPDEST POP JUMP JUMPDEST PUSH2 0x2396 PUSH2 0x4354 JUMP JUMPDEST PUSH1 0x2 PUSH1 0x0 DUP4 PUSH20 0xFFFFFFFFFFFFFFFFFFFFFFFFFFFFFFFFFFFFFFFF AND PUSH20 0xFFFFFFFFFFFFFFFFFFFFFFFFFFFFFFFFFFFFFFFF AND DUP2 MSTORE PUSH1 0x20 ADD SWAP1 DUP2 MSTORE PUSH1 0x20 ADD PUSH1 0x0 KECCAK256 PUSH1 0x40 MLOAD DUP1 PUSH1 0x40 ADD PUSH1 0x40 MSTORE SWAP1 DUP2 PUSH1 0x0 DUP3 ADD PUSH1 0x0 SWAP1 SLOAD SWAP1 PUSH2 0x100 EXP SWAP1 DIV PUSH1 0xFF AND ISZERO ISZERO ISZERO ISZERO DUP2 MSTORE PUSH1 0x20 ADD PUSH1 0x1 DUP3 ADD DUP1 SLOAD PUSH2 0x240B SWAP1 PUSH2 0x50C8 JUMP JUMPDEST DUP1 PUSH1 0x1F ADD PUSH1 0x20 DUP1 SWAP2 DIV MUL PUSH1 0x20 ADD PUSH1 0x40 MLOAD SWAP1 DUP2 ADD PUSH1 0x40 MSTORE DUP1 SWAP3 SWAP2 SWAP1 DUP2 DUP2 MSTORE PUSH1 0x20 ADD DUP3 DUP1 SLOAD PUSH2 0x2437 SWAP1 PUSH2 0x50C8 JUMP JUMPDEST DUP1 ISZERO PUSH2 0x2484 JUMPI DUP1 PUSH1 0x1F LT PUSH2 0x2459 JUMPI PUSH2 0x100 DUP1 DUP4 SLOAD DIV MUL DUP4 MSTORE SWAP2 PUSH1 0x20 ADD SWAP2 PUSH2 0x2484 JUMP JUMPDEST DUP3 ADD SWAP2 SWAP1 PUSH1 0x0 MSTORE PUSH1 0x20 PUSH1 0x0 KECCAK256 SWAP1 JUMPDEST DUP2 SLOAD DUP2 MSTORE SWAP1 PUSH1 0x1 ADD SWAP1 PUSH1 0x20 ADD DUP1 DUP4 GT PUSH2 0x2467 JUMPI DUP3 SWAP1 SUB PUSH1 0x1F AND DUP3 ADD SWAP2 JUMPDEST POP POP POP POP POP DUP2 MSTORE POP POP SWAP1 POP SWAP2 SWAP1 POP JUMP JUMPDEST PUSH1 0x0 DUP1 SHL DUP2 JUMP JUMPDEST PUSH1 0x60 PUSH1 0x8 DUP1 SLOAD DUP1 PUSH1 0x20 MUL PUSH1 0x20 ADD PUSH1 0x40 MLOAD SWAP1 DUP2 ADD PUSH1 0x40 MSTORE DUP1 SWAP3 SWAP2 SWAP1 DUP2 DUP2 MSTORE PUSH1 0x20 ADD DUP3 DUP1 SLOAD DUP1 ISZERO PUSH2 0x251F JUMPI PUSH1 0x20 MUL DUP3 ADD SWAP2 SWAP1 PUSH1 0x0 MSTORE PUSH1 0x20 PUSH1 0x0 KECCAK256 SWAP1 JUMPDEST DUP2 PUSH1 0x0 SWAP1 SLOAD SWAP1 PUSH2 0x100 EXP SWAP1 DIV PUSH20 0xFFFFFFFFFFFFFFFFFFFFFFFFFFFFFFFFFFFFFFFF AND PUSH20 0xFFFFFFFFFFFFFFFFFFFFFFFFFFFFFFFFFFFFFFFF AND DUP2 MSTORE PUSH1 0x20 ADD SWAP1 PUSH1 0x1 ADD SWAP1 DUP1 DUP4 GT PUSH2 0x24D5 JUMPI JUMPDEST POP POP POP POP POP SWAP1 POP SWAP1 JUMP JUMPDEST PUSH1 0x4 PUSH1 0x20 MSTORE DUP1 PUSH1 0x0 MSTORE PUSH1 0x40 PUSH1 0x0 KECCAK256 PUSH1 0x0 SWAP2 POP SWAP1 POP DUP1 PUSH1 0x0 ADD PUSH1 0x0 SWAP1 SLOAD SWAP1 PUSH2 0x100 EXP SWAP1 DIV PUSH1 0xFF AND SWAP1 DUP1 PUSH1 0x1 ADD DUP1 SLOAD PUSH2 0x255F SWAP1 PUSH2 0x50C8 JUMP JUMPDEST DUP1 PUSH1 0x1F ADD PUSH1 0x20 DUP1 SWAP2 DIV MUL PUSH1 0x20 ADD PUSH1 0x40 MLOAD SWAP1 DUP2 ADD PUSH1 0x40 MSTORE DUP1 SWAP3 SWAP2 SWAP1 DUP2 DUP2 MSTORE PUSH1 0x20 ADD DUP3 DUP1 SLOAD PUSH2 0x258B SWAP1 PUSH2 0x50C8 JUMP JUMPDEST DUP1 ISZERO PUSH2 0x25D8 JUMPI DUP1 PUSH1 0x1F LT PUSH2 0x25AD JUMPI PUSH2 0x100 DUP1 DUP4 SLOAD DIV MUL DUP4 MSTORE SWAP2 PUSH1 0x20 ADD SWAP2 PUSH2 0x25D8 JUMP JUMPDEST DUP3 ADD SWAP2 SWAP1 PUSH1 0x0 MSTORE PUSH1 0x20 PUSH1 0x0 KECCAK256 SWAP1 JUMPDEST DUP2 SLOAD DUP2 MSTORE SWAP1 PUSH1 0x1 ADD SWAP1 PUSH1 0x20 ADD DUP1 DUP4 GT PUSH2 0x25BB JUMPI DUP3 SWAP1 SUB PUSH1 0x1F AND DUP3 ADD SWAP2 JUMPDEST POP POP POP POP POP SWAP1 DUP1 PUSH1 0x2 ADD DUP1 SLOAD PUSH2 0x25ED SWAP1 PUSH2 0x50C8 JUMP JUMPDEST DUP1 PUSH1 0x1F ADD PUSH1 0x20 DUP1 SWAP2 DIV MUL PUSH1 0x20 ADD PUSH1 0x40 MLOAD SWAP1 DUP2 ADD PUSH1 0x40 MSTORE DUP1 SWAP3 SWAP2 SWAP1 DUP2 DUP2 MSTORE PUSH1 0x20 ADD DUP3 DUP1 SLOAD PUSH2 0x2619 SWAP1 PUSH2 0x50C8 JUMP JUMPDEST DUP1 ISZERO PUSH2 0x2666 JUMPI DUP1 PUSH1 0x1F LT PUSH2 0x263B JUMPI PUSH2 0x100 DUP1 DUP4 SLOAD DIV MUL DUP4 MSTORE SWAP2 PUSH1 0x20 ADD SWAP2 PUSH2 0x2666 JUMP JUMPDEST DUP3 ADD SWAP2 SWAP1 PUSH1 0x0 MSTORE PUSH1 0x20 PUSH1 0x0 KECCAK256 SWAP1 JUMPDEST DUP2 SLOAD DUP2 MSTORE SWAP1 PUSH1 0x1 ADD SWAP1 PUSH1 0x20 ADD DUP1 DUP4 GT PUSH2 0x2649 JUMPI DUP3 SWAP1 SUB PUSH1 0x1F AND DUP3 ADD SWAP2 JUMPDEST POP POP POP POP POP SWAP1 DUP1 PUSH1 0x3 ADD DUP1 SLOAD PUSH2 0x267B SWAP1 PUSH2 0x50C8 JUMP JUMPDEST DUP1 PUSH1 0x1F ADD PUSH1 0x20 DUP1 SWAP2 DIV MUL PUSH1 0x20 ADD PUSH1 0x40 MLOAD SWAP1 DUP2 ADD PUSH1 0x40 MSTORE DUP1 SWAP3 SWAP2 SWAP1 DUP2 DUP2 MSTORE PUSH1 0x20 ADD DUP3 DUP1 SLOAD PUSH2 0x26A7 SWAP1 PUSH2 0x50C8 JUMP JUMPDEST DUP1 ISZERO PUSH2 0x26F4 JUMPI DUP1 PUSH1 0x1F LT PUSH2 0x26C9 JUMPI PUSH2 0x100 DUP1 DUP4 SLOAD DIV MUL DUP4 MSTORE SWAP2 PUSH1 0x20 ADD SWAP2 PUSH2 0x26F4 JUMP JUMPDEST DUP3 ADD SWAP2 SWAP1 PUSH1 0x0 MSTORE PUSH1 0x20 PUSH1 0x0 KECCAK256 SWAP1 JUMPDEST DUP2 SLOAD DUP2 MSTORE SWAP1 PUSH1 0x1 ADD SWAP1 PUSH1 0x20 ADD DUP1 DUP4 GT PUSH2 0x26D7 JUMPI DUP3 SWAP1 SUB PUSH1 0x1F AND DUP3 ADD SWAP2 JUMPDEST POP POP POP POP POP SWAP1 POP DUP5 JUMP JUMPDEST PUSH1 0x3 PUSH1 0x20 MSTORE DUP1 PUSH1 0x0 MSTORE PUSH1 0x40 PUSH1 0x0 KECCAK256 PUSH1 0x0 SWAP2 POP SWAP1 POP DUP1 PUSH1 0x0 ADD PUSH1 0x0 SWAP1 SLOAD SWAP1 PUSH2 0x100 EXP SWAP1 DIV PUSH1 0xFF AND SWAP1 DUP1 PUSH1 0x0 ADD PUSH1 0x1 SWAP1 SLOAD SWAP1 PUSH2 0x100 EXP SWAP1 DIV PUSH1 0xFF AND SWAP1 DUP1 PUSH1 0x1 ADD DUP1 SLOAD PUSH2 0x2747 SWAP1 PUSH2 0x50C8 JUMP JUMPDEST DUP1 PUSH1 0x1F ADD PUSH1 0x20 DUP1 SWAP2 DIV MUL PUSH1 0x20 ADD PUSH1 0x40 MLOAD SWAP1 DUP2 ADD PUSH1 0x40 MSTORE DUP1 SWAP3 SWAP2 SWAP1 DUP2 DUP2 MSTORE PUSH1 0x20 ADD DUP3 DUP1 SLOAD PUSH2 0x2773 SWAP1 PUSH2 0x50C8 JUMP JUMPDEST DUP1 ISZERO PUSH2 0x27C0 JUMPI DUP1 PUSH1 0x1F LT PUSH2 0x2795 JUMPI PUSH2 0x100 DUP1 DUP4 SLOAD DIV MUL DUP4 MSTORE SWAP2 PUSH1 0x20 ADD SWAP2 PUSH2 0x27C0 JUMP JUMPDEST DUP3 ADD SWAP2 SWAP1 PUSH1 0x0 MSTORE PUSH1 0x20 PUSH1 0x0 KECCAK256 SWAP1 JUMPDEST DUP2 SLOAD DUP2 MSTORE SWAP1 PUSH1 0x1 ADD SWAP1 PUSH1 0x20 ADD DUP1 DUP4 GT PUSH2 0x27A3 JUMPI DUP3 SWAP1 SUB PUSH1 0x1F AND DUP3 ADD SWAP2 JUMPDEST POP POP POP POP POP SWAP1 DUP1 PUSH1 0x2 ADD DUP1 SLOAD PUSH2 0x27D5 SWAP1 PUSH2 0x50C8 JUMP JUMPDEST DUP1 PUSH1 0x1F ADD PUSH1 0x20 DUP1 SWAP2 DIV MUL PUSH1 0x20 ADD PUSH1 0x40 MLOAD SWAP1 DUP2 ADD PUSH1 0x40 MSTORE DUP1 SWAP3 SWAP2 SWAP1 DUP2 DUP2 MSTORE PUSH1 0x20 ADD DUP3 DUP1 SLOAD PUSH2 0x2801 SWAP1 PUSH2 0x50C8 JUMP JUMPDEST DUP1 ISZERO PUSH2 0x284E JUMPI DUP1 PUSH1 0x1F LT PUSH2 0x2823 JUMPI PUSH2 0x100 DUP1 DUP4 SLOAD DIV MUL DUP4 MSTORE SWAP2 PUSH1 0x20 ADD SWAP2 PUSH2 0x284E JUMP JUMPDEST DUP3 ADD SWAP2 SWAP1 PUSH1 0x0 MSTORE PUSH1 0x20 PUSH1 0x0 KECCAK256 SWAP1 JUMPDEST DUP2 SLOAD DUP2 MSTORE SWAP1 PUSH1 0x1 ADD SWAP1 PUSH1 0x20 ADD DUP1 DUP4 GT PUSH2 0x2831 JUMPI DUP3 SWAP1 SUB PUSH1 0x1F AND DUP3 ADD SWAP2 JUMPDEST POP POP POP POP POP SWAP1 DUP1 PUSH1 0x3 ADD DUP1 SLOAD PUSH2 0x2863 SWAP1 PUSH2 0x50C8 JUMP JUMPDEST DUP1 PUSH1 0x1F ADD PUSH1 0x20 DUP1 SWAP2 DIV MUL PUSH1 0x20 ADD PUSH1 0x40 MLOAD SWAP1 DUP2 ADD PUSH1 0x40 MSTORE DUP1 SWAP3 SWAP2 SWAP1 DUP2 DUP2 MSTORE PUSH1 0x20 ADD DUP3 DUP1 SLOAD PUSH2 0x288F SWAP1 PUSH2 0x50C8 JUMP JUMPDEST DUP1 ISZERO PUSH2 0x28DC JUMPI DUP1 PUSH1 0x1F LT PUSH2 0x28B1 JUMPI PUSH2 0x100 DUP1 DUP4 SLOAD DIV MUL DUP4 MSTORE SWAP2 PUSH1 0x20 ADD SWAP2 PUSH2 0x28DC JUMP JUMPDEST DUP3 ADD SWAP2 SWAP1 PUSH1 0x0 MSTORE PUSH1 0x20 PUSH1 0x0 KECCAK256 SWAP1 JUMPDEST DUP2 SLOAD DUP2 MSTORE SWAP1 PUSH1 0x1 ADD SWAP1 PUSH1 0x20 ADD DUP1 DUP4 GT PUSH2 0x28BF JUMPI DUP3 SWAP1 SUB PUSH1 0x1F AND DUP3 ADD SWAP2 JUMPDEST POP POP POP POP POP SWAP1 DUP1 PUSH1 0x4 ADD PUSH1 0x0 SWAP1 SLOAD SWAP1 PUSH2 0x100 EXP SWAP1 DIV PUSH20 0xFFFFFFFFFFFFFFFFFFFFFFFFFFFFFFFFFFFFFFFF AND SWAP1 POP DUP7 JUMP JUMPDEST PUSH2 0x2936 PUSH32 0x14823911F2DA1B49F045A0929A60B8C1F2A7FC8C06C7284CA3E8AB4E193A08C8 CALLER PUSH2 0x1885 JUMP JUMPDEST PUSH2 0x2975 JUMPI PUSH1 0x40 MLOAD PUSH32 0x8C379A000000000000000000000000000000000000000000000000000000000 DUP2 MSTORE PUSH1 0x4 ADD PUSH2 0x296C SWAP1 PUSH2 0x5A56 JUMP JUMPDEST PUSH1 0x40 MLOAD DUP1 SWAP2 SUB SWAP1 REVERT JUMPDEST PUSH1 0x4 PUSH1 0x0 CALLER PUSH20 0xFFFFFFFFFFFFFFFFFFFFFFFFFFFFFFFFFFFFFFFF AND PUSH20 0xFFFFFFFFFFFFFFFFFFFFFFFFFFFFFFFFFFFFFFFF AND DUP2 MSTORE PUSH1 0x20 ADD SWAP1 DUP2 MSTORE PUSH1 0x20 ADD PUSH1 0x0 KECCAK256 PUSH1 0x0 ADD PUSH1 0x0 SWAP1 SLOAD SWAP1 PUSH2 0x100 EXP SWAP1 DIV PUSH1 0xFF AND PUSH2 0x2A04 JUMPI PUSH1 0x40 MLOAD PUSH32 0x8C379A000000000000000000000000000000000000000000000000000000000 DUP2 MSTORE PUSH1 0x4 ADD PUSH2 0x29FB SWAP1 PUSH2 0x59EA JUMP JUMPDEST PUSH1 0x40 MLOAD DUP1 SWAP2 SUB SWAP1 REVERT JUMPDEST PUSH1 0x3 PUSH1 0x0 DUP4 PUSH20 0xFFFFFFFFFFFFFFFFFFFFFFFFFFFFFFFFFFFFFFFF AND PUSH20 0xFFFFFFFFFFFFFFFFFFFFFFFFFFFFFFFFFFFFFFFF AND DUP2 MSTORE PUSH1 0x20 ADD SWAP1 DUP2 MSTORE PUSH1 0x20 ADD PUSH1 0x0 KECCAK256 PUSH1 0x0 ADD PUSH1 0x0 SWAP1 SLOAD SWAP1 PUSH2 0x100 EXP SWAP1 DIV PUSH1 0xFF AND PUSH2 0x2A93 JUMPI PUSH1 0x40 MLOAD PUSH32 0x8C379A000000000000000000000000000000000000000000000000000000000 DUP2 MSTORE PUSH1 0x4 ADD PUSH2 0x2A8A SWAP1 PUSH2 0x583A JUMP JUMPDEST PUSH1 0x40 MLOAD DUP1 SWAP2 SUB SWAP1 REVERT JUMPDEST PUSH1 0x0 PUSH1 0x1 PUSH1 0x8 SWAP1 SLOAD SWAP1 PUSH2 0x100 EXP SWAP1 DIV PUSH8 0xFFFFFFFFFFFFFFFF AND SWAP1 POP PUSH1 0x1 PUSH1 0x8 DUP2 DUP2 SWAP1 SLOAD SWAP1 PUSH2 0x100 EXP SWAP1 DIV PUSH8 0xFFFFFFFFFFFFFFFF AND DUP1 SWAP3 SWAP2 SWAP1 PUSH2 0x2AD4 SWAP1 PUSH2 0x5654 JUMP JUMPDEST SWAP2 SWAP1 PUSH2 0x100 EXP DUP2 SLOAD DUP2 PUSH8 0xFFFFFFFFFFFFFFFF MUL NOT AND SWAP1 DUP4 PUSH8 0xFFFFFFFFFFFFFFFF AND MUL OR SWAP1 SSTORE POP POP PUSH1 0x40 MLOAD DUP1 PUSH2 0x100 ADD PUSH1 0x40 MSTORE DUP1 DUP3 PUSH8 0xFFFFFFFFFFFFFFFF AND DUP2 MSTORE PUSH1 0x20 ADD CALLER PUSH20 0xFFFFFFFFFFFFFFFFFFFFFFFFFFFFFFFFFFFFFFFF AND DUP2 MSTORE PUSH1 0x20 ADD DUP5 PUSH20 0xFFFFFFFFFFFFFFFFFFFFFFFFFFFFFFFFFFFFFFFF AND DUP2 MSTORE PUSH1 0x20 ADD PUSH1 0x3 PUSH1 0x0 DUP7 PUSH20 0xFFFFFFFFFFFFFFFFFFFFFFFFFFFFFFFFFFFFFFFF AND PUSH20 0xFFFFFFFFFFFFFFFFFFFFFFFFFFFFFFFFFFFFFFFF AND DUP2 MSTORE PUSH1 0x20 ADD SWAP1 DUP2 MSTORE PUSH1 0x20 ADD PUSH1 0x0 KECCAK256 PUSH1 0x4 ADD PUSH1 0x0 SWAP1 SLOAD SWAP1 PUSH2 0x100 EXP SWAP1 DIV PUSH20 0xFFFFFFFFFFFFFFFFFFFFFFFFFFFFFFFFFFFFFFFF AND PUSH20 0xFFFFFFFFFFFFFFFFFFFFFFFFFFFFFFFFFFFFFFFF AND DUP2 MSTORE PUSH1 0x20 ADD DUP4 DUP2 MSTORE PUSH1 0x20 ADD PUSH1 0x0 ISZERO ISZERO DUP2 MSTORE PUSH1 0x20 ADD PUSH1 0x1 ISZERO ISZERO DUP2 MSTORE PUSH1 0x20 ADD NUMBER DUP2 MSTORE POP PUSH1 0x6 PUSH1 0x0 DUP4 PUSH8 0xFFFFFFFFFFFFFFFF AND PUSH8 0xFFFFFFFFFFFFFFFF AND DUP2 MSTORE PUSH1 0x20 ADD SWAP1 DUP2 MSTORE PUSH1 0x20 ADD PUSH1 0x0 KECCAK256 PUSH1 0x0 DUP3 ADD MLOAD DUP2 PUSH1 0x0 ADD PUSH1 0x0 PUSH2 0x100 EXP DUP2 SLOAD DUP2 PUSH8 0xFFFFFFFFFFFFFFFF MUL NOT AND SWAP1 DUP4 PUSH8 0xFFFFFFFFFFFFFFFF AND MUL OR SWAP1 SSTORE POP PUSH1 0x20 DUP3 ADD MLOAD DUP2 PUSH1 0x0 ADD PUSH1 0x8 PUSH2 0x100 EXP DUP2 SLOAD DUP2 PUSH20 0xFFFFFFFFFFFFFFFFFFFFFFFFFFFFFFFFFFFFFFFF MUL NOT AND SWAP1 DUP4 PUSH20 0xFFFFFFFFFFFFFFFFFFFFFFFFFFFFFFFFFFFFFFFF AND MUL OR SWAP1 SSTORE POP PUSH1 0x40 DUP3 ADD MLOAD DUP2 PUSH1 0x1 ADD PUSH1 0x0 PUSH2 0x100 EXP DUP2 SLOAD DUP2 PUSH20 0xFFFFFFFFFFFFFFFFFFFFFFFFFFFFFFFFFFFFFFFF MUL NOT AND SWAP1 DUP4 PUSH20 0xFFFFFFFFFFFFFFFFFFFFFFFFFFFFFFFFFFFFFFFF AND MUL OR SWAP1 SSTORE POP PUSH1 0x60 DUP3 ADD MLOAD DUP2 PUSH1 0x2 ADD PUSH1 0x0 PUSH2 0x100 EXP DUP2 SLOAD DUP2 PUSH20 0xFFFFFFFFFFFFFFFFFFFFFFFFFFFFFFFFFFFFFFFF MUL NOT AND SWAP1 DUP4 PUSH20 0xFFFFFFFFFFFFFFFFFFFFFFFFFFFFFFFFFFFFFFFF AND MUL OR SWAP1 SSTORE POP PUSH1 0x80 DUP3 ADD MLOAD DUP2 PUSH1 0x3 ADD SWAP1 DUP2 PUSH2 0x2D29 SWAP2 SWAP1 PUSH2 0x537D JUMP JUMPDEST POP PUSH1 0xA0 DUP3 ADD MLOAD DUP2 PUSH1 0x4 ADD PUSH1 0x0 PUSH2 0x100 EXP DUP2 SLOAD DUP2 PUSH1 0xFF MUL NOT AND SWAP1 DUP4 ISZERO ISZERO MUL OR SWAP1 SSTORE POP PUSH1 0xC0 DUP3 ADD MLOAD DUP2 PUSH1 0x4 ADD PUSH1 0x1 PUSH2 0x100 EXP DUP2 SLOAD DUP2 PUSH1 0xFF MUL NOT AND SWAP1 DUP4 ISZERO ISZERO MUL OR SWAP1 SSTORE POP PUSH1 0xE0 DUP3 ADD MLOAD DUP2 PUSH1 0x5 ADD SSTORE SWAP1 POP POP PUSH32 0x698EE5445279E9E6DC4AEFC59C1C830A1215A567455013ED3A2703DE7FE83E6C DUP2 PUSH1 0x40 MLOAD PUSH2 0x2DA6 SWAP2 SWAP1 PUSH2 0x4B46 JUMP JUMPDEST PUSH1 0x40 MLOAD DUP1 SWAP2 SUB SWAP1 LOG1 POP POP POP JUMP JUMPDEST PUSH2 0x2DBC DUP3 PUSH2 0xB06 JUMP JUMPDEST PUSH2 0x2DC5 DUP2 PUSH2 0x37C4 JUMP JUMPDEST PUSH2 0x2DCF DUP4 DUP4 PUSH2 0x38D1 JUMP JUMPDEST POP POP POP POP JUMP JUMPDEST PUSH2 0x2DFF PUSH32 0xA49807205CE4D355092EF5A8A18F56E8913CF4A201FBE287825B095693C21775 CALLER PUSH2 0x1885 JUMP JUMPDEST PUSH2 0x2E3E JUMPI PUSH1 0x40 MLOAD PUSH32 0x8C379A000000000000000000000000000000000000000000000000000000000 DUP2 MSTORE PUSH1 0x4 ADD PUSH2 0x2E35 SWAP1 PUSH2 0x5AC2 JUMP JUMPDEST PUSH1 0x40 MLOAD DUP1 SWAP2 SUB SWAP1 REVERT JUMPDEST PUSH1 0x2 PUSH1 0x0 DUP3 PUSH20 0xFFFFFFFFFFFFFFFFFFFFFFFFFFFFFFFFFFFFFFFF AND PUSH20 0xFFFFFFFFFFFFFFFFFFFFFFFFFFFFFFFFFFFFFFFF AND DUP2 MSTORE PUSH1 0x20 ADD SWAP1 DUP2 MSTORE PUSH1 0x20 ADD PUSH1 0x0 KECCAK256 PUSH1 0x0 ADD PUSH1 0x0 SWAP1 SLOAD SWAP1 PUSH2 0x100 EXP SWAP1 DIV PUSH1 0xFF AND PUSH2 0x2ECD JUMPI PUSH1 0x40 MLOAD PUSH32 0x8C379A000000000000000000000000000000000000000000000000000000000 DUP2 MSTORE PUSH1 0x4 ADD PUSH2 0x2EC4 SWAP1 PUSH2 0x5912 JUMP JUMPDEST PUSH1 0x40 MLOAD DUP1 SWAP2 SUB SWAP1 REVERT JUMPDEST PUSH2 0x2ED6 DUP2 PUSH2 0x4007 JUMP JUMPDEST PUSH1 0x2 PUSH1 0x0 DUP3 PUSH20 0xFFFFFFFFFFFFFFFFFFFFFFFFFFFFFFFFFFFFFFFF AND PUSH20 0xFFFFFFFFFFFFFFFFFFFFFFFFFFFFFFFFFFFFFFFF AND DUP2 MSTORE PUSH1 0x20 ADD SWAP1 DUP2 MSTORE PUSH1 0x20 ADD PUSH1 0x0 KECCAK256 PUSH1 0x0 DUP1 DUP3 ADD PUSH1 0x0 PUSH2 0x100 EXP DUP2 SLOAD SWAP1 PUSH1 0xFF MUL NOT AND SWAP1 SSTORE PUSH1 0x1 DUP3 ADD PUSH1 0x0 PUSH2 0x2F3A SWAP2 SWAP1 PUSH2 0x42EA JUMP JUMPDEST POP POP POP JUMP JUMPDEST PUSH32 0xC8F5B4140CCA307CD927E59CBEEA8291BFFEEE228FC677F0FA059AEF7B4DD8D5 DUP2 JUMP JUMPDEST PUSH1 0x5 PUSH1 0x20 MSTORE DUP1 PUSH1 0x0 MSTORE PUSH1 0x40 PUSH1 0x0 KECCAK256 PUSH1 0x0 SWAP2 POP SWAP1 POP DUP1 PUSH1 0x0 ADD PUSH1 0x0 SWAP1 SLOAD SWAP1 PUSH2 0x100 EXP SWAP1 DIV PUSH8 0xFFFFFFFFFFFFFFFF AND SWAP1 DUP1 PUSH1 0x1 ADD PUSH1 0x40 MLOAD DUP1 PUSH1 0xC0 ADD PUSH1 0x40 MSTORE SWAP1 DUP2 PUSH1 0x0 DUP3 ADD PUSH1 0x0 SWAP1 SLOAD SWAP1 PUSH2 0x100 EXP SWAP1 DIV PUSH1 0xFF AND ISZERO ISZERO ISZERO ISZERO DUP2 MSTORE PUSH1 0x20 ADD PUSH1 0x0 DUP3 ADD PUSH1 0x1 SWAP1 SLOAD SWAP1 PUSH2 0x100 EXP SWAP1 DIV PUSH1 0xFF AND ISZERO ISZERO ISZERO ISZERO DUP2 MSTORE PUSH1 0x20 ADD PUSH1 0x1 DUP3 ADD DUP1 SLOAD PUSH2 0x2FE6 SWAP1 PUSH2 0x50C8 JUMP JUMPDEST DUP1 PUSH1 0x1F ADD PUSH1 0x20 DUP1 SWAP2 DIV MUL PUSH1 0x20 ADD PUSH1 0x40 MLOAD SWAP1 DUP2 ADD PUSH1 0x40 MSTORE DUP1 SWAP3 SWAP2 SWAP1 DUP2 DUP2 MSTORE PUSH1 0x20 ADD DUP3 DUP1 SLOAD PUSH2 0x3012 SWAP1 PUSH2 0x50C8 JUMP JUMPDEST DUP1 ISZERO PUSH2 0x305F JUMPI DUP1 PUSH1 0x1F LT PUSH2 0x3034 JUMPI PUSH2 0x100 DUP1 DUP4 SLOAD DIV MUL DUP4 MSTORE SWAP2 PUSH1 0x20 ADD SWAP2 PUSH2 0x305F JUMP JUMPDEST DUP3 ADD SWAP2 SWAP1 PUSH1 0x0 MSTORE PUSH1 0x20 PUSH1 0x0 KECCAK256 SWAP1 JUMPDEST DUP2 SLOAD DUP2 MSTORE SWAP1 PUSH1 0x1 ADD SWAP1 PUSH1 0x20 ADD DUP1 DUP4 GT PUSH2 0x3042 JUMPI DUP3 SWAP1 SUB PUSH1 0x1F AND DUP3 ADD SWAP2 JUMPDEST POP POP POP POP POP DUP2 MSTORE PUSH1 0x20 ADD PUSH1 0x2 DUP3 ADD DUP1 SLOAD PUSH2 0x3078 SWAP1 PUSH2 0x50C8 JUMP JUMPDEST DUP1 PUSH1 0x1F ADD PUSH1 0x20 DUP1 SWAP2 DIV MUL PUSH1 0x20 ADD PUSH1 0x40 MLOAD SWAP1 DUP2 ADD PUSH1 0x40 MSTORE DUP1 SWAP3 SWAP2 SWAP1 DUP2 DUP2 MSTORE PUSH1 0x20 ADD DUP3 DUP1 SLOAD PUSH2 0x30A4 SWAP1 PUSH2 0x50C8 JUMP JUMPDEST DUP1 ISZERO PUSH2 0x30F1 JUMPI DUP1 PUSH1 0x1F LT PUSH2 0x30C6 JUMPI PUSH2 0x100 DUP1 DUP4 SLOAD DIV MUL DUP4 MSTORE SWAP2 PUSH1 0x20 ADD SWAP2 PUSH2 0x30F1 JUMP JUMPDEST DUP3 ADD SWAP2 SWAP1 PUSH1 0x0 MSTORE PUSH1 0x20 PUSH1 0x0 KECCAK256 SWAP1 JUMPDEST DUP2 SLOAD DUP2 MSTORE SWAP1 PUSH1 0x1 ADD SWAP1 PUSH1 0x20 ADD DUP1 DUP4 GT PUSH2 0x30D4 JUMPI DUP3 SWAP1 SUB PUSH1 0x1F AND DUP3 ADD SWAP2 JUMPDEST POP POP POP POP POP DUP2 MSTORE PUSH1 0x20 ADD PUSH1 0x3 DUP3 ADD DUP1 SLOAD PUSH2 0x310A SWAP1 PUSH2 0x50C8 JUMP JUMPDEST DUP1 PUSH1 0x1F ADD PUSH1 0x20 DUP1 SWAP2 DIV MUL PUSH1 0x20 ADD PUSH1 0x40 MLOAD SWAP1 DUP2 ADD PUSH1 0x40 MSTORE DUP1 SWAP3 SWAP2 SWAP1 DUP2 DUP2 MSTORE PUSH1 0x20 ADD DUP3 DUP1 SLOAD PUSH2 0x3136 SWAP1 PUSH2 0x50C8 JUMP JUMPDEST DUP1 ISZERO PUSH2 0x3183 JUMPI DUP1 PUSH1 0x1F LT PUSH2 0x3158 JUMPI PUSH2 0x100 DUP1 DUP4 SLOAD DIV MUL DUP4 MSTORE SWAP2 PUSH1 0x20 ADD SWAP2 PUSH2 0x3183 JUMP JUMPDEST DUP3 ADD SWAP2 SWAP1 PUSH1 0x0 MSTORE PUSH1 0x20 PUSH1 0x0 KECCAK256 SWAP1 JUMPDEST DUP2 SLOAD DUP2 MSTORE SWAP1 PUSH1 0x1 ADD SWAP1 PUSH1 0x20 ADD DUP1 DUP4 GT PUSH2 0x3166 JUMPI DUP3 SWAP1 SUB PUSH1 0x1F AND DUP3 ADD SWAP2 JUMPDEST POP POP POP POP POP DUP2 MSTORE PUSH1 0x20 ADD PUSH1 0x4 DUP3 ADD PUSH1 0x0 SWAP1 SLOAD SWAP1 PUSH2 0x100 EXP SWAP1 DIV PUSH20 0xFFFFFFFFFFFFFFFFFFFFFFFFFFFFFFFFFFFFFFFF AND PUSH20 0xFFFFFFFFFFFFFFFFFFFFFFFFFFFFFFFFFFFFFFFF AND PUSH20 0xFFFFFFFFFFFFFFFFFFFFFFFFFFFFFFFFFFFFFFFF AND DUP2 MSTORE POP POP SWAP1 DUP1 PUSH1 0x6 ADD PUSH1 0x40 MLOAD DUP1 PUSH1 0x80 ADD PUSH1 0x40 MSTORE SWAP1 DUP2 PUSH1 0x0 DUP3 ADD PUSH1 0x0 SWAP1 SLOAD SWAP1 PUSH2 0x100 EXP SWAP1 DIV PUSH1 0xFF AND ISZERO ISZERO ISZERO ISZERO DUP2 MSTORE PUSH1 0x20 ADD PUSH1 0x1 DUP3 ADD DUP1 SLOAD PUSH2 0x321D SWAP1 PUSH2 0x50C8 JUMP JUMPDEST DUP1 PUSH1 0x1F ADD PUSH1 0x20 DUP1 SWAP2 DIV MUL PUSH1 0x20 ADD PUSH1 0x40 MLOAD SWAP1 DUP2 ADD PUSH1 0x40 MSTORE DUP1 SWAP3 SWAP2 SWAP1 DUP2 DUP2 MSTORE PUSH1 0x20 ADD DUP3 DUP1 SLOAD PUSH2 0x3249 SWAP1 PUSH2 0x50C8 JUMP JUMPDEST DUP1 ISZERO PUSH2 0x3296 JUMPI DUP1 PUSH1 0x1F LT PUSH2 0x326B JUMPI PUSH2 0x100 DUP1 DUP4 SLOAD DIV MUL DUP4 MSTORE SWAP2 PUSH1 0x20 ADD SWAP2 PUSH2 0x3296 JUMP JUMPDEST DUP3 ADD SWAP2 SWAP1 PUSH1 0x0 MSTORE PUSH1 0x20 PUSH1 0x0 KECCAK256 SWAP1 JUMPDEST DUP2 SLOAD DUP2 MSTORE SWAP1 PUSH1 0x1 ADD SWAP1 PUSH1 0x20 ADD DUP1 DUP4 GT PUSH2 0x3279 JUMPI DUP3 SWAP1 SUB PUSH1 0x1F AND DUP3 ADD SWAP2 JUMPDEST POP POP POP POP POP DUP2 MSTORE PUSH1 0x20 ADD PUSH1 0x2 DUP3 ADD DUP1 SLOAD PUSH2 0x32AF SWAP1 PUSH2 0x50C8 JUMP JUMPDEST DUP1 PUSH1 0x1F ADD PUSH1 0x20 DUP1 SWAP2 DIV MUL PUSH1 0x20 ADD PUSH1 0x40 MLOAD SWAP1 DUP2 ADD PUSH1 0x40 MSTORE DUP1 SWAP3 SWAP2 SWAP1 DUP2 DUP2 MSTORE PUSH1 0x20 ADD DUP3 DUP1 SLOAD PUSH2 0x32DB SWAP1 PUSH2 0x50C8 JUMP JUMPDEST DUP1 ISZERO PUSH2 0x3328 JUMPI DUP1 PUSH1 0x1F LT PUSH2 0x32FD JUMPI PUSH2 0x100 DUP1 DUP4 SLOAD DIV MUL DUP4 MSTORE SWAP2 PUSH1 0x20 ADD SWAP2 PUSH2 0x3328 JUMP JUMPDEST DUP3 ADD SWAP2 SWAP1 PUSH1 0x0 MSTORE PUSH1 0x20 PUSH1 0x0 KECCAK256 SWAP1 JUMPDEST DUP2 SLOAD DUP2 MSTORE SWAP1 PUSH1 0x1 ADD SWAP1 PUSH1 0x20 ADD DUP1 DUP4 GT PUSH2 0x330B JUMPI DUP3 SWAP1 SUB PUSH1 0x1F AND DUP3 ADD SWAP2 JUMPDEST POP POP POP POP POP DUP2 MSTORE PUSH1 0x20 ADD PUSH1 0x3 DUP3 ADD DUP1 SLOAD PUSH2 0x3341 SWAP1 PUSH2 0x50C8 JUMP JUMPDEST DUP1 PUSH1 0x1F ADD PUSH1 0x20 DUP1 SWAP2 DIV MUL PUSH1 0x20 ADD PUSH1 0x40 MLOAD SWAP1 DUP2 ADD PUSH1 0x40 MSTORE DUP1 SWAP3 SWAP2 SWAP1 DUP2 DUP2 MSTORE PUSH1 0x20 ADD DUP3 DUP1 SLOAD PUSH2 0x336D SWAP1 PUSH2 0x50C8 JUMP JUMPDEST DUP1 ISZERO PUSH2 0x33BA JUMPI DUP1 PUSH1 0x1F LT PUSH2 0x338F JUMPI PUSH2 0x100 DUP1 DUP4 SLOAD DIV MUL DUP4 MSTORE SWAP2 PUSH1 0x20 ADD SWAP2 PUSH2 0x33BA JUMP JUMPDEST DUP3 ADD SWAP2 SWAP1 PUSH1 0x0 MSTORE PUSH1 0x20 PUSH1 0x0 KECCAK256 SWAP1 JUMPDEST DUP2 SLOAD DUP2 MSTORE SWAP1 PUSH1 0x1 ADD SWAP1 PUSH1 0x20 ADD DUP1 DUP4 GT PUSH2 0x339D JUMPI DUP3 SWAP1 SUB PUSH1 0x1F AND DUP3 ADD SWAP2 JUMPDEST POP POP POP POP POP DUP2 MSTORE POP POP SWAP1 DUP1 PUSH1 0xA ADD PUSH1 0x40 MLOAD DUP1 PUSH1 0x40 ADD PUSH1 0x40 MSTORE SWAP1 DUP2 PUSH1 0x0 DUP3 ADD PUSH1 0x0 SWAP1 SLOAD SWAP1 PUSH2 0x100 EXP SWAP1 DIV PUSH1 0xFF AND ISZERO ISZERO ISZERO ISZERO DUP2 MSTORE PUSH1 0x20 ADD PUSH1 0x1 DUP3 ADD DUP1 SLOAD PUSH2 0x33FE SWAP1 PUSH2 0x50C8 JUMP JUMPDEST DUP1 PUSH1 0x1F ADD PUSH1 0x20 DUP1 SWAP2 DIV MUL PUSH1 0x20 ADD PUSH1 0x40 MLOAD SWAP1 DUP2 ADD PUSH1 0x40 MSTORE DUP1 SWAP3 SWAP2 SWAP1 DUP2 DUP2 MSTORE PUSH1 0x20 ADD DUP3 DUP1 SLOAD PUSH2 0x342A SWAP1 PUSH2 0x50C8 JUMP JUMPDEST DUP1 ISZERO PUSH2 0x3477 JUMPI DUP1 PUSH1 0x1F LT PUSH2 0x344C JUMPI PUSH2 0x100 DUP1 DUP4 SLOAD DIV MUL DUP4 MSTORE SWAP2 PUSH1 0x20 ADD SWAP2 PUSH2 0x3477 JUMP JUMPDEST DUP3 ADD SWAP2 SWAP1 PUSH1 0x0 MSTORE PUSH1 0x20 PUSH1 0x0 KECCAK256 SWAP1 JUMPDEST DUP2 SLOAD DUP2 MSTORE SWAP1 PUSH1 0x1 ADD SWAP1 PUSH1 0x20 ADD DUP1 DUP4 GT PUSH2 0x345A JUMPI DUP3 SWAP1 SUB PUSH1 0x1F AND DUP3 ADD SWAP2 JUMPDEST POP POP POP POP POP DUP2 MSTORE POP POP SWAP1 DUP1 PUSH1 0xC ADD DUP1 SLOAD PUSH2 0x3490 SWAP1 PUSH2 0x50C8 JUMP JUMPDEST DUP1 PUSH1 0x1F ADD PUSH1 0x20 DUP1 SWAP2 DIV MUL PUSH1 0x20 ADD PUSH1 0x40 MLOAD SWAP1 DUP2 ADD PUSH1 0x40 MSTORE DUP1 SWAP3 SWAP2 SWAP1 DUP2 DUP2 MSTORE PUSH1 0x20 ADD DUP3 DUP1 SLOAD PUSH2 0x34BC SWAP1 PUSH2 0x50C8 JUMP JUMPDEST DUP1 ISZERO PUSH2 0x3509 JUMPI DUP1 PUSH1 0x1F LT PUSH2 0x34DE JUMPI PUSH2 0x100 DUP1 DUP4 SLOAD DIV MUL DUP4 MSTORE SWAP2 PUSH1 0x20 ADD SWAP2 PUSH2 0x3509 JUMP JUMPDEST DUP3 ADD SWAP2 SWAP1 PUSH1 0x0 MSTORE PUSH1 0x20 PUSH1 0x0 KECCAK256 SWAP1 JUMPDEST DUP2 SLOAD DUP2 MSTORE SWAP1 PUSH1 0x1 ADD SWAP1 PUSH1 0x20 ADD DUP1 DUP4 GT PUSH2 0x34EC JUMPI DUP3 SWAP1 SUB PUSH1 0x1F AND DUP3 ADD SWAP2 JUMPDEST POP POP POP POP POP SWAP1 POP DUP6 JUMP JUMPDEST PUSH1 0x4 PUSH1 0x0 DUP6 PUSH20 0xFFFFFFFFFFFFFFFFFFFFFFFFFFFFFFFFFFFFFFFF AND PUSH20 0xFFFFFFFFFFFFFFFFFFFFFFFFFFFFFFFFFFFFFFFF AND DUP2 MSTORE PUSH1 0x20 ADD SWAP1 DUP2 MSTORE PUSH1 0x20 ADD PUSH1 0x0 KECCAK256 PUSH1 0x0 ADD PUSH1 0x0 SWAP1 SLOAD SWAP1 PUSH2 0x100 EXP SWAP1 DIV PUSH1 0xFF AND ISZERO PUSH2 0x35A3 JUMPI PUSH1 0x40 MLOAD PUSH32 0x8C379A000000000000000000000000000000000000000000000000000000000 DUP2 MSTORE PUSH1 0x4 ADD PUSH2 0x359A SWAP1 PUSH2 0x5B2E JUMP JUMPDEST PUSH1 0x40 MLOAD DUP1 SWAP2 SUB SWAP1 REVERT JUMPDEST PUSH1 0x40 MLOAD DUP1 PUSH1 0x80 ADD PUSH1 0x40 MSTORE DUP1 PUSH1 0x1 ISZERO ISZERO DUP2 MSTORE PUSH1 0x20 ADD DUP5 DUP2 MSTORE PUSH1 0x20 ADD DUP4 DUP2 MSTORE PUSH1 0x20 ADD DUP3 DUP2 MSTORE POP PUSH1 0x4 PUSH1 0x0 DUP7 PUSH20 0xFFFFFFFFFFFFFFFFFFFFFFFFFFFFFFFFFFFFFFFF AND PUSH20 0xFFFFFFFFFFFFFFFFFFFFFFFFFFFFFFFFFFFFFFFF AND DUP2 MSTORE PUSH1 0x20 ADD SWAP1 DUP2 MSTORE PUSH1 0x20 ADD PUSH1 0x0 KECCAK256 PUSH1 0x0 DUP3 ADD MLOAD DUP2 PUSH1 0x0 ADD PUSH1 0x0 PUSH2 0x100 EXP DUP2 SLOAD DUP2 PUSH1 0xFF MUL NOT AND SWAP1 DUP4 ISZERO ISZERO MUL OR SWAP1 SSTORE POP PUSH1 0x20 DUP3 ADD MLOAD DUP2 PUSH1 0x1 ADD SWAP1 DUP2 PUSH2 0x363B SWAP2 SWAP1 PUSH2 0x537D JUMP JUMPDEST POP PUSH1 0x40 DUP3 ADD MLOAD DUP2 PUSH1 0x2 ADD SWAP1 DUP2 PUSH2 0x3651 SWAP2 SWAP1 PUSH2 0x537D JUMP JUMPDEST POP PUSH1 0x60 DUP3 ADD MLOAD DUP2 PUSH1 0x3 ADD SWAP1 DUP2 PUSH2 0x3667 SWAP2 SWAP1 PUSH2 0x537D JUMP JUMPDEST POP SWAP1 POP POP PUSH1 0x8 DUP5 SWAP1 DUP1 PUSH1 0x1 DUP2 SLOAD ADD DUP1 DUP3 SSTORE DUP1 SWAP2 POP POP PUSH1 0x1 SWAP1 SUB SWAP1 PUSH1 0x0 MSTORE PUSH1 0x20 PUSH1 0x0 KECCAK256 ADD PUSH1 0x0 SWAP1 SWAP2 SWAP1 SWAP2 SWAP1 SWAP2 PUSH2 0x100 EXP DUP2 SLOAD DUP2 PUSH20 0xFFFFFFFFFFFFFFFFFFFFFFFFFFFFFFFFFFFFFFFF MUL NOT AND SWAP1 DUP4 PUSH20 0xFFFFFFFFFFFFFFFFFFFFFFFFFFFFFFFFFFFFFFFF AND MUL OR SWAP1 SSTORE POP PUSH32 0xC8702BBCBB48287A2A0D974F0C88E43B6E90727257C37B4F3795F955C47F3D5D DUP5 PUSH1 0x40 MLOAD PUSH2 0x36FD SWAP2 SWAP1 PUSH2 0x4998 JUMP JUMPDEST PUSH1 0x40 MLOAD DUP1 SWAP2 SUB SWAP1 LOG1 PUSH2 0x372F PUSH32 0x14823911F2DA1B49F045A0929A60B8C1F2A7FC8C06C7284CA3E8AB4E193A08C8 DUP6 PUSH2 0x37D8 JUMP JUMPDEST POP POP POP POP POP JUMP JUMPDEST PUSH32 0xAF1DAC7DEA2FD7F7738119CEC7DF099DFAD49AA9D2E7D17BA6B60F63AE7411F DUP2 JUMP JUMPDEST PUSH1 0x0 PUSH32 0x1FFC9A700000000000000000000000000000000000000000000000000000000 PUSH28 0xFFFFFFFFFFFFFFFFFFFFFFFFFFFFFFFFFFFFFFFFFFFFFFFFFFFFFFFF NOT AND DUP3 PUSH28 0xFFFFFFFFFFFFFFFFFFFFFFFFFFFFFFFFFFFFFFFFFFFFFFFFFFFFFFFF NOT AND EQ SWAP1 POP SWAP2 SWAP1 POP JUMP JUMPDEST PUSH2 0x37D5 DUP2 PUSH2 0x37D0 PUSH2 0x38C9 JUMP JUMPDEST PUSH2 0x4249 JUMP JUMPDEST POP JUMP JUMPDEST PUSH1 0x0 PUSH2 0x37E4 DUP4 DUP4 PUSH2 0x1885 JUMP JUMPDEST PUSH2 0x38BE JUMPI PUSH1 0x1 PUSH1 0x0 DUP1 DUP6 DUP2 MSTORE PUSH1 0x20 ADD SWAP1 DUP2 MSTORE PUSH1 0x20 ADD PUSH1 0x0 KECCAK256 PUSH1 0x0 ADD PUSH1 0x0 DUP5 PUSH20 0xFFFFFFFFFFFFFFFFFFFFFFFFFFFFFFFFFFFFFFFF AND PUSH20 0xFFFFFFFFFFFFFFFFFFFFFFFFFFFFFFFFFFFFFFFF AND DUP2 MSTORE PUSH1 0x20 ADD SWAP1 DUP2 MSTORE PUSH1 0x20 ADD PUSH1 0x0 KECCAK256 PUSH1 0x0 PUSH2 0x100 EXP DUP2 SLOAD DUP2 PUSH1 0xFF MUL NOT AND SWAP1 DUP4 ISZERO ISZERO MUL OR SWAP1 SSTORE POP PUSH2 0x385B PUSH2 0x38C9 JUMP JUMPDEST PUSH20 0xFFFFFFFFFFFFFFFFFFFFFFFFFFFFFFFFFFFFFFFF AND DUP3 PUSH20 0xFFFFFFFFFFFFFFFFFFFFFFFFFFFFFFFFFFFFFFFF AND DUP5 PUSH32 0x2F8788117E7EFF1D82E926EC794901D17C78024A50270940304540A733656F0D PUSH1 0x40 MLOAD PUSH1 0x40 MLOAD DUP1 SWAP2 SUB SWAP1 LOG4 PUSH1 0x1 SWAP1 POP PUSH2 0x38C3 JUMP JUMPDEST PUSH1 0x0 SWAP1 POP JUMPDEST SWAP3 SWAP2 POP POP JUMP JUMPDEST PUSH1 0x0 CALLER SWAP1 POP SWAP1 JUMP JUMPDEST PUSH1 0x0 PUSH2 0x38DD DUP4 DUP4 PUSH2 0x1885 JUMP JUMPDEST ISZERO PUSH2 0x39B8 JUMPI PUSH1 0x0 DUP1 PUSH1 0x0 DUP6 DUP2 MSTORE PUSH1 0x20 ADD SWAP1 DUP2 MSTORE PUSH1 0x20 ADD PUSH1 0x0 KECCAK256 PUSH1 0x0 ADD PUSH1 0x0 DUP5 PUSH20 0xFFFFFFFFFFFFFFFFFFFFFFFFFFFFFFFFFFFFFFFF AND PUSH20 0xFFFFFFFFFFFFFFFFFFFFFFFFFFFFFFFFFFFFFFFF AND DUP2 MSTORE PUSH1 0x20 ADD SWAP1 DUP2 MSTORE PUSH1 0x20 ADD PUSH1 0x0 KECCAK256 PUSH1 0x0 PUSH2 0x100 EXP DUP2 SLOAD DUP2 PUSH1 0xFF MUL NOT AND SWAP1 DUP4 ISZERO ISZERO MUL OR SWAP1 SSTORE POP PUSH2 0x3955 PUSH2 0x38C9 JUMP JUMPDEST PUSH20 0xFFFFFFFFFFFFFFFFFFFFFFFFFFFFFFFFFFFFFFFF AND DUP3 PUSH20 0xFFFFFFFFFFFFFFFFFFFFFFFFFFFFFFFFFFFFFFFF AND DUP5 PUSH32 0xF6391F5C32D9C69D2A47EA670B442974B53935D1EDC7FD64EB21E047A839171B PUSH1 0x40 MLOAD PUSH1 0x40 MLOAD DUP1 SWAP2 SUB SWAP1 LOG4 PUSH1 0x1 SWAP1 POP PUSH2 0x39BD JUMP JUMPDEST PUSH1 0x0 SWAP1 POP JUMPDEST SWAP3 SWAP2 POP POP JUMP JUMPDEST PUSH1 0x0 DUP1 PUSH1 0x0 SWAP1 POP JUMPDEST PUSH1 0x1 PUSH1 0x8 SWAP1 SLOAD SWAP1 PUSH2 0x100 EXP SWAP1 DIV PUSH8 0xFFFFFFFFFFFFFFFF AND PUSH8 0xFFFFFFFFFFFFFFFF AND DUP2 PUSH8 0xFFFFFFFFFFFFFFFF AND LT ISZERO PUSH2 0x3C53 JUMPI DUP6 PUSH20 0xFFFFFFFFFFFFFFFFFFFFFFFFFFFFFFFFFFFFFFFF AND PUSH1 0x6 PUSH1 0x0 DUP4 PUSH8 0xFFFFFFFFFFFFFFFF AND PUSH8 0xFFFFFFFFFFFFFFFF AND DUP2 MSTORE PUSH1 0x20 ADD SWAP1 DUP2 MSTORE PUSH1 0x20 ADD PUSH1 0x0 KECCAK256 PUSH1 0x0 ADD PUSH1 0x8 SWAP1 SLOAD SWAP1 PUSH2 0x100 EXP SWAP1 DIV PUSH20 0xFFFFFFFFFFFFFFFFFFFFFFFFFFFFFFFFFFFFFFFF AND PUSH20 0xFFFFFFFFFFFFFFFFFFFFFFFFFFFFFFFFFFFFFFFF AND EQ DUP1 ISZERO PUSH2 0x3AF7 JUMPI POP DUP5 PUSH20 0xFFFFFFFFFFFFFFFFFFFFFFFFFFFFFFFFFFFFFFFF AND PUSH1 0x6 PUSH1 0x0 DUP4 PUSH8 0xFFFFFFFFFFFFFFFF AND PUSH8 0xFFFFFFFFFFFFFFFF AND DUP2 MSTORE PUSH1 0x20 ADD SWAP1 DUP2 MSTORE PUSH1 0x20 ADD PUSH1 0x0 KECCAK256 PUSH1 0x1 ADD PUSH1 0x0 SWAP1 SLOAD SWAP1 PUSH2 0x100 EXP SWAP1 DIV PUSH20 0xFFFFFFFFFFFFFFFFFFFFFFFFFFFFFFFFFFFFFFFF AND PUSH20 0xFFFFFFFFFFFFFFFFFFFFFFFFFFFFFFFFFFFFFFFF AND EQ JUMPDEST DUP1 ISZERO PUSH2 0x3B78 JUMPI POP DUP4 PUSH20 0xFFFFFFFFFFFFFFFFFFFFFFFFFFFFFFFFFFFFFFFF AND PUSH1 0x6 PUSH1 0x0 DUP4 PUSH8 0xFFFFFFFFFFFFFFFF AND PUSH8 0xFFFFFFFFFFFFFFFF AND DUP2 MSTORE PUSH1 0x20 ADD SWAP1 DUP2 MSTORE PUSH1 0x20 ADD PUSH1 0x0 KECCAK256 PUSH1 0x2 ADD PUSH1 0x0 SWAP1 SLOAD SWAP1 PUSH2 0x100 EXP SWAP1 DIV PUSH20 0xFFFFFFFFFFFFFFFFFFFFFFFFFFFFFFFFFFFFFFFF AND PUSH20 0xFFFFFFFFFFFFFFFFFFFFFFFFFFFFFFFFFFFFFFFF AND EQ JUMPDEST DUP1 ISZERO PUSH2 0x3BF8 JUMPI POP DUP3 PUSH1 0x40 MLOAD PUSH1 0x20 ADD PUSH2 0x3B90 SWAP2 SWAP1 PUSH2 0x5B8A JUMP JUMPDEST PUSH1 0x40 MLOAD PUSH1 0x20 DUP2 DUP4 SUB SUB DUP2 MSTORE SWAP1 PUSH1 0x40 MSTORE DUP1 MLOAD SWAP1 PUSH1 0x20 ADD KECCAK256 PUSH1 0x6 PUSH1 0x0 DUP4 PUSH8 0xFFFFFFFFFFFFFFFF AND PUSH8 0xFFFFFFFFFFFFFFFF AND DUP2 MSTORE PUSH1 0x20 ADD SWAP1 DUP2 MSTORE PUSH1 0x20 ADD PUSH1 0x0 KECCAK256 PUSH1 0x3 ADD PUSH1 0x40 MLOAD PUSH1 0x20 ADD PUSH2 0x3BE0 SWAP2 SWAP1 PUSH2 0x5C24 JUMP JUMPDEST PUSH1 0x40 MLOAD PUSH1 0x20 DUP2 DUP4 SUB SUB DUP2 MSTORE SWAP1 PUSH1 0x40 MSTORE DUP1 MLOAD SWAP1 PUSH1 0x20 ADD KECCAK256 EQ JUMPDEST DUP1 ISZERO PUSH2 0x3C38 JUMPI POP PUSH1 0x6 PUSH1 0x0 DUP3 PUSH8 0xFFFFFFFFFFFFFFFF AND PUSH8 0xFFFFFFFFFFFFFFFF AND DUP2 MSTORE PUSH1 0x20 ADD SWAP1 DUP2 MSTORE PUSH1 0x20 ADD PUSH1 0x0 KECCAK256 PUSH1 0x4 ADD PUSH1 0x0 SWAP1 SLOAD SWAP1 PUSH2 0x100 EXP SWAP1 DIV PUSH1 0xFF AND JUMPDEST ISZERO PUSH2 0x3C46 JUMPI DUP1 SWAP2 POP POP PUSH2 0x3C8F JUMP JUMPDEST DUP1 DUP1 PUSH1 0x1 ADD SWAP2 POP POP PUSH2 0x39CB JUMP JUMPDEST POP PUSH1 0x40 MLOAD PUSH32 0x8C379A000000000000000000000000000000000000000000000000000000000 DUP2 MSTORE PUSH1 0x4 ADD PUSH2 0x3C86 SWAP1 PUSH2 0x5C87 JUMP JUMPDEST PUSH1 0x40 MLOAD DUP1 SWAP2 SUB SWAP1 REVERT JUMPDEST SWAP5 SWAP4 POP POP POP POP JUMP JUMPDEST PUSH1 0x0 JUMPDEST PUSH1 0x8 DUP1 SLOAD SWAP1 POP DUP2 PUSH8 0xFFFFFFFFFFFFFFFF AND LT ISZERO PUSH2 0x3E78 JUMPI DUP2 PUSH20 0xFFFFFFFFFFFFFFFFFFFFFFFFFFFFFFFFFFFFFFFF AND PUSH1 0x8 DUP3 PUSH8 0xFFFFFFFFFFFFFFFF AND DUP2 SLOAD DUP2 LT PUSH2 0x3CE6 JUMPI PUSH2 0x3CE5 PUSH2 0x5CA7 JUMP JUMPDEST JUMPDEST SWAP1 PUSH1 0x0 MSTORE PUSH1 0x20 PUSH1 0x0 KECCAK256 ADD PUSH1 0x0 SWAP1 SLOAD SWAP1 PUSH2 0x100 EXP SWAP1 DIV PUSH20 0xFFFFFFFFFFFFFFFFFFFFFFFFFFFFFFFFFFFFFFFF AND PUSH20 0xFFFFFFFFFFFFFFFFFFFFFFFFFFFFFFFFFFFFFFFF AND SUB PUSH2 0x3E65 JUMPI PUSH1 0x8 PUSH1 0x1 PUSH1 0x8 DUP1 SLOAD SWAP1 POP PUSH2 0x3D40 SWAP2 SWAP1 PUSH2 0x5CD6 JUMP JUMPDEST DUP2 SLOAD DUP2 LT PUSH2 0x3D51 JUMPI PUSH2 0x3D50 PUSH2 0x5CA7 JUMP JUMPDEST JUMPDEST SWAP1 PUSH1 0x0 MSTORE PUSH1 0x20 PUSH1 0x0 KECCAK256 ADD PUSH1 0x0 SWAP1 SLOAD SWAP1 PUSH2 0x100 EXP SWAP1 DIV PUSH20 0xFFFFFFFFFFFFFFFFFFFFFFFFFFFFFFFFFFFFFFFF AND PUSH1 0x8 DUP3 PUSH8 0xFFFFFFFFFFFFFFFF AND DUP2 SLOAD DUP2 LT PUSH2 0x3D9A JUMPI PUSH2 0x3D99 PUSH2 0x5CA7 JUMP JUMPDEST JUMPDEST SWAP1 PUSH1 0x0 MSTORE PUSH1 0x20 PUSH1 0x0 KECCAK256 ADD PUSH1 0x0 PUSH2 0x100 EXP DUP2 SLOAD DUP2 PUSH20 0xFFFFFFFFFFFFFFFFFFFFFFFFFFFFFFFFFFFFFFFF MUL NOT AND SWAP1 DUP4 PUSH20 0xFFFFFFFFFFFFFFFFFFFFFFFFFFFFFFFFFFFFFFFF AND MUL OR SWAP1 SSTORE POP PUSH1 0x8 DUP1 SLOAD DUP1 PUSH2 0x3DF4 JUMPI PUSH2 0x3DF3 PUSH2 0x5D0A JUMP JUMPDEST JUMPDEST PUSH1 0x1 SWAP1 SUB DUP2 DUP2 SWAP1 PUSH1 0x0 MSTORE PUSH1 0x20 PUSH1 0x0 KECCAK256 ADD PUSH1 0x0 PUSH2 0x100 EXP DUP2 SLOAD SWAP1 PUSH20 0xFFFFFFFFFFFFFFFFFFFFFFFFFFFFFFFFFFFFFFFF MUL NOT AND SWAP1 SSTORE SWAP1 SSTORE PUSH32 0xBA57158DA2085997394901BF3A39951041537C10F8461F90ED82E17E7F50E8B DUP3 PUSH1 0x40 MLOAD PUSH2 0x3E58 SWAP2 SWAP1 PUSH2 0x4998 JUMP JUMPDEST PUSH1 0x40 MLOAD DUP1 SWAP2 SUB SWAP1 LOG1 PUSH2 0x3E78 JUMP JUMPDEST DUP1 DUP1 PUSH2 0x3E70 SWAP1 PUSH2 0x5654 JUMP JUMPDEST SWAP2 POP POP PUSH2 0x3C9A JUMP JUMPDEST POP POP JUMP JUMPDEST PUSH1 0x0 PUSH1 0x7 DUP1 SLOAD SWAP1 POP SWAP1 POP PUSH1 0x0 JUMPDEST DUP2 DUP2 LT ISZERO PUSH2 0x4002 JUMPI DUP3 PUSH20 0xFFFFFFFFFFFFFFFFFFFFFFFFFFFFFFFFFFFFFFFF AND PUSH1 0x7 DUP3 DUP2 SLOAD DUP2 LT PUSH2 0x3EBC JUMPI PUSH2 0x3EBB PUSH2 0x5CA7 JUMP JUMPDEST JUMPDEST SWAP1 PUSH1 0x0 MSTORE PUSH1 0x20 PUSH1 0x0 KECCAK256 ADD PUSH1 0x0 SWAP1 SLOAD SWAP1 PUSH2 0x100 EXP SWAP1 DIV PUSH20 0xFFFFFFFFFFFFFFFFFFFFFFFFFFFFFFFFFFFFFFFF AND PUSH20 0xFFFFFFFFFFFFFFFFFFFFFFFFFFFFFFFFFFFFFFFF AND SUB PUSH2 0x3FF5 JUMPI PUSH1 0x7 PUSH1 0x1 DUP4 PUSH2 0x3F11 SWAP2 SWAP1 PUSH2 0x5CD6 JUMP JUMPDEST DUP2 SLOAD DUP2 LT PUSH2 0x3F22 JUMPI PUSH2 0x3F21 PUSH2 0x5CA7 JUMP JUMPDEST JUMPDEST SWAP1 PUSH1 0x0 MSTORE PUSH1 0x20 PUSH1 0x0 KECCAK256 ADD PUSH1 0x0 SWAP1 SLOAD SWAP1 PUSH2 0x100 EXP SWAP1 DIV PUSH20 0xFFFFFFFFFFFFFFFFFFFFFFFFFFFFFFFFFFFFFFFF AND PUSH1 0x7 DUP3 DUP2 SLOAD DUP2 LT PUSH2 0x3F61 JUMPI PUSH2 0x3F60 PUSH2 0x5CA7 JUMP JUMPDEST JUMPDEST SWAP1 PUSH1 0x0 MSTORE PUSH1 0x20 PUSH1 0x0 KECCAK256 ADD PUSH1 0x0 PUSH2 0x100 EXP DUP2 SLOAD DUP2 PUSH20 0xFFFFFFFFFFFFFFFFFFFFFFFFFFFFFFFFFFFFFFFF MUL NOT AND SWAP1 DUP4 PUSH20 0xFFFFFFFFFFFFFFFFFFFFFFFFFFFFFFFFFFFFFFFF AND MUL OR SWAP1 SSTORE POP PUSH1 0x7 DUP1 SLOAD DUP1 PUSH2 0x3FBB JUMPI PUSH2 0x3FBA PUSH2 0x5D0A JUMP JUMPDEST JUMPDEST PUSH1 0x1 SWAP1 SUB DUP2 DUP2 SWAP1 PUSH1 0x0 MSTORE PUSH1 0x20 PUSH1 0x0 KECCAK256 ADD PUSH1 0x0 PUSH2 0x100 EXP DUP2 SLOAD SWAP1 PUSH20 0xFFFFFFFFFFFFFFFFFFFFFFFFFFFFFFFFFFFFFFFF MUL NOT AND SWAP1 SSTORE SWAP1 SSTORE PUSH2 0x4002 JUMP JUMPDEST DUP1 DUP1 PUSH1 0x1 ADD SWAP2 POP POP PUSH2 0x3E89 JUMP JUMPDEST POP POP POP JUMP JUMPDEST PUSH1 0x0 PUSH1 0x7 DUP1 SLOAD SWAP1 POP SWAP1 POP PUSH1 0x0 JUMPDEST DUP2 DUP2 LT ISZERO PUSH2 0x4244 JUMPI PUSH1 0x0 PUSH1 0x7 DUP3 DUP2 SLOAD DUP2 LT PUSH2 0x4032 JUMPI PUSH2 0x4031 PUSH2 0x5CA7 JUMP JUMPDEST JUMPDEST SWAP1 PUSH1 0x0 MSTORE PUSH1 0x20 PUSH1 0x0 KECCAK256 ADD PUSH1 0x0 SWAP1 SLOAD SWAP1 PUSH2 0x100 EXP SWAP1 DIV PUSH20 0xFFFFFFFFFFFFFFFFFFFFFFFFFFFFFFFFFFFFFFFF AND SWAP1 POP DUP4 PUSH20 0xFFFFFFFFFFFFFFFFFFFFFFFFFFFFFFFFFFFFFFFF AND PUSH1 0x3 PUSH1 0x0 DUP4 PUSH20 0xFFFFFFFFFFFFFFFFFFFFFFFFFFFFFFFFFFFFFFFF AND PUSH20 0xFFFFFFFFFFFFFFFFFFFFFFFFFFFFFFFFFFFFFFFF AND DUP2 MSTORE PUSH1 0x20 ADD SWAP1 DUP2 MSTORE PUSH1 0x20 ADD PUSH1 0x0 KECCAK256 PUSH1 0x4 ADD PUSH1 0x0 SWAP1 SLOAD SWAP1 PUSH2 0x100 EXP SWAP1 DIV PUSH20 0xFFFFFFFFFFFFFFFFFFFFFFFFFFFFFFFFFFFFFFFF AND PUSH20 0xFFFFFFFFFFFFFFFFFFFFFFFFFFFFFFFFFFFFFFFF AND SUB PUSH2 0x422F JUMPI PUSH2 0x40FD DUP2 PUSH2 0x2065 JUMP JUMPDEST PUSH32 0x493D7CF6A7C880406A55654D6727464EA088BD01D40498E1987A327E68961AB8 DUP2 PUSH1 0x40 MLOAD PUSH2 0x412C SWAP2 SWAP1 PUSH2 0x4998 JUMP JUMPDEST PUSH1 0x40 MLOAD DUP1 SWAP2 SUB SWAP1 LOG1 PUSH1 0x1 DUP4 GT ISZERO PUSH2 0x41E5 JUMPI PUSH1 0x7 PUSH1 0x1 DUP5 PUSH2 0x414C SWAP2 SWAP1 PUSH2 0x5CD6 JUMP JUMPDEST DUP2 SLOAD DUP2 LT PUSH2 0x415D JUMPI PUSH2 0x415C PUSH2 0x5CA7 JUMP JUMPDEST JUMPDEST SWAP1 PUSH1 0x0 MSTORE PUSH1 0x20 PUSH1 0x0 KECCAK256 ADD PUSH1 0x0 SWAP1 SLOAD SWAP1 PUSH2 0x100 EXP SWAP1 DIV PUSH20 0xFFFFFFFFFFFFFFFFFFFFFFFFFFFFFFFFFFFFFFFF AND PUSH1 0x7 DUP4 DUP2 SLOAD DUP2 LT PUSH2 0x419C JUMPI PUSH2 0x419B PUSH2 0x5CA7 JUMP JUMPDEST JUMPDEST SWAP1 PUSH1 0x0 MSTORE PUSH1 0x20 PUSH1 0x0 KECCAK256 ADD PUSH1 0x0 PUSH2 0x100 EXP DUP2 SLOAD DUP2 PUSH20 0xFFFFFFFFFFFFFFFFFFFFFFFFFFFFFFFFFFFFFFFF MUL NOT AND SWAP1 DUP4 PUSH20 0xFFFFFFFFFFFFFFFFFFFFFFFFFFFFFFFFFFFFFFFF AND MUL OR SWAP1 SSTORE POP JUMPDEST DUP3 DUP1 PUSH2 0x41F0 SWAP1 PUSH2 0x5D39 JUMP JUMPDEST SWAP4 POP POP PUSH32 0xC6012FF124B01924D7B4979454F1D5ECF08C098A27498BC901A0BCF370CF1DE0 DUP2 PUSH1 0x40 MLOAD PUSH2 0x4222 SWAP2 SWAP1 PUSH2 0x4998 JUMP JUMPDEST PUSH1 0x40 MLOAD DUP1 SWAP2 SUB SWAP1 LOG1 PUSH2 0x423E JUMP JUMPDEST DUP2 DUP1 PUSH2 0x423A SWAP1 PUSH2 0x5D62 JUMP JUMPDEST SWAP3 POP POP JUMPDEST POP PUSH2 0x4014 JUMP JUMPDEST POP POP POP JUMP JUMPDEST PUSH2 0x4253 DUP3 DUP3 PUSH2 0x1885 JUMP JUMPDEST PUSH2 0x4296 JUMPI DUP1 DUP3 PUSH1 0x40 MLOAD PUSH32 0xE2517D3F00000000000000000000000000000000000000000000000000000000 DUP2 MSTORE PUSH1 0x4 ADD PUSH2 0x428D SWAP3 SWAP2 SWAP1 PUSH2 0x5DAA JUMP JUMPDEST PUSH1 0x40 MLOAD DUP1 SWAP2 SUB SWAP1 REVERT JUMPDEST POP POP JUMP JUMPDEST PUSH1 0x40 MLOAD DUP1 PUSH1 0xC0 ADD PUSH1 0x40 MSTORE DUP1 PUSH1 0x0 ISZERO ISZERO DUP2 MSTORE PUSH1 0x20 ADD PUSH1 0x0 ISZERO ISZERO DUP2 MSTORE PUSH1 0x20 ADD PUSH1 0x60 DUP2 MSTORE PUSH1 0x20 ADD PUSH1 0x60 DUP2 MSTORE PUSH1 0x20 ADD PUSH1 0x60 DUP2 MSTORE PUSH1 0x20 ADD PUSH1 0x0 PUSH20 0xFFFFFFFFFFFFFFFFFFFFFFFFFFFFFFFFFFFFFFFF AND DUP2 MSTORE POP SWAP1 JUMP JUMPDEST POP DUP1 SLOAD PUSH2 0x42F6 SWAP1 PUSH2 0x50C8 JUMP JUMPDEST PUSH1 0x0 DUP3 SSTORE DUP1 PUSH1 0x1F LT PUSH2 0x4308 JUMPI POP PUSH2 0x4327 JUMP JUMPDEST PUSH1 0x1F ADD PUSH1 0x20 SWAP1 DIV SWAP1 PUSH1 0x0 MSTORE PUSH1 0x20 PUSH1 0x0 KECCAK256 SWAP1 DUP2 ADD SWAP1 PUSH2 0x4326 SWAP2 SWAP1 PUSH2 0x4370 JUMP JUMPDEST JUMPDEST POP JUMP JUMPDEST PUSH1 0x40 MLOAD DUP1 PUSH1 0x80 ADD PUSH1 0x40 MSTORE DUP1 PUSH1 0x0 ISZERO ISZERO DUP2 MSTORE PUSH1 0x20 ADD PUSH1 0x60 DUP2 MSTORE PUSH1 0x20 ADD PUSH1 0x60 DUP2 MSTORE PUSH1 0x20 ADD PUSH1 0x60 DUP2 MSTORE POP SWAP1 JUMP JUMPDEST PUSH1 0x40 MLOAD DUP1 PUSH1 0x40 ADD PUSH1 0x40 MSTORE DUP1 PUSH1 0x0 ISZERO ISZERO DUP2 MSTORE PUSH1 0x20 ADD PUSH1 0x60 DUP2 MSTORE POP SWAP1 JUMP JUMPDEST JUMPDEST DUP1 DUP3 GT ISZERO PUSH2 0x4389 JUMPI PUSH1 0x0 DUP2 PUSH1 0x0 SWAP1 SSTORE POP PUSH1 0x1 ADD PUSH2 0x4371 JUMP JUMPDEST POP SWAP1 JUMP JUMPDEST PUSH1 0x0 PUSH1 0x40 MLOAD SWAP1 POP SWAP1 JUMP JUMPDEST PUSH1 0x0 DUP1 REVERT JUMPDEST PUSH1 0x0 DUP1 REVERT JUMPDEST PUSH1 0x0 PUSH32 0xFFFFFFFF00000000000000000000000000000000000000000000000000000000 DUP3 AND SWAP1 POP SWAP2 SWAP1 POP JUMP JUMPDEST PUSH2 0x43D6 DUP2 PUSH2 0x43A1 JUMP JUMPDEST DUP2 EQ PUSH2 0x43E1 JUMPI PUSH1 0x0 DUP1 REVERT JUMPDEST POP JUMP JUMPDEST PUSH1 0x0 DUP2 CALLDATALOAD SWAP1 POP PUSH2 0x43F3 DUP2 PUSH2 0x43CD JUMP JUMPDEST SWAP3 SWAP2 POP POP JUMP JUMPDEST PUSH1 0x0 PUSH1 0x20 DUP3 DUP5 SUB SLT ISZERO PUSH2 0x440F JUMPI PUSH2 0x440E PUSH2 0x4397 JUMP JUMPDEST JUMPDEST PUSH1 0x0 PUSH2 0x441D DUP5 DUP3 DUP6 ADD PUSH2 0x43E4 JUMP JUMPDEST SWAP2 POP POP SWAP3 SWAP2 POP POP JUMP JUMPDEST PUSH1 0x0 DUP2 ISZERO ISZERO SWAP1 POP SWAP2 SWAP1 POP JUMP JUMPDEST PUSH2 0x443B DUP2 PUSH2 0x4426 JUMP JUMPDEST DUP3 MSTORE POP POP JUMP JUMPDEST PUSH1 0x0 PUSH1 0x20 DUP3 ADD SWAP1 POP PUSH2 0x4456 PUSH1 0x0 DUP4 ADD DUP5 PUSH2 0x4432 JUMP JUMPDEST SWAP3 SWAP2 POP POP JUMP JUMPDEST PUSH1 0x0 PUSH20 0xFFFFFFFFFFFFFFFFFFFFFFFFFFFFFFFFFFFFFFFF DUP3 AND SWAP1 POP SWAP2 SWAP1 POP JUMP JUMPDEST PUSH1 0x0 PUSH2 0x4487 DUP3 PUSH2 0x445C JUMP JUMPDEST SWAP1 POP SWAP2 SWAP1 POP JUMP JUMPDEST PUSH2 0x4497 DUP2 PUSH2 0x447C JUMP JUMPDEST DUP2 EQ PUSH2 0x44A2 JUMPI PUSH1 0x0 DUP1 REVERT JUMPDEST POP JUMP JUMPDEST PUSH1 0x0 DUP2 CALLDATALOAD SWAP1 POP PUSH2 0x44B4 DUP2 PUSH2 0x448E JUMP JUMPDEST SWAP3 SWAP2 POP POP JUMP JUMPDEST PUSH1 0x0 PUSH1 0x20 DUP3 DUP5 SUB SLT ISZERO PUSH2 0x44D0 JUMPI PUSH2 0x44CF PUSH2 0x4397 JUMP JUMPDEST JUMPDEST PUSH1 0x0 PUSH2 0x44DE DUP5 DUP3 DUP6 ADD PUSH2 0x44A5 JUMP JUMPDEST SWAP2 POP POP SWAP3 SWAP2 POP POP JUMP JUMPDEST PUSH2 0x44F0 DUP2 PUSH2 0x4426 JUMP JUMPDEST DUP3 MSTORE POP POP JUMP JUMPDEST PUSH1 0x0 DUP2 MLOAD SWAP1 POP SWAP2 SWAP1 POP JUMP JUMPDEST PUSH1 0x0 DUP3 DUP3 MSTORE PUSH1 0x20 DUP3 ADD SWAP1 POP SWAP3 SWAP2 POP POP JUMP JUMPDEST PUSH1 0x0 JUMPDEST DUP4 DUP2 LT ISZERO PUSH2 0x4530 JUMPI DUP1 DUP3 ADD MLOAD DUP2 DUP5 ADD MSTORE PUSH1 0x20 DUP2 ADD SWAP1 POP PUSH2 0x4515 JUMP JUMPDEST PUSH1 0x0 DUP5 DUP5 ADD MSTORE POP POP POP POP JUMP JUMPDEST PUSH1 0x0 PUSH1 0x1F NOT PUSH1 0x1F DUP4 ADD AND SWAP1 POP SWAP2 SWAP1 POP JUMP JUMPDEST PUSH1 0x0 PUSH2 0x4558 DUP3 PUSH2 0x44F6 JUMP JUMPDEST PUSH2 0x4562 DUP2 DUP6 PUSH2 0x4501 JUMP JUMPDEST SWAP4 POP PUSH2 0x4572 DUP2 DUP6 PUSH1 0x20 DUP7 ADD PUSH2 0x4512 JUMP JUMPDEST PUSH2 0x457B DUP2 PUSH2 0x453C JUMP JUMPDEST DUP5 ADD SWAP2 POP POP SWAP3 SWAP2 POP POP JUMP JUMPDEST PUSH2 0x458F DUP2 PUSH2 0x447C JUMP JUMPDEST DUP3 MSTORE POP POP JUMP JUMPDEST PUSH1 0x0 PUSH1 0xC0 DUP4 ADD PUSH1 0x0 DUP4 ADD MLOAD PUSH2 0x45AD PUSH1 0x0 DUP7 ADD DUP3 PUSH2 0x44E7 JUMP JUMPDEST POP PUSH1 0x20 DUP4 ADD MLOAD PUSH2 0x45C0 PUSH1 0x20 DUP7 ADD DUP3 PUSH2 0x44E7 JUMP JUMPDEST POP PUSH1 0x40 DUP4 ADD MLOAD DUP5 DUP3 SUB PUSH1 0x40 DUP7 ADD MSTORE PUSH2 0x45D8 DUP3 DUP3 PUSH2 0x454D JUMP JUMPDEST SWAP2 POP POP PUSH1 0x60 DUP4 ADD MLOAD DUP5 DUP3 SUB PUSH1 0x60 DUP7 ADD MSTORE PUSH2 0x45F2 DUP3 DUP3 PUSH2 0x454D JUMP JUMPDEST SWAP2 POP POP PUSH1 0x80 DUP4 ADD MLOAD DUP5 DUP3 SUB PUSH1 0x80 DUP7 ADD MSTORE PUSH2 0x460C DUP3 DUP3 PUSH2 0x454D JUMP JUMPDEST SWAP2 POP POP PUSH1 0xA0 DUP4 ADD MLOAD PUSH2 0x4621 PUSH1 0xA0 DUP7 ADD DUP3 PUSH2 0x4586 JUMP JUMPDEST POP DUP1 SWAP2 POP POP SWAP3 SWAP2 POP POP JUMP JUMPDEST PUSH1 0x0 PUSH1 0x20 DUP3 ADD SWAP1 POP DUP2 DUP2 SUB PUSH1 0x0 DUP4 ADD MSTORE PUSH2 0x4646 DUP2 DUP5 PUSH2 0x4595 JUMP JUMPDEST SWAP1 POP SWAP3 SWAP2 POP POP JUMP JUMPDEST PUSH1 0x0 DUP2 SWAP1 POP SWAP2 SWAP1 POP JUMP JUMPDEST PUSH2 0x4661 DUP2 PUSH2 0x464E JUMP JUMPDEST DUP3 MSTORE POP POP JUMP JUMPDEST PUSH1 0x0 PUSH1 0x20 DUP3 ADD SWAP1 POP PUSH2 0x467C PUSH1 0x0 DUP4 ADD DUP5 PUSH2 0x4658 JUMP JUMPDEST SWAP3 SWAP2 POP POP JUMP JUMPDEST PUSH1 0x0 DUP3 DUP3 MSTORE PUSH1 0x20 DUP3 ADD SWAP1 POP SWAP3 SWAP2 POP POP JUMP JUMPDEST PUSH1 0x0 PUSH2 0x469E DUP3 PUSH2 0x44F6 JUMP JUMPDEST PUSH2 0x46A8 DUP2 DUP6 PUSH2 0x4682 JUMP JUMPDEST SWAP4 POP PUSH2 0x46B8 DUP2 DUP6 PUSH1 0x20 DUP7 ADD PUSH2 0x4512 JUMP JUMPDEST PUSH2 0x46C1 DUP2 PUSH2 0x453C JUMP JUMPDEST DUP5 ADD SWAP2 POP POP SWAP3 SWAP2 POP POP JUMP JUMPDEST PUSH1 0x0 PUSH1 0x40 DUP3 ADD SWAP1 POP PUSH2 0x46E1 PUSH1 0x0 DUP4 ADD DUP6 PUSH2 0x4432 JUMP JUMPDEST DUP2 DUP2 SUB PUSH1 0x20 DUP4 ADD MSTORE PUSH2 0x46F3 DUP2 DUP5 PUSH2 0x4693 JUMP JUMPDEST SWAP1 POP SWAP4 SWAP3 POP POP POP JUMP JUMPDEST PUSH2 0x4705 DUP2 PUSH2 0x464E JUMP JUMPDEST DUP2 EQ PUSH2 0x4710 JUMPI PUSH1 0x0 DUP1 REVERT JUMPDEST POP JUMP JUMPDEST PUSH1 0x0 DUP2 CALLDATALOAD SWAP1 POP PUSH2 0x4722 DUP2 PUSH2 0x46FC JUMP JUMPDEST SWAP3 SWAP2 POP POP JUMP JUMPDEST PUSH1 0x0 PUSH1 0x20 DUP3 DUP5 SUB SLT ISZERO PUSH2 0x473E JUMPI PUSH2 0x473D PUSH2 0x4397 JUMP JUMPDEST JUMPDEST PUSH1 0x0 PUSH2 0x474C DUP5 DUP3 DUP6 ADD PUSH2 0x4713 JUMP JUMPDEST SWAP2 POP POP SWAP3 SWAP2 POP POP JUMP JUMPDEST PUSH1 0x0 DUP1 PUSH1 0x40 DUP4 DUP6 SUB SLT ISZERO PUSH2 0x476C JUMPI PUSH2 0x476B PUSH2 0x4397 JUMP JUMPDEST JUMPDEST PUSH1 0x0 PUSH2 0x477A DUP6 DUP3 DUP7 ADD PUSH2 0x4713 JUMP JUMPDEST SWAP3 POP POP PUSH1 0x20 PUSH2 0x478B DUP6 DUP3 DUP7 ADD PUSH2 0x44A5 JUMP JUMPDEST SWAP2 POP POP SWAP3 POP SWAP3 SWAP1 POP JUMP JUMPDEST PUSH1 0x0 DUP1 REVERT JUMPDEST PUSH1 0x0 DUP1 REVERT JUMPDEST PUSH32 0x4E487B7100000000000000000000000000000000000000000000000000000000 PUSH1 0x0 MSTORE PUSH1 0x41 PUSH1 0x4 MSTORE PUSH1 0x24 PUSH1 0x0 REVERT JUMPDEST PUSH2 0x47D7 DUP3 PUSH2 0x453C JUMP JUMPDEST DUP2 ADD DUP2 DUP2 LT PUSH8 0xFFFFFFFFFFFFFFFF DUP3 GT OR ISZERO PUSH2 0x47F6 JUMPI PUSH2 0x47F5 PUSH2 0x479F JUMP JUMPDEST JUMPDEST DUP1 PUSH1 0x40 MSTORE POP POP POP JUMP JUMPDEST PUSH1 0x0 PUSH2 0x4809 PUSH2 0x438D JUMP JUMPDEST SWAP1 POP PUSH2 0x4815 DUP3 DUP3 PUSH2 0x47CE JUMP JUMPDEST SWAP2 SWAP1 POP JUMP JUMPDEST PUSH1 0x0 PUSH8 0xFFFFFFFFFFFFFFFF DUP3 GT ISZERO PUSH2 0x4835 JUMPI PUSH2 0x4834 PUSH2 0x479F JUMP JUMPDEST JUMPDEST PUSH2 0x483E DUP3 PUSH2 0x453C JUMP JUMPDEST SWAP1 POP PUSH1 0x20 DUP2 ADD SWAP1 POP SWAP2 SWAP1 POP JUMP JUMPDEST DUP3 DUP2 DUP4 CALLDATACOPY PUSH1 0x0 DUP4 DUP4 ADD MSTORE POP POP POP JUMP JUMPDEST PUSH1 0x0 PUSH2 0x486D PUSH2 0x4868 DUP5 PUSH2 0x481A JUMP JUMPDEST PUSH2 0x47FF JUMP JUMPDEST SWAP1 POP DUP3 DUP2 MSTORE PUSH1 0x20 DUP2 ADD DUP5 DUP5 DUP5 ADD GT ISZERO PUSH2 0x4889 JUMPI PUSH2 0x4888 PUSH2 0x479A JUMP JUMPDEST JUMPDEST PUSH2 0x4894 DUP5 DUP3 DUP6 PUSH2 0x484B JUMP JUMPDEST POP SWAP4 SWAP3 POP POP POP JUMP JUMPDEST PUSH1 0x0 DUP3 PUSH1 0x1F DUP4 ADD SLT PUSH2 0x48B1 JUMPI PUSH2 0x48B0 PUSH2 0x4795 JUMP JUMPDEST JUMPDEST DUP2 CALLDATALOAD PUSH2 0x48C1 DUP5 DUP3 PUSH1 0x20 DUP7 ADD PUSH2 0x485A JUMP JUMPDEST SWAP2 POP POP SWAP3 SWAP2 POP POP JUMP JUMPDEST PUSH1 0x0 DUP1 PUSH1 0x40 DUP4 DUP6 SUB SLT ISZERO PUSH2 0x48E1 JUMPI PUSH2 0x48E0 PUSH2 0x4397 JUMP JUMPDEST JUMPDEST PUSH1 0x0 PUSH2 0x48EF DUP6 DUP3 DUP7 ADD PUSH2 0x44A5 JUMP JUMPDEST SWAP3 POP POP PUSH1 0x20 DUP4 ADD CALLDATALOAD PUSH8 0xFFFFFFFFFFFFFFFF DUP2 GT ISZERO PUSH2 0x4910 JUMPI PUSH2 0x490F PUSH2 0x439C JUMP JUMPDEST JUMPDEST PUSH2 0x491C DUP6 DUP3 DUP7 ADD PUSH2 0x489C JUMP JUMPDEST SWAP2 POP POP SWAP3 POP SWAP3 SWAP1 POP JUMP JUMPDEST PUSH1 0x0 DUP2 SWAP1 POP SWAP2 SWAP1 POP JUMP JUMPDEST PUSH2 0x4939 DUP2 PUSH2 0x4926 JUMP JUMPDEST DUP2 EQ PUSH2 0x4944 JUMPI PUSH1 0x0 DUP1 REVERT JUMPDEST POP JUMP JUMPDEST PUSH1 0x0 DUP2 CALLDATALOAD SWAP1 POP PUSH2 0x4956 DUP2 PUSH2 0x4930 JUMP JUMPDEST SWAP3 SWAP2 POP POP JUMP JUMPDEST PUSH1 0x0 PUSH1 0x20 DUP3 DUP5 SUB SLT ISZERO PUSH2 0x4972 JUMPI PUSH2 0x4971 PUSH2 0x4397 JUMP JUMPDEST JUMPDEST PUSH1 0x0 PUSH2 0x4980 DUP5 DUP3 DUP6 ADD PUSH2 0x4947 JUMP JUMPDEST SWAP2 POP POP SWAP3 SWAP2 POP POP JUMP JUMPDEST PUSH2 0x4992 DUP2 PUSH2 0x447C JUMP JUMPDEST DUP3 MSTORE POP POP JUMP JUMPDEST PUSH1 0x0 PUSH1 0x20 DUP3 ADD SWAP1 POP PUSH2 0x49AD PUSH1 0x0 DUP4 ADD DUP5 PUSH2 0x4989 JUMP JUMPDEST SWAP3 SWAP2 POP POP JUMP JUMPDEST PUSH1 0x0 PUSH8 0xFFFFFFFFFFFFFFFF DUP3 AND SWAP1 POP SWAP2 SWAP1 POP JUMP JUMPDEST PUSH2 0x49D0 DUP2 PUSH2 0x49B3 JUMP JUMPDEST DUP2 EQ PUSH2 0x49DB JUMPI PUSH1 0x0 DUP1 REVERT JUMPDEST POP JUMP JUMPDEST PUSH1 0x0 DUP2 CALLDATALOAD SWAP1 POP PUSH2 0x49ED DUP2 PUSH2 0x49C7 JUMP JUMPDEST SWAP3 SWAP2 POP POP JUMP JUMPDEST PUSH1 0x0 PUSH1 0x20 DUP3 DUP5 SUB SLT ISZERO PUSH2 0x4A09 JUMPI PUSH2 0x4A08 PUSH2 0x4397 JUMP JUMPDEST JUMPDEST PUSH1 0x0 PUSH2 0x4A17 DUP5 DUP3 DUP6 ADD PUSH2 0x49DE JUMP JUMPDEST SWAP2 POP POP SWAP3 SWAP2 POP POP JUMP JUMPDEST PUSH2 0x4A29 DUP2 PUSH2 0x49B3 JUMP JUMPDEST DUP3 MSTORE POP POP JUMP JUMPDEST PUSH2 0x4A38 DUP2 PUSH2 0x4926 JUMP JUMPDEST DUP3 MSTORE POP POP JUMP JUMPDEST PUSH1 0x0 PUSH2 0x100 DUP3 ADD SWAP1 POP PUSH2 0x4A54 PUSH1 0x0 DUP4 ADD DUP12 PUSH2 0x4A20 JUMP JUMPDEST PUSH2 0x4A61 PUSH1 0x20 DUP4 ADD DUP11 PUSH2 0x4989 JUMP JUMPDEST PUSH2 0x4A6E PUSH1 0x40 DUP4 ADD DUP10 PUSH2 0x4989 JUMP JUMPDEST PUSH2 0x4A7B PUSH1 0x60 DUP4 ADD DUP9 PUSH2 0x4989 JUMP JUMPDEST DUP2 DUP2 SUB PUSH1 0x80 DUP4 ADD MSTORE PUSH2 0x4A8D DUP2 DUP8 PUSH2 0x4693 JUMP JUMPDEST SWAP1 POP PUSH2 0x4A9C PUSH1 0xA0 DUP4 ADD DUP7 PUSH2 0x4432 JUMP JUMPDEST PUSH2 0x4AA9 PUSH1 0xC0 DUP4 ADD DUP6 PUSH2 0x4432 JUMP JUMPDEST PUSH2 0x4AB6 PUSH1 0xE0 DUP4 ADD DUP5 PUSH2 0x4A2F JUMP JUMPDEST SWAP10 SWAP9 POP POP POP POP POP POP POP POP POP JUMP JUMPDEST PUSH1 0x0 DUP1 PUSH1 0x0 DUP1 PUSH1 0x80 DUP6 DUP8 SUB SLT ISZERO PUSH2 0x4ADD JUMPI PUSH2 0x4ADC PUSH2 0x4397 JUMP JUMPDEST JUMPDEST PUSH1 0x0 PUSH2 0x4AEB DUP8 DUP3 DUP9 ADD PUSH2 0x44A5 JUMP JUMPDEST SWAP5 POP POP PUSH1 0x20 PUSH2 0x4AFC DUP8 DUP3 DUP9 ADD PUSH2 0x44A5 JUMP JUMPDEST SWAP4 POP POP PUSH1 0x40 PUSH2 0x4B0D DUP8 DUP3 DUP9 ADD PUSH2 0x44A5 JUMP JUMPDEST SWAP3 POP POP PUSH1 0x60 DUP6 ADD CALLDATALOAD PUSH8 0xFFFFFFFFFFFFFFFF DUP2 GT ISZERO PUSH2 0x4B2E JUMPI PUSH2 0x4B2D PUSH2 0x439C JUMP JUMPDEST JUMPDEST PUSH2 0x4B3A DUP8 DUP3 DUP9 ADD PUSH2 0x489C JUMP JUMPDEST SWAP2 POP POP SWAP3 SWAP6 SWAP2 SWAP5 POP SWAP3 POP JUMP JUMPDEST PUSH1 0x0 PUSH1 0x20 DUP3 ADD SWAP1 POP PUSH2 0x4B5B PUSH1 0x0 DUP4 ADD DUP5 PUSH2 0x4A20 JUMP JUMPDEST SWAP3 SWAP2 POP POP JUMP JUMPDEST PUSH2 0x4B6A DUP2 PUSH2 0x4426 JUMP JUMPDEST DUP2 EQ PUSH2 0x4B75 JUMPI PUSH1 0x0 DUP1 REVERT JUMPDEST POP JUMP JUMPDEST PUSH1 0x0 DUP2 CALLDATALOAD SWAP1 POP PUSH2 0x4B87 DUP2 PUSH2 0x4B61 JUMP JUMPDEST SWAP3 SWAP2 POP POP JUMP JUMPDEST PUSH1 0x0 DUP1 PUSH1 0x40 DUP4 DUP6 SUB SLT ISZERO PUSH2 0x4BA4 JUMPI PUSH2 0x4BA3 PUSH2 0x4397 JUMP JUMPDEST JUMPDEST PUSH1 0x0 PUSH2 0x4BB2 DUP6 DUP3 DUP7 ADD PUSH2 0x49DE JUMP JUMPDEST SWAP3 POP POP PUSH1 0x20 PUSH2 0x4BC3 DUP6 DUP3 DUP7 ADD PUSH2 0x4B78 JUMP JUMPDEST SWAP2 POP POP SWAP3 POP SWAP3 SWAP1 POP JUMP JUMPDEST PUSH1 0x0 DUP2 MLOAD SWAP1 POP SWAP2 SWAP1 POP JUMP JUMPDEST PUSH1 0x0 DUP3 DUP3 MSTORE PUSH1 0x20 DUP3 ADD SWAP1 POP SWAP3 SWAP2 POP POP JUMP JUMPDEST PUSH1 0x0 DUP2 SWAP1 POP PUSH1 0x20 DUP3 ADD SWAP1 POP SWAP2 SWAP1 POP JUMP JUMPDEST PUSH1 0x0 PUSH2 0x4C05 DUP4 DUP4 PUSH2 0x4586 JUMP JUMPDEST PUSH1 0x20 DUP4 ADD SWAP1 POP SWAP3 SWAP2 POP POP JUMP JUMPDEST PUSH1 0x0 PUSH1 0x20 DUP3 ADD SWAP1 POP SWAP2 SWAP1 POP JUMP JUMPDEST PUSH1 0x0 PUSH2 0x4C29 DUP3 PUSH2 0x4BCD JUMP JUMPDEST PUSH2 0x4C33 DUP2 DUP6 PUSH2 0x4BD8 JUMP JUMPDEST SWAP4 POP PUSH2 0x4C3E DUP4 PUSH2 0x4BE9 JUMP JUMPDEST DUP1 PUSH1 0x0 JUMPDEST DUP4 DUP2 LT ISZERO PUSH2 0x4C6F JUMPI DUP2 MLOAD PUSH2 0x4C56 DUP9 DUP3 PUSH2 0x4BF9 JUMP JUMPDEST SWAP8 POP PUSH2 0x4C61 DUP4 PUSH2 0x4C11 JUMP JUMPDEST SWAP3 POP POP PUSH1 0x1 DUP2 ADD SWAP1 POP PUSH2 0x4C42 JUMP JUMPDEST POP DUP6 SWAP4 POP POP POP POP SWAP3 SWAP2 POP POP JUMP JUMPDEST PUSH1 0x0 PUSH1 0x20 DUP3 ADD SWAP1 POP DUP2 DUP2 SUB PUSH1 0x0 DUP4 ADD MSTORE PUSH2 0x4C96 DUP2 DUP5 PUSH2 0x4C1E JUMP JUMPDEST SWAP1 POP SWAP3 SWAP2 POP POP JUMP JUMPDEST PUSH1 0x0 DUP1 PUSH1 0x40 DUP4 DUP6 SUB SLT ISZERO PUSH2 0x4CB5 JUMPI PUSH2 0x4CB4 PUSH2 0x4397 JUMP JUMPDEST JUMPDEST PUSH1 0x0 PUSH2 0x4CC3 DUP6 DUP3 DUP7 ADD PUSH2 0x44A5 JUMP JUMPDEST SWAP3 POP POP PUSH1 0x20 PUSH2 0x4CD4 DUP6 DUP3 DUP7 ADD PUSH2 0x4B78 JUMP JUMPDEST SWAP2 POP POP SWAP3 POP SWAP3 SWAP1 POP JUMP JUMPDEST PUSH1 0x0 DUP1 PUSH1 0x0 DUP1 PUSH1 0x0 PUSH1 0xA0 DUP7 DUP9 SUB SLT ISZERO PUSH2 0x4CFA JUMPI PUSH2 0x4CF9 PUSH2 0x4397 JUMP JUMPDEST JUMPDEST PUSH1 0x0 PUSH2 0x4D08 DUP9 DUP3 DUP10 ADD PUSH2 0x44A5 JUMP JUMPDEST SWAP6 POP POP PUSH1 0x20 PUSH2 0x4D19 DUP9 DUP3 DUP10 ADD PUSH2 0x44A5 JUMP JUMPDEST SWAP5 POP POP PUSH1 0x40 DUP7 ADD CALLDATALOAD PUSH8 0xFFFFFFFFFFFFFFFF DUP2 GT ISZERO PUSH2 0x4D3A JUMPI PUSH2 0x4D39 PUSH2 0x439C JUMP JUMPDEST JUMPDEST PUSH2 0x4D46 DUP9 DUP3 DUP10 ADD PUSH2 0x489C JUMP JUMPDEST SWAP4 POP POP PUSH1 0x60 DUP7 ADD CALLDATALOAD PUSH8 0xFFFFFFFFFFFFFFFF DUP2 GT ISZERO PUSH2 0x4D67 JUMPI PUSH2 0x4D66 PUSH2 0x439C JUMP JUMPDEST JUMPDEST PUSH2 0x4D73 DUP9 DUP3 DUP10 ADD PUSH2 0x489C JUMP JUMPDEST SWAP3 POP POP PUSH1 0x80 DUP7 ADD CALLDATALOAD PUSH8 0xFFFFFFFFFFFFFFFF DUP2 GT ISZERO PUSH2 0x4D94 JUMPI PUSH2 0x4D93 PUSH2 0x439C JUMP JUMPDEST JUMPDEST PUSH2 0x4DA0 DUP9 DUP3 DUP10 ADD PUSH2 0x489C JUMP JUMPDEST SWAP2 POP POP SWAP3 SWAP6 POP SWAP3 SWAP6 SWAP1 SWAP4 POP JUMP JUMPDEST PUSH1 0x0 PUSH1 0x80 DUP4 ADD PUSH1 0x0 DUP4 ADD MLOAD PUSH2 0x4DC5 PUSH1 0x0 DUP7 ADD DUP3 PUSH2 0x44E7 JUMP JUMPDEST POP PUSH1 0x20 DUP4 ADD MLOAD DUP5 DUP3 SUB PUSH1 0x20 DUP7 ADD MSTORE PUSH2 0x4DDD DUP3 DUP3 PUSH2 0x454D JUMP JUMPDEST SWAP2 POP POP PUSH1 0x40 DUP4 ADD MLOAD DUP5 DUP3 SUB PUSH1 0x40 DUP7 ADD MSTORE PUSH2 0x4DF7 DUP3 DUP3 PUSH2 0x454D JUMP JUMPDEST SWAP2 POP POP PUSH1 0x60 DUP4 ADD MLOAD DUP5 DUP3 SUB PUSH1 0x60 DUP7 ADD MSTORE PUSH2 0x4E11 DUP3 DUP3 PUSH2 0x454D JUMP JUMPDEST SWAP2 POP POP DUP1 SWAP2 POP POP SWAP3 SWAP2 POP POP JUMP JUMPDEST PUSH1 0x0 PUSH1 0x20 DUP3 ADD SWAP1 POP DUP2 DUP2 SUB PUSH1 0x0 DUP4 ADD MSTORE PUSH2 0x4E38 DUP2 DUP5 PUSH2 0x4DAD JUMP JUMPDEST SWAP1 POP SWAP3 SWAP2 POP POP JUMP JUMPDEST PUSH1 0x0 PUSH1 0x40 DUP4 ADD PUSH1 0x0 DUP4 ADD MLOAD PUSH2 0x4E58 PUSH1 0x0 DUP7 ADD DUP3 PUSH2 0x44E7 JUMP JUMPDEST POP PUSH1 0x20 DUP4 ADD MLOAD DUP5 DUP3 SUB PUSH1 0x20 DUP7 ADD MSTORE PUSH2 0x4E70 DUP3 DUP3 PUSH2 0x454D JUMP JUMPDEST SWAP2 POP POP DUP1 SWAP2 POP POP SWAP3 SWAP2 POP POP JUMP JUMPDEST PUSH1 0x0 PUSH1 0x20 DUP3 ADD SWAP1 POP DUP2 DUP2 SUB PUSH1 0x0 DUP4 ADD MSTORE PUSH2 0x4E97 DUP2 DUP5 PUSH2 0x4E40 JUMP JUMPDEST SWAP1 POP SWAP3 SWAP2 POP POP JUMP JUMPDEST PUSH1 0x0 PUSH1 0x80 DUP3 ADD SWAP1 POP PUSH2 0x4EB4 PUSH1 0x0 DUP4 ADD DUP8 PUSH2 0x4432 JUMP JUMPDEST DUP2 DUP2 SUB PUSH1 0x20 DUP4 ADD MSTORE PUSH2 0x4EC6 DUP2 DUP7 PUSH2 0x4693 JUMP JUMPDEST SWAP1 POP DUP2 DUP2 SUB PUSH1 0x40 DUP4 ADD MSTORE PUSH2 0x4EDA DUP2 DUP6 PUSH2 0x4693 JUMP JUMPDEST SWAP1 POP DUP2 DUP2 SUB PUSH1 0x60 DUP4 ADD MSTORE PUSH2 0x4EEE DUP2 DUP5 PUSH2 0x4693 JUMP JUMPDEST SWAP1 POP SWAP6 SWAP5 POP POP POP POP POP JUMP JUMPDEST PUSH1 0x0 PUSH1 0xC0 DUP3 ADD SWAP1 POP PUSH2 0x4F0E PUSH1 0x0 DUP4 ADD DUP10 PUSH2 0x4432 JUMP JUMPDEST PUSH2 0x4F1B PUSH1 0x20 DUP4 ADD DUP9 PUSH2 0x4432 JUMP JUMPDEST DUP2 DUP2 SUB PUSH1 0x40 DUP4 ADD MSTORE PUSH2 0x4F2D DUP2 DUP8 PUSH2 0x4693 JUMP JUMPDEST SWAP1 POP DUP2 DUP2 SUB PUSH1 0x60 DUP4 ADD MSTORE PUSH2 0x4F41 DUP2 DUP7 PUSH2 0x4693 JUMP JUMPDEST SWAP1 POP DUP2 DUP2 SUB PUSH1 0x80 DUP4 ADD MSTORE PUSH2 0x4F55 DUP2 DUP6 PUSH2 0x4693 JUMP JUMPDEST SWAP1 POP PUSH2 0x4F64 PUSH1 0xA0 DUP4 ADD DUP5 PUSH2 0x4989 JUMP JUMPDEST SWAP8 SWAP7 POP POP POP POP POP POP POP JUMP JUMPDEST PUSH1 0x0 PUSH1 0xA0 DUP3 ADD SWAP1 POP PUSH2 0x4F84 PUSH1 0x0 DUP4 ADD DUP9 PUSH2 0x4A20 JUMP JUMPDEST DUP2 DUP2 SUB PUSH1 0x20 DUP4 ADD MSTORE PUSH2 0x4F96 DUP2 DUP8 PUSH2 0x4595 JUMP JUMPDEST SWAP1 POP DUP2 DUP2 SUB PUSH1 0x40 DUP4 ADD MSTORE PUSH2 0x4FAA DUP2 DUP7 PUSH2 0x4DAD JUMP JUMPDEST SWAP1 POP DUP2 DUP2 SUB PUSH1 0x60 DUP4 ADD MSTORE PUSH2 0x4FBE DUP2 DUP6 PUSH2 0x4E40 JUMP JUMPDEST SWAP1 POP DUP2 DUP2 SUB PUSH1 0x80 DUP4 ADD MSTORE PUSH2 0x4FD2 DUP2 DUP5 PUSH2 0x4693 JUMP JUMPDEST SWAP1 POP SWAP7 SWAP6 POP POP POP POP POP POP JUMP JUMPDEST PUSH1 0x0 DUP1 PUSH1 0x0 DUP1 PUSH1 0x80 DUP6 DUP8 SUB SLT ISZERO PUSH2 0x4FF8 JUMPI PUSH2 0x4FF7 PUSH2 0x4397 JUMP JUMPDEST JUMPDEST PUSH1 0x0 PUSH2 0x5006 DUP8 DUP3 DUP9 ADD PUSH2 0x44A5 JUMP JUMPDEST SWAP5 POP POP PUSH1 0x20 DUP6 ADD CALLDATALOAD PUSH8 0xFFFFFFFFFFFFFFFF DUP2 GT ISZERO PUSH2 0x5027 JUMPI PUSH2 0x5026 PUSH2 0x439C JUMP JUMPDEST JUMPDEST PUSH2 0x5033 DUP8 DUP3 DUP9 ADD PUSH2 0x489C JUMP JUMPDEST SWAP4 POP POP PUSH1 0x40 DUP6 ADD CALLDATALOAD PUSH8 0xFFFFFFFFFFFFFFFF DUP2 GT ISZERO PUSH2 0x5054 JUMPI PUSH2 0x5053 PUSH2 0x439C JUMP JUMPDEST JUMPDEST PUSH2 0x5060 DUP8 DUP3 DUP9 ADD PUSH2 0x489C JUMP JUMPDEST SWAP3 POP POP PUSH1 0x60 DUP6 ADD CALLDATALOAD PUSH8 0xFFFFFFFFFFFFFFFF DUP2 GT ISZERO PUSH2 0x5081 JUMPI PUSH2 0x5080 PUSH2 0x439C JUMP JUMPDEST JUMPDEST PUSH2 0x508D DUP8 DUP3 DUP9 ADD PUSH2 0x489C JUMP JUMPDEST SWAP2 POP POP SWAP3 SWAP6 SWAP2 SWAP5 POP SWAP3 POP JUMP JUMPDEST PUSH32 0x4E487B7100000000000000000000000000000000000000000000000000000000 PUSH1 0x0 MSTORE PUSH1 0x22 PUSH1 0x4 MSTORE PUSH1 0x24 PUSH1 0x0 REVERT JUMPDEST PUSH1 0x0 PUSH1 0x2 DUP3 DIV SWAP1 POP PUSH1 0x1 DUP3 AND DUP1 PUSH2 0x50E0 JUMPI PUSH1 0x7F DUP3 AND SWAP2 POP JUMPDEST PUSH1 0x20 DUP3 LT DUP2 SUB PUSH2 0x50F3 JUMPI PUSH2 0x50F2 PUSH2 0x5099 JUMP JUMPDEST JUMPDEST POP SWAP2 SWAP1 POP JUMP JUMPDEST PUSH32 0x43616C6C6572206973206E6F74206120686F73706974616C0000000000000000 PUSH1 0x0 DUP3 ADD MSTORE POP JUMP JUMPDEST PUSH1 0x0 PUSH2 0x512F PUSH1 0x18 DUP4 PUSH2 0x4682 JUMP JUMPDEST SWAP2 POP PUSH2 0x513A DUP3 PUSH2 0x50F9 JUMP JUMPDEST PUSH1 0x20 DUP3 ADD SWAP1 POP SWAP2 SWAP1 POP JUMP JUMPDEST PUSH1 0x0 PUSH1 0x20 DUP3 ADD SWAP1 POP DUP2 DUP2 SUB PUSH1 0x0 DUP4 ADD MSTORE PUSH2 0x515E DUP2 PUSH2 0x5122 JUMP JUMPDEST SWAP1 POP SWAP2 SWAP1 POP JUMP JUMPDEST PUSH32 0x456E7469747920616C7265616479207265676973746572656400000000000000 PUSH1 0x0 DUP3 ADD MSTORE POP JUMP JUMPDEST PUSH1 0x0 PUSH2 0x519B PUSH1 0x19 DUP4 PUSH2 0x4682 JUMP JUMPDEST SWAP2 POP PUSH2 0x51A6 DUP3 PUSH2 0x5165 JUMP JUMPDEST PUSH1 0x20 DUP3 ADD SWAP1 POP SWAP2 SWAP1 POP JUMP JUMPDEST PUSH1 0x0 PUSH1 0x20 DUP3 ADD SWAP1 POP DUP2 DUP2 SUB PUSH1 0x0 DUP4 ADD MSTORE PUSH2 0x51CA DUP2 PUSH2 0x518E JUMP JUMPDEST SWAP1 POP SWAP2 SWAP1 POP JUMP JUMPDEST PUSH1 0x0 DUP2 SWAP1 POP DUP2 PUSH1 0x0 MSTORE PUSH1 0x20 PUSH1 0x0 KECCAK256 SWAP1 POP SWAP2 SWAP1 POP JUMP JUMPDEST PUSH1 0x0 PUSH1 0x20 PUSH1 0x1F DUP4 ADD DIV SWAP1 POP SWAP2 SWAP1 POP JUMP JUMPDEST PUSH1 0x0 DUP3 DUP3 SHL SWAP1 POP SWAP3 SWAP2 POP POP JUMP JUMPDEST PUSH1 0x0 PUSH1 0x8 DUP4 MUL PUSH2 0x5233 PUSH32 0xFFFFFFFFFFFFFFFFFFFFFFFFFFFFFFFFFFFFFFFFFFFFFFFFFFFFFFFFFFFFFFFF DUP3 PUSH2 0x51F6 JUMP JUMPDEST PUSH2 0x523D DUP7 DUP4 PUSH2 0x51F6 JUMP JUMPDEST SWAP6 POP DUP1 NOT DUP5 AND SWAP4 POP DUP1 DUP7 AND DUP5 OR SWAP3 POP POP POP SWAP4 SWAP3 POP POP POP JUMP JUMPDEST PUSH1 0x0 DUP2 SWAP1 POP SWAP2 SWAP1 POP JUMP JUMPDEST PUSH1 0x0 PUSH2 0x527A PUSH2 0x5275 PUSH2 0x5270 DUP5 PUSH2 0x4926 JUMP JUMPDEST PUSH2 0x5255 JUMP JUMPDEST PUSH2 0x4926 JUMP JUMPDEST SWAP1 POP SWAP2 SWAP1 POP JUMP JUMPDEST PUSH1 0x0 DUP2 SWAP1 POP SWAP2 SWAP1 POP JUMP JUMPDEST PUSH2 0x5294 DUP4 PUSH2 0x525F JUMP JUMPDEST PUSH2 0x52A8 PUSH2 0x52A0 DUP3 PUSH2 0x5281 JUMP JUMPDEST DUP5 DUP5 SLOAD PUSH2 0x5203 JUMP JUMPDEST DUP3 SSTORE POP POP POP POP JUMP JUMPDEST PUSH1 0x0 SWAP1 JUMP JUMPDEST PUSH2 0x52BD PUSH2 0x52B0 JUMP JUMPDEST PUSH2 0x52C8 DUP2 DUP5 DUP5 PUSH2 0x528B JUMP JUMPDEST POP POP POP JUMP JUMPDEST JUMPDEST DUP2 DUP2 LT ISZERO PUSH2 0x52EC JUMPI PUSH2 0x52E1 PUSH1 0x0 DUP3 PUSH2 0x52B5 JUMP JUMPDEST PUSH1 0x1 DUP2 ADD SWAP1 POP PUSH2 0x52CE JUMP JUMPDEST POP POP JUMP JUMPDEST PUSH1 0x1F DUP3 GT ISZERO PUSH2 0x5331 JUMPI PUSH2 0x5302 DUP2 PUSH2 0x51D1 JUMP JUMPDEST PUSH2 0x530B DUP5 PUSH2 0x51E6 JUMP JUMPDEST DUP2 ADD PUSH1 0x20 DUP6 LT ISZERO PUSH2 0x531A JUMPI DUP2 SWAP1 POP JUMPDEST PUSH2 0x532E PUSH2 0x5326 DUP6 PUSH2 0x51E6 JUMP JUMPDEST DUP4 ADD DUP3 PUSH2 0x52CD JUMP JUMPDEST POP POP JUMPDEST POP POP POP JUMP JUMPDEST PUSH1 0x0 DUP3 DUP3 SHR SWAP1 POP SWAP3 SWAP2 POP POP JUMP JUMPDEST PUSH1 0x0 PUSH2 0x5354 PUSH1 0x0 NOT DUP5 PUSH1 0x8 MUL PUSH2 0x5336 JUMP JUMPDEST NOT DUP1 DUP4 AND SWAP2 POP POP SWAP3 SWAP2 POP POP JUMP JUMPDEST PUSH1 0x0 PUSH2 0x536D DUP4 DUP4 PUSH2 0x5343 JUMP JUMPDEST SWAP2 POP DUP3 PUSH1 0x2 MUL DUP3 OR SWAP1 POP SWAP3 SWAP2 POP POP JUMP JUMPDEST PUSH2 0x5386 DUP3 PUSH2 0x44F6 JUMP JUMPDEST PUSH8 0xFFFFFFFFFFFFFFFF DUP2 GT ISZERO PUSH2 0x539F JUMPI PUSH2 0x539E PUSH2 0x479F JUMP JUMPDEST JUMPDEST PUSH2 0x53A9 DUP3 SLOAD PUSH2 0x50C8 JUMP JUMPDEST PUSH2 0x53B4 DUP3 DUP3 DUP6 PUSH2 0x52F0 JUMP JUMPDEST PUSH1 0x0 PUSH1 0x20 SWAP1 POP PUSH1 0x1F DUP4 GT PUSH1 0x1 DUP2 EQ PUSH2 0x53E7 JUMPI PUSH1 0x0 DUP5 ISZERO PUSH2 0x53D5 JUMPI DUP3 DUP8 ADD MLOAD SWAP1 POP JUMPDEST PUSH2 0x53DF DUP6 DUP3 PUSH2 0x5361 JUMP JUMPDEST DUP7 SSTORE POP PUSH2 0x5447 JUMP JUMPDEST PUSH1 0x1F NOT DUP5 AND PUSH2 0x53F5 DUP7 PUSH2 0x51D1 JUMP JUMPDEST PUSH1 0x0 JUMPDEST DUP3 DUP2 LT ISZERO PUSH2 0x541D JUMPI DUP5 DUP10 ADD MLOAD DUP3 SSTORE PUSH1 0x1 DUP3 ADD SWAP2 POP PUSH1 0x20 DUP6 ADD SWAP5 POP PUSH1 0x20 DUP2 ADD SWAP1 POP PUSH2 0x53F8 JUMP JUMPDEST DUP7 DUP4 LT ISZERO PUSH2 0x543A JUMPI DUP5 DUP10 ADD MLOAD PUSH2 0x5436 PUSH1 0x1F DUP10 AND DUP3 PUSH2 0x5343 JUMP JUMPDEST DUP4 SSTORE POP JUMPDEST PUSH1 0x1 PUSH1 0x2 DUP9 MUL ADD DUP9 SSTORE POP POP POP JUMPDEST POP POP POP POP POP POP JUMP JUMPDEST PUSH32 0x43616C6C6572206973206E6F74206120646F63746F7200000000000000000000 PUSH1 0x0 DUP3 ADD MSTORE POP JUMP JUMPDEST PUSH1 0x0 PUSH2 0x5485 PUSH1 0x16 DUP4 PUSH2 0x4682 JUMP JUMPDEST SWAP2 POP PUSH2 0x5490 DUP3 PUSH2 0x544F JUMP JUMPDEST PUSH1 0x20 DUP3 ADD SWAP1 POP SWAP2 SWAP1 POP JUMP JUMPDEST PUSH1 0x0 PUSH1 0x20 DUP3 ADD SWAP1 POP DUP2 DUP2 SUB PUSH1 0x0 DUP4 ADD MSTORE PUSH2 0x54B4 DUP2 PUSH2 0x5478 JUMP JUMPDEST SWAP1 POP SWAP2 SWAP1 POP JUMP JUMPDEST PUSH32 0x446F63746F72206973206E6F7420616374697665000000000000000000000000 PUSH1 0x0 DUP3 ADD MSTORE POP JUMP JUMPDEST PUSH1 0x0 PUSH2 0x54F1 PUSH1 0x14 DUP4 PUSH2 0x4682 JUMP JUMPDEST SWAP2 POP PUSH2 0x54FC DUP3 PUSH2 0x54BB JUMP JUMPDEST PUSH1 0x20 DUP3 ADD SWAP1 POP SWAP2 SWAP1 POP JUMP JUMPDEST PUSH1 0x0 PUSH1 0x20 DUP3 ADD SWAP1 POP DUP2 DUP2 SUB PUSH1 0x0 DUP4 ADD MSTORE PUSH2 0x5520 DUP2 PUSH2 0x54E4 JUMP JUMPDEST SWAP1 POP SWAP2 SWAP1 POP JUMP JUMPDEST PUSH32 0x446F63746F7220646F6573206E6F742062656C6F6E6720746F20746869732068 PUSH1 0x0 DUP3 ADD MSTORE PUSH32 0x6F73706974616C00000000000000000000000000000000000000000000000000 PUSH1 0x20 DUP3 ADD MSTORE POP JUMP JUMPDEST PUSH1 0x0 PUSH2 0x5583 PUSH1 0x27 DUP4 PUSH2 0x4682 JUMP JUMPDEST SWAP2 POP PUSH2 0x558E DUP3 PUSH2 0x5527 JUMP JUMPDEST PUSH1 0x40 DUP3 ADD SWAP1 POP SWAP2 SWAP1 POP JUMP JUMPDEST PUSH1 0x0 PUSH1 0x20 DUP3 ADD SWAP1 POP DUP2 DUP2 SUB PUSH1 0x0 DUP4 ADD MSTORE PUSH2 0x55B2 DUP2 PUSH2 0x5576 JUMP JUMPDEST SWAP1 POP SWAP2 SWAP1 POP JUMP JUMPDEST PUSH32 0x5265717565737420686173206E6F74206265656E20617070726F766564000000 PUSH1 0x0 DUP3 ADD MSTORE POP JUMP JUMPDEST PUSH1 0x0 PUSH2 0x55EF PUSH1 0x1D DUP4 PUSH2 0x4682 JUMP JUMPDEST SWAP2 POP PUSH2 0x55FA DUP3 PUSH2 0x55B9 JUMP JUMPDEST PUSH1 0x20 DUP3 ADD SWAP1 POP SWAP2 SWAP1 POP JUMP JUMPDEST PUSH1 0x0 PUSH1 0x20 DUP3 ADD SWAP1 POP DUP2 DUP2 SUB PUSH1 0x0 DUP4 ADD MSTORE PUSH2 0x561E DUP2 PUSH2 0x55E2 JUMP JUMPDEST SWAP1 POP SWAP2 SWAP1 POP JUMP JUMPDEST PUSH32 0x4E487B7100000000000000000000000000000000000000000000000000000000 PUSH1 0x0 MSTORE PUSH1 0x11 PUSH1 0x4 MSTORE PUSH1 0x24 PUSH1 0x0 REVERT JUMPDEST PUSH1 0x0 PUSH2 0x565F DUP3 PUSH2 0x49B3 JUMP JUMPDEST SWAP2 POP PUSH8 0xFFFFFFFFFFFFFFFF DUP3 SUB PUSH2 0x5679 JUMPI PUSH2 0x5678 PUSH2 0x5625 JUMP JUMPDEST JUMPDEST PUSH1 0x1 DUP3 ADD SWAP1 POP SWAP2 SWAP1 POP JUMP JUMPDEST PUSH32 0x52657175657374206973206E6F742070656E64696E6700000000000000000000 PUSH1 0x0 DUP3 ADD MSTORE POP JUMP JUMPDEST PUSH1 0x0 PUSH2 0x56BA PUSH1 0x16 DUP4 PUSH2 0x4682 JUMP JUMPDEST SWAP2 POP PUSH2 0x56C5 DUP3 PUSH2 0x5684 JUMP JUMPDEST PUSH1 0x20 DUP3 ADD SWAP1 POP SWAP2 SWAP1 POP JUMP JUMPDEST PUSH1 0x0 PUSH1 0x20 DUP3 ADD SWAP1 POP DUP2 DUP2 SUB PUSH1 0x0 DUP4 ADD MSTORE PUSH2 0x56E9 DUP2 PUSH2 0x56AD JUMP JUMPDEST SWAP1 POP SWAP2 SWAP1 POP JUMP JUMPDEST PUSH32 0x4F6E6C79207468652061737369676E656420646F63746F722063616E20726573 PUSH1 0x0 DUP3 ADD MSTORE PUSH32 0x706F6E6400000000000000000000000000000000000000000000000000000000 PUSH1 0x20 DUP3 ADD MSTORE POP JUMP JUMPDEST PUSH1 0x0 PUSH2 0x574C PUSH1 0x24 DUP4 PUSH2 0x4682 JUMP JUMPDEST SWAP2 POP PUSH2 0x5757 DUP3 PUSH2 0x56F0 JUMP JUMPDEST PUSH1 0x40 DUP3 ADD SWAP1 POP SWAP2 SWAP1 POP JUMP JUMPDEST PUSH1 0x0 PUSH1 0x20 DUP3 ADD SWAP1 POP DUP2 DUP2 SUB PUSH1 0x0 DUP4 ADD MSTORE PUSH2 0x577B DUP2 PUSH2 0x573F JUMP JUMPDEST SWAP1 POP SWAP2 SWAP1 POP JUMP JUMPDEST PUSH32 0x4E6F7420617574686F72697A6564000000000000000000000000000000000000 PUSH1 0x0 DUP3 ADD MSTORE POP JUMP JUMPDEST PUSH1 0x0 PUSH2 0x57B8 PUSH1 0xE DUP4 PUSH2 0x4682 JUMP JUMPDEST SWAP2 POP PUSH2 0x57C3 DUP3 PUSH2 0x5782 JUMP JUMPDEST PUSH1 0x20 DUP3 ADD SWAP1 POP SWAP2 SWAP1 POP JUMP JUMPDEST PUSH1 0x0 PUSH1 0x20 DUP3 ADD SWAP1 POP DUP2 DUP2 SUB PUSH1 0x0 DUP4 ADD MSTORE PUSH2 0x57E7 DUP2 PUSH2 0x57AB JUMP JUMPDEST SWAP1 POP SWAP2 SWAP1 POP JUMP JUMPDEST PUSH32 0x446F63746F72206E6F7420726567697374657265640000000000000000000000 PUSH1 0x0 DUP3 ADD MSTORE POP JUMP JUMPDEST PUSH1 0x0 PUSH2 0x5824 PUSH1 0x15 DUP4 PUSH2 0x4682 JUMP JUMPDEST SWAP2 POP PUSH2 0x582F DUP3 PUSH2 0x57EE JUMP JUMPDEST PUSH1 0x20 DUP3 ADD SWAP1 POP SWAP2 SWAP1 POP JUMP JUMPDEST PUSH1 0x0 PUSH1 0x20 DUP3 ADD SWAP1 POP DUP2 DUP2 SUB PUSH1 0x0 DUP4 ADD MSTORE PUSH2 0x5853 DUP2 PUSH2 0x5817 JUMP JUMPDEST SWAP1 POP SWAP2 SWAP1 POP JUMP JUMPDEST PUSH32 0x446F63746F7220616C7265616479207265676973746572656400000000000000 PUSH1 0x0 DUP3 ADD MSTORE POP JUMP JUMPDEST PUSH1 0x0 PUSH2 0x5890 PUSH1 0x19 DUP4 PUSH2 0x4682 JUMP JUMPDEST SWAP2 POP PUSH2 0x589B DUP3 PUSH2 0x585A JUMP JUMPDEST PUSH1 0x20 DUP3 ADD SWAP1 POP SWAP2 SWAP1 POP JUMP JUMPDEST PUSH1 0x0 PUSH1 0x20 DUP3 ADD SWAP1 POP DUP2 DUP2 SUB PUSH1 0x0 DUP4 ADD MSTORE PUSH2 0x58BF DUP2 PUSH2 0x5883 JUMP JUMPDEST SWAP1 POP SWAP2 SWAP1 POP JUMP JUMPDEST PUSH32 0x456E74697479206E6F7420726567697374657265640000000000000000000000 PUSH1 0x0 DUP3 ADD MSTORE POP JUMP JUMPDEST PUSH1 0x0 PUSH2 0x58FC PUSH1 0x15 DUP4 PUSH2 0x4682 JUMP JUMPDEST SWAP2 POP PUSH2 0x5907 DUP3 PUSH2 0x58C6 JUMP JUMPDEST PUSH1 0x20 DUP3 ADD SWAP1 POP SWAP2 SWAP1 POP JUMP JUMPDEST PUSH1 0x0 PUSH1 0x20 DUP3 ADD SWAP1 POP DUP2 DUP2 SUB PUSH1 0x0 DUP4 ADD MSTORE PUSH2 0x592B DUP2 PUSH2 0x58EF JUMP JUMPDEST SWAP1 POP SWAP2 SWAP1 POP JUMP JUMPDEST PUSH32 0x4F6E6C792061646D696E2063616E2072656D6F76652061207573657200000000 PUSH1 0x0 DUP3 ADD MSTORE POP JUMP JUMPDEST PUSH1 0x0 PUSH2 0x5968 PUSH1 0x1C DUP4 PUSH2 0x4682 JUMP JUMPDEST SWAP2 POP PUSH2 0x5973 DUP3 PUSH2 0x5932 JUMP JUMPDEST PUSH1 0x20 DUP3 ADD SWAP1 POP SWAP2 SWAP1 POP JUMP JUMPDEST PUSH1 0x0 PUSH1 0x20 DUP3 ADD SWAP1 POP DUP2 DUP2 SUB PUSH1 0x0 DUP4 ADD MSTORE PUSH2 0x5997 DUP2 PUSH2 0x595B JUMP JUMPDEST SWAP1 POP SWAP2 SWAP1 POP JUMP JUMPDEST PUSH32 0x55736572206E6F74207265676973746572656400000000000000000000000000 PUSH1 0x0 DUP3 ADD MSTORE POP JUMP JUMPDEST PUSH1 0x0 PUSH2 0x59D4 PUSH1 0x13 DUP4 PUSH2 0x4682 JUMP JUMPDEST SWAP2 POP PUSH2 0x59DF DUP3 PUSH2 0x599E JUMP JUMPDEST PUSH1 0x20 DUP3 ADD SWAP1 POP SWAP2 SWAP1 POP JUMP JUMPDEST PUSH1 0x0 PUSH1 0x20 DUP3 ADD SWAP1 POP DUP2 DUP2 SUB PUSH1 0x0 DUP4 ADD MSTORE PUSH2 0x5A03 DUP2 PUSH2 0x59C7 JUMP JUMPDEST SWAP1 POP SWAP2 SWAP1 POP JUMP JUMPDEST PUSH32 0x43616C6C6572206973206E6F7420612075736572000000000000000000000000 PUSH1 0x0 DUP3 ADD MSTORE POP JUMP JUMPDEST PUSH1 0x0 PUSH2 0x5A40 PUSH1 0x14 DUP4 PUSH2 0x4682 JUMP JUMPDEST SWAP2 POP PUSH2 0x5A4B DUP3 PUSH2 0x5A0A JUMP JUMPDEST PUSH1 0x20 DUP3 ADD SWAP1 POP SWAP2 SWAP1 POP JUMP JUMPDEST PUSH1 0x0 PUSH1 0x20 DUP3 ADD SWAP1 POP DUP2 DUP2 SUB PUSH1 0x0 DUP4 ADD MSTORE PUSH2 0x5A6F DUP2 PUSH2 0x5A33 JUMP JUMPDEST SWAP1 POP SWAP2 SWAP1 POP JUMP JUMPDEST PUSH32 0x4F6E6C792061646D696E2063616E2072656D6F766520616E20656E7469747900 PUSH1 0x0 DUP3 ADD MSTORE POP JUMP JUMPDEST PUSH1 0x0 PUSH2 0x5AAC PUSH1 0x1F DUP4 PUSH2 0x4682 JUMP JUMPDEST SWAP2 POP PUSH2 0x5AB7 DUP3 PUSH2 0x5A76 JUMP JUMPDEST PUSH1 0x20 DUP3 ADD SWAP1 POP SWAP2 SWAP1 POP JUMP JUMPDEST PUSH1 0x0 PUSH1 0x20 DUP3 ADD SWAP1 POP DUP2 DUP2 SUB PUSH1 0x0 DUP4 ADD MSTORE PUSH2 0x5ADB DUP2 PUSH2 0x5A9F JUMP JUMPDEST SWAP1 POP SWAP2 SWAP1 POP JUMP JUMPDEST PUSH32 0x5573657220616C72656164792072656769737465726564000000000000000000 PUSH1 0x0 DUP3 ADD MSTORE POP JUMP JUMPDEST PUSH1 0x0 PUSH2 0x5B18 PUSH1 0x17 DUP4 PUSH2 0x4682 JUMP JUMPDEST SWAP2 POP PUSH2 0x5B23 DUP3 PUSH2 0x5AE2 JUMP JUMPDEST PUSH1 0x20 DUP3 ADD SWAP1 POP SWAP2 SWAP1 POP JUMP JUMPDEST PUSH1 0x0 PUSH1 0x20 DUP3 ADD SWAP1 POP DUP2 DUP2 SUB PUSH1 0x0 DUP4 ADD MSTORE PUSH2 0x5B47 DUP2 PUSH2 0x5B0B JUMP JUMPDEST SWAP1 POP SWAP2 SWAP1 POP JUMP JUMPDEST PUSH1 0x0 DUP2 SWAP1 POP SWAP3 SWAP2 POP POP JUMP JUMPDEST PUSH1 0x0 PUSH2 0x5B64 DUP3 PUSH2 0x44F6 JUMP JUMPDEST PUSH2 0x5B6E DUP2 DUP6 PUSH2 0x5B4E JUMP JUMPDEST SWAP4 POP PUSH2 0x5B7E DUP2 DUP6 PUSH1 0x20 DUP7 ADD PUSH2 0x4512 JUMP JUMPDEST DUP1 DUP5 ADD SWAP2 POP POP SWAP3 SWAP2 POP POP JUMP JUMPDEST PUSH1 0x0 PUSH2 0x5B96 DUP3 DUP5 PUSH2 0x5B59 JUMP JUMPDEST SWAP2 POP DUP2 SWAP1 POP SWAP3 SWAP2 POP POP JUMP JUMPDEST PUSH1 0x0 DUP2 SLOAD PUSH2 0x5BAE DUP2 PUSH2 0x50C8 JUMP JUMPDEST PUSH2 0x5BB8 DUP2 DUP7 PUSH2 0x5B4E JUMP JUMPDEST SWAP5 POP PUSH1 0x1 DUP3 AND PUSH1 0x0 DUP2 EQ PUSH2 0x5BD3 JUMPI PUSH1 0x1 DUP2 EQ PUSH2 0x5BE8 JUMPI PUSH2 0x5C1B JUMP JUMPDEST PUSH1 0xFF NOT DUP4 AND DUP7 MSTORE DUP2 ISZERO ISZERO DUP3 MUL DUP7 ADD SWAP4 POP PUSH2 0x5C1B JUMP JUMPDEST PUSH2 0x5BF1 DUP6 PUSH2 0x51D1 JUMP JUMPDEST PUSH1 0x0 JUMPDEST DUP4 DUP2 LT ISZERO PUSH2 0x5C13 JUMPI DUP2 SLOAD DUP2 DUP10 ADD MSTORE PUSH1 0x1 DUP3 ADD SWAP2 POP PUSH1 0x20 DUP2 ADD SWAP1 POP PUSH2 0x5BF4 JUMP JUMPDEST DUP4 DUP9 ADD SWAP6 POP POP POP JUMPDEST POP POP POP SWAP3 SWAP2 POP POP JUMP JUMPDEST PUSH1 0x0 PUSH2 0x5C30 DUP3 DUP5 PUSH2 0x5BA1 JUMP JUMPDEST SWAP2 POP DUP2 SWAP1 POP SWAP3 SWAP2 POP POP JUMP JUMPDEST PUSH32 0x4E6F206D61746368696E67207265717565737420666F756E6400000000000000 PUSH1 0x0 DUP3 ADD MSTORE POP JUMP JUMPDEST PUSH1 0x0 PUSH2 0x5C71 PUSH1 0x19 DUP4 PUSH2 0x4682 JUMP JUMPDEST SWAP2 POP PUSH2 0x5C7C DUP3 PUSH2 0x5C3B JUMP JUMPDEST PUSH1 0x20 DUP3 ADD SWAP1 POP SWAP2 SWAP1 POP JUMP JUMPDEST PUSH1 0x0 PUSH1 0x20 DUP3 ADD SWAP1 POP DUP2 DUP2 SUB PUSH1 0x0 DUP4 ADD MSTORE PUSH2 0x5CA0 DUP2 PUSH2 0x5C64 JUMP JUMPDEST SWAP1 POP SWAP2 SWAP1 POP JUMP JUMPDEST PUSH32 0x4E487B7100000000000000000000000000000000000000000000000000000000 PUSH1 0x0 MSTORE PUSH1 0x32 PUSH1 0x4 MSTORE PUSH1 0x24 PUSH1 0x0 REVERT JUMPDEST PUSH1 0x0 PUSH2 0x5CE1 DUP3 PUSH2 0x4926 JUMP JUMPDEST SWAP2 POP PUSH2 0x5CEC DUP4 PUSH2 0x4926 JUMP JUMPDEST SWAP3 POP DUP3 DUP3 SUB SWAP1 POP DUP2 DUP2 GT ISZERO PUSH2 0x5D04 JUMPI PUSH2 0x5D03 PUSH2 0x5625 JUMP JUMPDEST JUMPDEST SWAP3 SWAP2 POP POP JUMP JUMPDEST PUSH32 0x4E487B7100000000000000000000000000000000000000000000000000000000 PUSH1 0x0 MSTORE PUSH1 0x31 PUSH1 0x4 MSTORE PUSH1 0x24 PUSH1 0x0 REVERT JUMPDEST PUSH1 0x0 PUSH2 0x5D44 DUP3 PUSH2 0x4926 JUMP JUMPDEST SWAP2 POP PUSH1 0x0 DUP3 SUB PUSH2 0x5D57 JUMPI PUSH2 0x5D56 PUSH2 0x5625 JUMP JUMPDEST JUMPDEST PUSH1 0x1 DUP3 SUB SWAP1 POP SWAP2 SWAP1 POP JUMP JUMPDEST PUSH1 0x0 PUSH2 0x5D6D DUP3 PUSH2 0x4926 JUMP JUMPDEST SWAP2 POP PUSH32 0xFFFFFFFFFFFFFFFFFFFFFFFFFFFFFFFFFFFFFFFFFFFFFFFFFFFFFFFFFFFFFFFF DUP3 SUB PUSH2 0x5D9F JUMPI PUSH2 0x5D9E PUSH2 0x5625 JUMP JUMPDEST JUMPDEST PUSH1 0x1 DUP3 ADD SWAP1 POP SWAP2 SWAP1 POP JUMP JUMPDEST PUSH1 0x0 PUSH1 0x40 DUP3 ADD SWAP1 POP PUSH2 0x5DBF PUSH1 0x0 DUP4 ADD DUP6 PUSH2 0x4989 JUMP JUMPDEST PUSH2 0x5DCC PUSH1 0x20 DUP4 ADD DUP5 PUSH2 0x4658 JUMP JUMPDEST SWAP4 SWAP3 POP POP POP JUMP INVALID LOG2 PUSH5 0x6970667358 0x22 SLT KECCAK256 0xC0 PUSH25 0x8E5D945292F3EB3311CC67DADF1306100C15C8E66BEF01AECD BLOCKHASH 0x27 GT 0xBB PUSH32 0x64736F6C63430008180033000000000000000000000000000000000000000000 "},"methodIdentifiers":{"ADMIN_ROLE()":"75b238fc","DEFAULT_ADMIN_ROLE()":"a217fddf","DOCTOR_ROLE()":"fec331f2","HOSPITAL_ROLE()":"f6ba6678","USER_ROLE()":"13119161","certificateCounter()":"67764b26","certificates(uint64)":"fa223b44","doctorAddresses(uint256)":"3ba51e7c","doctors(address)":"a9583c22","entities(address)":"1d8ee48a","generateCertificate(address,address,address,string)":"47ed9e1d","getDoctorAddresses()":"84d3d47b","getDoctorInformation(address)":"11fdcb07","getEntityInformation(address)":"a0714eb0","getRoleAdmin(bytes32)":"248a9ca3","getUserAddresses()":"a591efde","getUserInformation(address)":"9862d5f0","grantRole(bytes32,address)":"2f2ff15d","hasRole(bytes32,address)":"91d14854","registerDoctor(address,address,string,string,string)":"981b5502","registerEntity(address,string)":"32b3f568","registerUser(address,string,string,string)":"fe69c296","removeDoctor(address)":"98fc90e9","removeEntity(address)":"dd182996","removeUser(address)":"98575188","renounceRole(bytes32,address)":"36568abe","requestCertificate(address,string)":"c736cf93","requestCounter()":"973a814e","requests(uint64)":"411010ec","respondToCertificateRequest(uint64,bool)":"83195a7a","revokeRole(bytes32,address)":"d547741f","setDoctorActiveStatus(address,bool)":"88b261ac","supportsInterface(bytes4)":"01ffc9a7","userAddresses(uint256)":"502c9bd5","users(address)":"a87430ba"}}}}}